:020000040000FA
:06000000020A380201C3F0
:03002B0002088345
:0300330002069F23
:0300430002073879
:030053000200F4B4
:03006B0002068505
:100083000201580101FF01010503010F10FEFFC822
:1000930012C812C812C81284117E11C81231250069
:1000A3000000009325000000000C0000000C00017C
:1000B300FFFF414C4432353330204D5132000102B1
:1000C300006605000000D905640002020008000074
:1000D300050207051E02051E020A0A03B80B028069
:1000E3003E0102F1FF141F00E007965118000202BF
:1000F30006C0E074F21203DCA2AFE433FED2AFE534
:10010300A7FFE5A1F5085F54106006121A8A75A1CE
:10011300EFE5085F54086008121A9075A1F7802B69
:10012300EFA2E0C0D0E508A2E092F012095F1581CA
:1001330082F05017906198E0F8900AB7E0C398A254
:10014300D265D0335002E8F075A1FEEEA2E092AF83
:100153007F0102043BC0E074F21203DCA2AFE4337C
:10016300FED2AF9061A4E0F8759B00E59158540866
:1001730060087591F7121AD8802AE59158541060D7
:10018300087591EF121ADE801BE8A2E0C0D0E5915A
:10019300A2E092F012095F158182F05007E0C2E0FD
:1001A300F0121C229061A3E0F8E5E9585404600EB4
:1001B300121BF875E9FB906193E0A2E640F2808B95
:1001C300C0E074F21203DCA2AFE433FED2AF90615D
:1001D300A5E0F8E5BF585404600675BFFB121C3A4E
:1001E30002014EC3E498F8E499F91202278026C36A
:1001F300E49AFAE49BFBE920E7E9120227E498F882
:10020300E499F922C3E498F8E499F9120227E498EF
:10021300F8E499F9C3E49AFAE49BFB22EB20E7CFD5
:10022300E920E7E0B90010BB0008E88AF084F8AAE7
:10023300F022E4FBC8FA22EB70227B10C833C8C952
:1002430033C9335007C39AC3DBF280069A50012A9D
:10025300DBEAC833F4C8C933F4C9FA2275F008E4F9
:10026300C833C8C933C933C99AC99B5004C92AC9F9
:100273003BD5F0ECFBC833F4C8E4C9FA22080808FC
:10028300EAC0E0EBC0E086F0E7A4FA180986F0E7DD
:10029300A42AFA180986F0E7A42AFA180986F0E7CF
:1002A300A42AFA1986F0E7A4FBE5F02AFA190886CE
:1002B300F0E7A42BFBE5F03AFA190886F0E7A42B44
:1002C300FBE5F03AFA18180986F0E7A4C5F02BFB12
:1002D300E43AFA1908E7C5F0C6A426F6E5F03BFBB5
:1002E300E43AFA1886F0E7A4F6E5F00826F6E43BCC
:1002F30008F6E43A08F6D0E0FBD0E0FA22E4CFC0F7
:10030300E0E4CEC0E0E4CDC0E0E4CCC0E075F02092
:10031300C3E633F608E633F608E633F608E633F6C3
:10032300181818EC33FCED33FDEE33FEEF33FFC347
:10033300EC9709ED9709EE9709EF97191919400FF3
:10034300FFEC97FC09ED97FD09EE97FE191906D509
:10035300F0BEECF709EDF709EEF709EFF7191919F4
:10036300D0E0FCD0E0FDD0E0FED0E0FF222518C5B0
:1003730082C0E0E51934FFC583C0E0E518C3958268
:1003830024F810AF0885831985821880088583199E
:10039300858218D2AFCEF0A3E520F0A37808E60853
:1003A300F0A3DEFAEFF0A3E58124FAF8E608F0A360
:1003B300E608F0A3E608F0A30808E608F0A3E608B9
:1003C300F0A315811581D0E0FED0E0F815811581E9
:1003D3001581E8C0E0EEC0E022C0D02518C582C078
:1003E300E0E51934FFC583C0E0E518C3958224F323
:1003F30010AF088583198582188008858319858243
:1004030018D2AFC8F0A3E9F0A3EAF0A3EBF0A37905
:1004130008E709F0A3D8FAECF0A3EDF0A3EEF0A3FC
:10042300EFF0A3D0E0F0A3D0E0F0A3D0E0F0A3E599
:1004330020F0A3E5F0F0A322851983851882E0C09C
:10044300E0A3E0F9A3E0FAA3E0FBA37808E0F60851
:10045300A3DFFAE0FCA3E0FDA3E0FEA3E0FFA3E03B
:10046300C0E0A3E0C0E0A3E0F5D0A3E0F520A3E063
:10047300A3F5F010AF08858319858218800885835A
:1004830019858218D2AFD082D083D0E0F8D0E03281
:10049300120A9AB900030204D5E4900301787E7925
:1004A3000E8002F0A3D8FCD9FA90107EAA82AB8307
:1004B300900086786F79018015E493A3AC82AD83B5
:1004C3008A828B83F0A3AA82AB838C828D83D8E943
:1004D300D9E77582DA7583DA74031207FB7582CE66
:1004E30075831E74001207FB0975F0108E1A8F1B9B
:1004F30085821F85831E851882851983E0CEA3E03C
:10050300CF851F82851E83EBC9EAC8EDCBECCAC336
:10051300E833C8E933C9EA33CAEB33CBC3EA9EF500
:100523001DEB9FF51CB35004AB1CAA1DEC33CCEDA3
:1005330033CDD5F0DAAE1AAF1B22D083D082ECC014
:10054300E0EDC0E0E493A3FCE493A3FDED4C600D68
:10055300120615EC24FFFCED34FFFD80EFE493A3BA
:10056300FCE493A3FDED4C600D1206E3EC24FFFCC9
:10057300ED34FFFD80EFD0E0FDD0E0FCE493A3C0B9
:10058300E0E493C0E022851983851882E0A3FEE0AE
:10059300A3F5207808E0A3F608DFFAE0A3FFE0A3C1
:1005A300C0E0E0A3C0E0E0A3C0E0E0A3C0E0E0A3BC
:1005B300C0E010AF088582188583198008858218EA
:1005C300858319D2AFD083D082020801D083D08231
:1005D300E9C0E0E493A3C386F0C5F095F0F908E41D
:1005E30093A386F0C5F095F0700BE493A3C39940F1
:1005F30005E9048002A3E475F002A42582F582E5EF
:10060300F03583F583D0E0F9E493A3C0E0E493C02D
:10061300E022C0E0C3E49396087401939618400F58
:10062300E49366700808740193661870007019A348
:10063300A3C3E49396087401939618A3A3400DD023
:10064300E0D0E0D0E0020579A3A3A3A3A3A3D0E065
:10065300227404800474028000CCC0E0EDC0E0E5A5
:1006630018C39CCCAD1950011D10AF068C188D1901
:1006730080068C188D19D2AF12077DD0E0FDD0E033
:10068300FC22C0E074F21203DCE589A2E1500312FC
:10069300193A758900C2C57F0102043BC0E074F2B8
:1006A3001203DCE58BA2E0500312193A758B00C2EA
:1006B300E880E474028000CCC0E0EDC0E0E518C33C
:1006C3009CCCAD1950011D10AF068C188D198006F6
:1006D3008C188D19D2AF12075BD0E0FDD0E0FC225D
:1006E300C0E0C0F088F0E493667008087401936674
:1006F300187000A8F0A3A3700BD0F0D0E0D0E0D026
:10070300E0020579A3A3D0F0D0E022D083D082CC3D
:10071300C0E0E493A360061207BD1470FAE493A348
:1007230060061208CD1470FAD0E0FCE493A3C0E095
:10073300E493C0E022C0E074F21203DCA2AFE4331E
:10074300FED2AFC2C0E5D1A2E45003121A00EEA25A
:10075300E092AF7F0102043BCAC0E0E493A3C582E9
:10076300CCC582C583CDC583F0A3C582CCC582C564
:1007730083CDC583DAE5D0E0CA22CAC0E0E0A3C5D1
:1007830082CCC582C583CDC583F0A3C582CCC58287
:10079300C583CDC583DAE6D0E0CA2270090808080C
:1007A300226016181818C6C333C608C633C608C64F
:1007B30033C608C633C6D5E0EA22C0E0E493A3D328
:1007C3009C5010E493A3C39C400AD0E0D0E0D0E057
:1007D30002072BA3A3A3D0E022C008C3E096F50829
:1007E30008A3E096420808A3E096420808A3E0960F
:1007F30045087001D3D00822C09FF59FE473D09FB2
:1008030022D083D082C09FE493C0E0740193C0E000
:10081300740293F59F222518F58210AF08F518404E
:100823000215198008F51840021519D2AF851983EE
:10083300227404800A74038006740280027401C067
:10084300E0F404120819D0E0120A7522C0D025186A
:1008530010AF08F518500205198008F51850020565
:1008630019D2AFD0D022BB0102E722C082C0838954
:10087300828A83BB0003E08002E493D083D0822288
:10088300C0E0C0D0E8C0E0E5A8D2AFC2C7A2E792FB
:10089300AFD0E0F8D0D0D0E0326016080808C6C365
:1008A30013C618C613C618C613C618C613C6D5E092
:1008B300EA22C3E0C696F608A3E0C696F608A3E0CC
:1008C300C696F608A3E0C696F622C0E0E493A36CAE
:1008D3007009D0E0D0E0D0E002072BA3A3D0E02240
:1008E300251810AF08F518400215198008F51840AF
:1008F300021519D2AF22E76670100809E766700A7D
:100903000809E76670040809E76622E066701008C4
:10091300A3E066700A08A3E066700408A3E06622F9
:10092300C3E09608A3E09608A3E09608A3E096A286
:10093300D265D03322C3E096F008A3E096F008A373
:10094300E096F008A3E096F022E026F008A3E03654
:10095300F008A3E036F008A3E036F022C0E0E8C0D8
:10096300E0E58124FCF8E6A2E7D0E0F8D0E022E657
:1009730047F60809E647F60809E647F60809E64791
:10098300F622E026F608A3E036F608A3E036F608DA
:10099300A3E036F622E627F60809E637F60809E665
:1009A30037F60809E637F622E657F60809E657F65A
:1009B3000809E657F60809E657F622E056F608A3B3
:1009C300E056F608A3E056F608A3E056F622E056F2
:1009D300F008A3E056F008A3E056F008A3E056F0B1
:1009E30022700422600D18C6C333C608C633C6D5A9
:1009F300E0F41822E4C396F608E496F608E496F6C3
:100A030008E496F622C6F4C608C6F4C608C6F4C6B9
:100A130008C6F4C622C3E7960809E7960809E796CD
:100A23000809E79622C3E09608A3E09608A3E09698
:100A330008A3E0962275D0007581407518017519D9
:100A43000300020493E0F608A3E0F608A3E0F60827
:100A5300A3E0F622600C08C6C313C618C613C6D596
:100A6300E0F422E6F008A3E6F008A3E6F008A3E624
:100A7300F022CAC0E0E6F0A308DAFAD0E0FA22E0F6
:100A8300FAA3E0FBA3E0FCA3E0FD22EAF0A3EBF072
:100A9300A3ECF0A3EDF022E5C754F84401F5C779C0
:100AA30001222518F582E43519F58322C2AF75D6E4
:100AB3009F02000022120804D7DF02120804B9E0E3
:100AC300021208040EE3021208045BE40212080493
:100AD300FEE40212080445E60212080463E6021269
:100AE3000804342800120804462800120804982831
:100AF30000120804F92800120804832900120804CC
:100B0300272A001208047B2A00120804942A0012E0
:100B13000804BA2A00120804F52A00120804392B23
:100B230000120804602B00120804B12B0012080401
:100B3300612C00120804192D00120804E12D001283
:100B43000804A12E00120804E52E001208040A2F3F
:100B5300001208044D2F001208049A2F00120804F3
:100B6300F2300012080478310012080496310012A2
:100B73000804C03100120804DA3100120804E93114
:100B830000120804F43100120804B43200120804FD
:100B93000D3300120804CF3300120804D7330012B8
:100BA30008049B3400120804073500120804323687
:100BB30000120804573600120804CD360012080448
:100BC3005F37001208041F38001208043E38001271
:100BD30008044D39001208045F3900120804CF39A4
:100BE30000120804F93900120804873A00120804B5
:100BF300C03A001208040C3B00120804283C0012FF
:100C03000804713E001208047C3E00120804873E6B
:100C130000120804923E001208049C3E00120804CD
:100C2300A73E00120804C13E00120804CB3E001286
:100C33000804D53E00120804E03E00120804083FF1
:100C430000120804633F001208046D3F00120804F9
:100C5300913F00120804B53F00120804134000122C
:100C63000804574000120804734000120804EA40C5
:100C7300001208042241001208046E410012080405
:100C8300CB41001208048542001208046944001293
:100C93000804C24400120804F2450012080418466E
:100CA30000120804A147001208041D4B0012080497
:100CB300EF4C00120804B84E00120804654F0012EE
:100CC3000804D050001208046F5100120804B451F4
:100CD300001208041E52001208042D5200120804C8
:100CE300B45400120804665600120804D3560012C6
:100CF3000804B25700120804CB5800120804485ADB
:100D030000120804675A00120804BC5A00120804AF
:100D1300C15B00120804E95B00120804415C001285
:100D23000804205D00120804645D00120804AF5D2E
:100D3300001208041A5E001208045B5F0012080424
:100D4300BF5F001208040D61001208046D630012F6
:100D530008049E6300120804566500120804AB657C
:100D630000120804AF66001208044C67001208045E
:100D7300A56700120804586800120804FA680012F4
:100D830008049A69001208043F6A001208045D8689
:100D9300011208049C8601120804E3880112080466
:100DA3002D8901120804488A01120804B08A01122D
:100DB3000804E58A01120804598C01120804DC8E28
:100DC300011208040590011208049B900112080403
:100DD300A39901120804389A011208041F9D0112F5
:100DE3000804129E01120804809E01120804C69F83
:100DF30001120804A8A0011208048DA2011208041C
:100E03009EA40112080408A501120804DAA5011220
:100E1300080408A601120804C5A6011208049CA729
:100E23000112080463A80112080407A901120804A7
:100E330030A90112080452A901120804A8AB011237
:100E4300080480AC01120804C4AC011208042CADE0
:100E530001120804E4AD0112080416AE01120804DD
:100E63005AAE0112080490AE01120804DCAE01125E
:100E7300080431AF0112080436AF0112080489AF28
:100E830001120804AEAF01120804BDB00112080438
:100E930021B10112080491B1011208041DB201121B
:100EA3000804EAB401120804CEB50112080451B7CC
:100EB3000112080487B90112080435BA01120804A3
:100EC300E5BA0112080426BD01120804C9BD0112C6
:100ED300080410BE01120804BCBF01120804D0BFED
:100EE30001120804DABF0112080402C00112080447
:100EF3000EC0011208042DC0011208044DC20112D4
:100F030008049CC301120804E0C30112080488C446
:100F1300011208046BC50112080416C60112080465
:100F230062C70112080460C80112080406C901124D
:100F3300080496C901120804ADC901120804E4C9E2
:100F430001120804EEC901120804F9C901120804C8
:100F530017CA011208045BCA01120804B8CA0112B5
:100F63000804DDCA01120804F7CA0112080483CB7E
:100F730001120804A0CC011208040DCD01120804CB
:100F8300F4CD011208041BCE011208048FCE011206
:100F930008040ACF011208040ED00112080404D178
:100FA30001120804B3D101120804C6D201120804C5
:100FB30062D301120804EFD301120804CDD4011245
:100FC300080405D5011208045DD50112080426D6CC
:100FD3000112080447D601120804CED601120804F0
:100FE300F2D60112080414D7011208045DD70112C6
:100FF300080473D9011208045ADA011208040BDB3E
:101003000112080441DD0112080491DD01120804F4
:10101300D1DD0112080413DE011208046FDE011290
:1010230008049DDE01120804C1DE0112080414DF66
:101033000112080442DF011208047BDF01120804D5
:10104300D0DF0112080436E0011208048AE101121C
:101053000804ADE3011208041AE40112080443E48E
:1010630001120804CEE40112080435E50112080454
:1010730080E501120804A4E501120804C8E5011281
:10108300080423E6011208043EE601120804F7E609
:1010930001120804548204120804938204120804FF
:1010A300788002120804BE80021208049E81021294
:1010B3000804A08202120804A383021208042F85E5
:1010C300021208048D85021208044A8602120804DB
:1010D300688702120804D9870212080415880212CD
:1010E30008046388021208046D8802120804B18898
:1010F300021208040D8902120804A88902120804C6
:10110300258A02120804F48A021208048D8B021243
:101113000804AD8B02120804E38B02120804148C3A
:1011230002120804D58C02120804E58C021208048A
:10113300398D02120804548D02120804668D0212BE
:1011430008046F8D02120804C98D02120804258E4B
:1011530002120804718E021208048C8E0212080413
:10116300BD8E02120804DA8E02120804E68E021201
:1011730008045A9002120804739002120804DA90C9
:1011830002120804ED9002120804FB9002120804F4
:10119300AF91021208049392021208049993021267
:1011A30008042394021208042D94021208049A944A
:1011B30002120804B19402120804E3940212080410
:1011C3001C9502120804469502120804A795021200
:1011D3000804C79502120804E595021208042B9629
:1011E300021208045197021208049E97021208047F
:1011F300CD97021208044398021208046B98021256
:101203000804A49802120804B298021208040A9966
:101213000212080459990212080498990212080448
:10122300C89902120804F49902120804FF990212E1
:1012330008041D9A02120804DF9A02120804E99AAC
:10124300021208042A9B021208047F9B021208045C
:10125300939B02120804A19C02120804B49C02127C
:101263000804C99C021208046B9D02120804EE9D37
:1012730002120804AC9E02120804B79E021208046C
:10128300E39F02120804FF9F0212080451A00212F6
:10129300080490A002120804A5A00212080407A1E2
:1012A3000212080496A102120804E1A10212080422
:1012B30032A402120804B0A40212080425A50212E3
:1012C300080447A7021208045FA70212080462A7D2
:1012D300021208046EA70212080482A7021208046D
:1012E3008AA702120804BDA7021208046DA80212FD
:1012F3000804E3A80212080456A9021208040AAA61
:1013030002120804BFAA02120804DEAA0212080489
:1013130084AB02120804AFAB02120804B2AB021290
:1013230008041CAC0212080444AD021208041CAEEB
:1013330002120804A7AE02120804C0AF0212080486
:101343007DB002120804B6B002120804E7B002121C
:101353000804A5B102120804D5B102120804B0B200
:101363000212080449B302120804D4B30212080497
:1013730085B40212080408B5021208043AB5021231
:1013830008047BB502120804ACF50112080411F637
:10139300011208044EF6011208049DF60112080416
:1013A300B3F80112080496FA0112080400FE0112B0
:1013B30008043BFE011208045DFE01120804C0FE8E
:1013C30001120804F4FE0112080417FF01120804B5
:1013D30044FF01120804A0FF01120804B1F3021232
:1013E30008042FF40212080465F402120804D1F46D
:1013F3000212080444F60212080460F602120804FA
:10140300A5F60212080433F7021208048CF702123D
:10141300080486D602120804CBF90212080428FA3B
:101423000212080494FA02120804F5FA02120804DC
:1014330036FB02120804E3FB02120804F5FC021255
:10144300080420FD021208046BFD02120804B2FD19
:101453000212080444FE02120804FFFE02120804EA
:10146300A9E80312080424E903120804BBDF0212EB
:10147300080450E903120804FA9903120804049AB1
:1014830003120804509A03120804BE9A03120804B4
:10149300DF9A031208048F9B03120804239E03128E
:1014A30008042C9E031208047F9E03120804A89EBE
:1014B300031208040F9F03120804A09F03120804D9
:1014C300E29F031208042CA0031208048BA003124A
:1014D3000804B7A00312080448A10312080487A153
:1014E30003120804C6A103120804FBA10312080493
:1014F3000DA2031208041FA2031208043EA2031242
:10150300080447A203120804FDA2031208043DA322
:1015130003120804008004120804C8F2031208042A
:10152300FEF20312080447F30312080497F40312AC
:1015330008048B6A00120804CA6B00120804066CC4
:1015430000120804C56D00120804EE6D00120804B1
:10155300817000120804C570001208044E72001254
:101563000804E672001208044E7300120804EF73B5
:101573000012080431740012080471740012080484
:10158300FC75001208046C770012080491790012AC
:101593000804BF7900120804E67900120804EF7901
:1015A30000120804767A00120804947D00120804DD
:1015B300BF8304120804D5830412080409820412A9
:1015C300080444E50312080457E503120804F4E58C
:1015D300031208042FE6031208044AE60312080460
:1015E3006FE603120804B4E603120804E5E60312E7
:1015F300080416E7031208049CE803120804EDF933
:101603000312080423FA031208043FFA031208041E
:1016130081FA0312080491FA0312080426FB031249
:10162300080430FB0312080448FB03120804DAE140
:101633000312080499E20312080449E3031208049D
:1016430087E30312080426E4031208049CE403124C
:1016530008048AE602120804DFE602120804C8E757
:101663000212080461E802120804ABE8021208043B
:1016730008E9021208041CE9021208044EE90212E6
:1016830008044CEA0212080490EA02120804ABEAC6
:1016930002120804FAEA0212080410EB0212080408
:1016A3001DEB0212080451EB021208046AEB02124A
:1016B300080434EC021208048EEC02120804DCEC79
:1016C30002120804FEEC0212080475EF0212080469
:1016D300AAEF021208043AF002120804AFF0021251
:1016E3000804B4F002120804F0F00212080446F1F0
:1016F300021208040AF2021208042FF2021208046A
:1017030039F2021208043CF202120804C5F2021272
:101713000804E0F202120804F3F2021208042EF3A2
:101723000212080431F3021208043CF30212080403
:1017330078F302120804A5FF03120804BDFF031285
:10174300080454B503120804A3B50312080445B7EB
:101753000312080403B9031208044BB90312080463
:101763006DBA031208049EBB03120804C0BB031224
:1017730008041CBC031208049EBC03120804008066
:1017830003120804218003120804AB800312080427
:10179300308103120804AC8103120804158203127A
:1017A3000804618203120804E082031208047283AE
:1017B30003120804FE83031208044084031208047E
:1017C300AC88031208042C8A03120804028B031248
:1017D3000804318B031208041C8D031208049C8F28
:1017E30003120804559003120804729103120804AB
:1017F300C99403120804D994031208043A960312F5
:101803000804C69603120804EF9703120804E0982D
:101813000312080462990312080431E70112080451
:10182300EBE7011208045DE801120804F9E801126C
:10183300080469E90112080422EC01120804F9EC16
:101843000112080466ED01120804E3EE0112080414
:10185300ADEF011208041DF001120804E6F10112B4
:101863000804F9F20112080492F30112080458F46F
:1018730001120804B6D3031208040AD4031208049D
:1018830062D403120804ADD4031208040FD5031263
:1018930008047BD5031208042ED6031208046FD65E
:1018A3000312080485D603120804E1D603120804C0
:1018B3001FD703120804FAF4031208042BF50312CA
:1018C3000804E5F5031208044BF60312080465DB6C
:1018D30003120804F1DC031208044A830412080407
:1018E3005B8304120804D4F603120804E2F603121D
:1018F3000804ECFF011208047381041208048381B5
:10190300041208049E8104120804FF8104120804CF
:10191300A3FE0312080428FF031208048CFF03121A
:10192300080491FD03120804B3FD031208041DFE0D
:101933000312080428FE031208046CFE03120804B1
:10194300A2AC03120804B0AC03120804F1AC0312F6
:10195300080412AD031208048FAD031208048FAEFE
:1019630003120804B1AE031208041DAF03120804E6
:1019730038AF0312080453AF031208045DAF031218
:10198300080467AF031208047AAF0312080493AF85
:10199300031208042FB003120804EBB00312080467
:1019A30062B103120804DCB10312080428B2031263
:1019B3000804CEB203120804AAB30312080450D7D2
:1019C300031208045ED703120804D8D703120804CD
:1019D300BCD80312080475DA031208049D830412A9
:1019E3000804D2BC031208043EBD03120804FDBD63
:1019F3000312080407BF0312080460C0031208049B
:101A0300BBC00312080410C10312080419C1031256
:101A130008042BC10312080495C103120804A9C1C9
:101A230003120804B3C10312080484C60312080492
:101A3300D9C603120804D5C80312080407C9031240
:101A4300080429C90312080442C9031208045BC924
:101A53000312080465CA0312080400CB0312080426
:101A63008CF803120804B0F803120804C9F803122F
:101A73000804FCF8031208042DF9031208045BF9A7
:101A830003120804BDF903120804CCF90312080475
:101A9300D6F903120804E3F90312080475EB0312E1
:101AA30008049BEB03120804D8EB03120804E7EBCA
:101AB3000312080406EC031208046EEC0312080474
:101AC30077EC03120804D6EC03120804FAEC0312B1
:101AD3000804B9ED03120804C6ED03120804D7ED98
:101AE30003120804E18204120804FE8204120804AB
:101AF30077CB03120804D5CC03120804E2CC0312FB
:101B03000804F5CC0312080414CD031208042ACDEB
:101B1300031208043ECD03120804B3CD03120804D4
:101B230018CE03120804C8CE031208049DCF031273
:101B33000804ADCF03120804BCCF03120804DA80F3
:101B430004120804FE800412080426810412080407
:101B53004E810412080405EE031208042CEE03124E
:101B630008044DEE03120804B2EE031208046BF0EE
:101B73000312080484F00312080490F0031208040B
:101B8300A4F003120804C2F003120804CCF00312F9
:101B93000804D6F003120804E9F0031208043CF128
:101BA3000312080475F103120804A4F103120804D4
:101BB300F2F10312080441F2031208045CF2031267
:101BC300080466F20312080477F203120804BDF254
:101BD3000312080476FF0212080466A30312080422
:101BE30090A303120804ACA303120804BFA30312B7
:101BF3000804D5A30312080432A40312080465A43D
:101C030003120804A1A803120804C7A903120804B5
:101C1300FAA90312080446AA0312080472AB0312BA
:101C230008049AAB03120804AFAB03120804BFAB5A
:101C33000312080403AC0312080464AC031208047F
:101C430074AC031208044BFB0312080466FB031273
:101C530008048FFB03120804A9FB03120804CEFB3C
:101C630003120804EDFB0312080405FC0312080425
:101C730033FC031208044DFC031208049D82041272
:101C830008045ADE0312080461DE031208046DDF40
:101C9300031208049DDF03120804C3DF03120804C0
:101CA300E6DF0312080408E00312080442E003120B
:101CB3000804A8E003120804E1E0031208042DE17C
:101CC300031208045AE1031208047AE10312080418
:101CD300157E001208042D7E001208041B7F0012DB
:101CE3000804FA7F001208047EFC03120804F0FCC7
:101CF300031208042EFD031208046FFD03120804E7
:101D0300F5CF0312080414D00312080463D003129E
:101D130008047FD003120804B0D003120804BDD016
:101D230003120804CAD003120804B6D1031208042C
:101D3300F4D10312080404D3031208040FD30312CB
:101D4300080421D3031208042AD30312080434D34A
:101D530003120804C7C1031208040CC603120804C3
:101D63001AC6031208041D8304120804C7FF0212D3
:101D73000804758304120804DF8304120804DAD507
:101D83000212080420D402120804D0D1021208045B
:101D930057D102120804FED0021208048ED0021298
:101DA300080465D00212080445CE0212080411CEBD
:101DB30002120804DECD02120804C2CD0212080486
:101DC300DBCC0212080493CC02120804DECA02120E
:101DD30008045ECA021208045BCA0212080458C946
:101DE3000212080426C90212080463C80212080476
:101DF3008EC6021208041FC602120804F1C502129D
:101E030008043FDF02120804F6DE02120804AEDE05
:101E130002120804FCDD021208046EDD021208043B
:101E2300EEC502120804DBC50212080486C50212BD
:101E3300080461DD0212080475C50212080467C4B0
:101E43000212080431C402120804DFC30212080498
:101E53005BDA021208042FE90312080480C302129A
:101E630008044FC30212080417C002120804D7BFA4
:101E730002120804CBBF021208042BBF021208048B
:101E83006BBE02120804EDBB021208047EB90212F3
:101E930008043CB90212080410B802120804C5B7BA
:101EA3000212080404B702120804D7B60212080487
:101EB3001AB602120804B0B502120804EAB50212F7
:101EC3000804BDD702120804B9F80200000080FB21
:101ED300E4730000000000000000000000000000A8
:101EE300000010101010101000003030000000141B
:101EF300285000000000000000000000000000283F
:101F030028FC284850FC505000000000103854545E
:101F1300301814545438100000000044A8A8B054DA
:101F23001A2A2A44000000000020505060ACA898F0
:101F3300927C000000606020C000000000000000F0
:101F43000000000408081010101010100808040006
:101F5300000040201008040810204000000000008A
:101F6300001010D63838D610100000000000001002
:101F73001010FE1010100000000000000000000010
:101F830000000000606020C0000000000000FC00B2
:101F9300000000000000000000000000000000003E
:101FA30060600000000204040408081010202020D0
:101FB300400000000030488484848484483000005A
:101FC30000000010701010101010107C00000000B2
:101FD3000038444404081020447C0000000000380A
:101FE3004444180404444438000000000808182836
:101FF3004848887C081C00000000007C404078446E
:102003000444443800000000003C4480B8C4848485
:10201300847800000000007C444808101010101061
:102023000000000000788484487884848478000069
:10203300000000788484848C740488F0000000001D
:1020430000000030300000003030000000000000CD
:1020530000001000000000101020000004081020F1
:1020630040201008040000000000000000FC0000F5
:10207300FC000000000000004020100804081020AD
:102083004000000000007884848408101000303081
:10209300000000000038449AAAAAAAB4423C0000F7
:1020A3000000001010282828384444EE00000000E7
:1020B30000F844447844444444F800000000003CE1
:1020C30044848080808044380000000000F048444D
:1020D3004444444448F00000000000FC4440487875
:1020E300484044FC0000000000FC4240487848405F
:1020F30040E000000000003C448480808E8444382B
:102103000000000000EE4444447C444444EE0000DC
:102113000000007C101010101010107C0000000054
:10212300007C101010101010101090E0000000EE52
:1021330044485070484844EE0000000000E040402E
:102143004040404044FC0000000000EE6C6C6C54C6
:10215300545454D60000000000EE64645454544CAC
:102163004CE40000000000304884848484844830B8
:102173000000000000F844444478404040E0000080
:10218300000000304884848484B448380C00000084
:1021930000F844447850484844E600000000003CFE
:1021A30044402018040444780000000000FE92100C
:1021B3001010101010380000000000EE4444444496
:1021C300444444380000000000EE444428282828F2
:1021D30010100000000000D6545454546C282828D2
:1021E3000000000000EE44282810282844EE0000D8
:1021F300000000EE442828101010103800000000E2
:10220300007C88081020204044FC0000001C1010B3
:1022130010101010101010101C000070101010106F
:10222300101010101010700000701010101010100B
:1022330010101010700000102800000000000000B3
:10224300000000000000000000000000000000008B
:1022530000FE00606020C0000000000000000000DD
:1022630000000000000038441C24443E000000002D
:1022730000C040407844444444780000000000001B
:1022830000003C444040443800000000000C0404BB
:102293003C444444443E0000000000000000384435
:1022A3007C40443800000000001C2420F82020203B
:1022B300207800000000000000003C4848304078CF
:1022C3004438000000C040405864444444EE0000D9
:1022D30000000010000070101010107C00000000BF
:1022E300000800003808080808080870000000C04B
:1022F30040405C48507048EC000000000070101033
:1023030010101010107C0000000000000000F854B2
:10231300545454D60000000000000000D864444424
:1023230044EE0000000000000000384444444438F8
:102333000000000000000000F8444444447840E0FA
:102343000000000000003C444444443C040E0000F0
:1023530000000000EC30202020F800000000000006
:1023630000003C44300844780000000000001010D6
:102373007C101010100C0000000000000000CC4482
:102383004444443E0000000000000000EE442828BE
:1023930028100000000000000000D65454542828E0
:1023A3000000000000000000DC48303048EC000072
:1023B300000000000000EE442828101020E0000078
:1023C300000000007C481010247C00001010101046
:1023D30010101010101010101010000136360101EB
:1023E30000010201000103010001040106060502C8
:1023F3000000070100340801000F090401010D0169
:1024030000FF0E08000017020000190100FF1A0167
:1024130000011B0100FE1C0100081D0200001F013A
:10242300000120010001210200002301000F24020A
:1024330000002601000127010008280200FF2A01ED
:1024430000072B0102402C0100002D0100012E0189
:1024530000012F0100FF30010B1C310800003A017D
:1024630000083B01000F2F01000001017101010170
:10247300010111010101310101010101800110017B
:1024830061013B00140063017301720162014301A6
:102493000001130106013D01350004011201000191
:1024A30000010001000104010401330133013C0177
:1024B30044013201360000010001650100013500CD
:1024C3008101000105018201830100010302710200
:1024D3003001600211027002010202020202800254
:1024E300100261023A004100630273027202620247
:1024F3004302000213023800000200020402120227
:102503000002000200020002040204023700370046
:102513003C0244020002390000020002650200028C
:1025230035028102000205028202830200020300D7
:10253300710030016000110070003102200350046B
:10254300800010006100000014006300730072003B
:1025530062004300000013000600000000000400B6
:102563001200000000000000000004000400370017
:1025730037003C024400000000000000000065003A
:10258300000035008100000005000000830000000A
:102593000103710301030103010301030103220387
:1025A30002030103100300030003000300030003FD
:1025B3000003000342030003240306030003000394
:1025C3000403120325032303250323030403040342
:1025D3000003000300034403000300032303000379
:1025E3006503210035038103000305030003000392
:1025F3000003030471040204600411047004020460
:1026030002040104020410046104000414046304BA
:1026130073047204620443040004130406040004F4
:102623000004040412040004000400040004510420
:1026330064000004000400044404000400040004D3
:1026430000046504000435048104640005040004E7
:1026530083040004C9EEDBDACAD0B0B2C1AAB5C2A2
:10266300BFC6BCBCD3C3BBA7B5C7C2BCD5CABAC55A
:10267300C3DCC2EBC8B7B6A8C8A1CFFBD7A8D2B5F5
:10268300D7A8D7A2CEDECFDFCDA8D1B6B3CFD0C5E2
:10269300C1A2D7E3B4B4D0C2D6C2D4B6C7BFB4F3D1
:1026A300D4ADA3BA0036000100060000000F0000FD
:1026B300000000000000000000000003FFFF000016
:1026C3000403FFFF0000FFFF0FF4010005C4040330
:1026D30020000100030B00000000000000000301C4
:1026E3000F000032181300D2170100321802009CA9
:1026F300170300A2170400A8170500AE170600BAB7
:1027030017FFFF000001D60D06060E08000E0B1280
:102713000E10520D02DC0D05F40D07E20D0CB80D81
:102723000DCA0DFF000003EAF5E5D5D5C5B5A5959E
:102733009585857575656555554545353525251546
:102743001505DE110E12E411EA110812FC11F6113F
:1027530014121A1220122C12F011D811D2110016D1
:102763000F00000B150B020002220F32000006C8F7
:1027730012DA12E012A811E612A211AE11221340CE
:10278300134613281334132E13E210DC1018111EF2
:10279300111211CA100C0E020B040B0A0708000FCA
:1027A30000383C3E363B3B352B432C0001191618B1
:1027B30016161523030000034948424D1817250533
:1027C30002303017181921301B1D1F3030301618F6
:1027D3001920231A1C1E301613EC12F212FE12F8E3
:1027E30012021226123A13321238120204020101A3
:1027F30001010902EE10F410E8102411000000009A
:102803000000FA100C1100BE040A15000E000400AB
:102813007F00E8030C002800000000000308100CF0
:102823000A03080900040001FF1E1E0C050408101A
:102833000FC082C0838A828B83E0D2E7F012170035
:102843000239ABC082C0837900122D00125A17C01F
:1028530082C08390033412479DD083D082C3E09C0F
:10286300A3E09D500C1260EBFAA3E01228776001FD
:10287300090239ABFBEA75F00BA4FAA8F075F00B6B
:10288300EBA428FB900336E02AF8A3E03B8882F50B
:1028930083E0540F2274F71203708908122D00127B
:1028A3002DA6ACF075F00BE9A42CF9900336E028C3
:1028B300FEA3E039FF7401650860067402650870C1
:1028C300208A828B83122D92123A797402650870E2
:1028D3001B122C51122DD970138E828F83E4F0803A
:1028E3000BEA2403FCEB122D74122D80EEFAEFFB9E
:1028F300120AE20239E374F4120370126A127900C5
:102903008E828F83E06076890A890B8065E50A757C
:10291300F00BA4FAA8F075F00BE50B1228847046AF
:10292300E50A75F00BA4F8AAF075F00BE50B122D70
:10293300B88E828F83E0850882850983122E9A855B
:102943000882850983A3123A79EE2403FCEF122D42
:102953007D1239B2125491AA08AB09120AE2790125
:10296300900334124EA6E50A2401F50AE50B340060
:10297300F50B122C59E50A9AE50B9B4090023C2378
:1029830074F5120370EAFEEBFF740B120AA51239F9
:10299300B7750A01EC4D602BEC126A2EED125A1733
:1029A300123A717901120AEEE5084509606F85084C
:1029B30082850983A3126A1C7902AA08AB09120A49
:1029C300EE805AE5084509602B125A1B1240E512A6
:1029D30039B3122DC3700CEEFAEFFB120AF4E9F5CA
:1029E3000A80CBEE2403FA122CFB70317903EEFA42
:1029F300EFFB80CA8E828F83A3E064FE7003A3E0A3
:102A0300F4700BEE24030A0A0A122CFB700CEEFA84
:102A1300EFFB120AF4E9F50A8003750A00A90A7F9D
:102A23000302058974F71203709003341239F3EA31
:102A33004B602FEA75F00BA4FAA8F075F00BEBA42A
:102A430028FBEAFEEBFF1215269003361239F390AA
:102A53000336124CEB6012EEFCEFFD790012148A80
:102A63008007900336E4F0A3F00239E390033412B5
:102A73004455C3EE98EF9922C082C083EC4D6005A4
:102A8300121CFA80097C087D00790012148A02392D
:102A9300AB74F61203707900EA4B6018780088086B
:102AA300125D5EEB1260E760047901780808E8C301
:102AB300940840EA023A8274F712037074F312081E
:102AC300E3ECFEEDFF851882851983E4F004120A16
:102AD300A5EAF0A3EB1252177403120AA5AC82AD58
:102AE30083EEFAEFFB120B06EEFAEFFB120B0C026E
:102AF30039DE74F712037074F31208E3ECFEEDFF92
:102B0300851882851983E4F0EAFCEBFD7403120A4D
:102B1300A5122E937401120AA5123A6D8E828F8329
:102B2300123A7974FE68700374FF69600479018056
:102B33000279000239DE74F7120370EAFEEBFF122A
:102B43002B977014122BA28E828F83E0F4F88A8263
:102B53008B83E058F0120AE2A9080239E374F712F2
:102B63000370EAFEEBFF7508008E828F83E060221C
:102B7300122B97701D122BA28A828B83E08F838E78
:102B830082F8E058700CE0F88A828B83E048F012F8
:102B93000AE280C4120AE8E9F50874016508221202
:102BA3006A27122DAA122CECFAA3E039FB2274F443
:102BB3001203708A088B097C007D00122C51122DA0
:102BC30080122D11126A197900850882850983A361
:102BD300E064FE7003A3E0F460717E007F00806216
:102BE300EEFAEF1228776057EEFAEFFBEA75F00B77
:102BF300A4FAA8F075F00BEBA428FB900336E02AA7
:102C0300F50AA3E03BF50B850882850983A31251DE
:102C130065850A82850B83A3E06A7003A3E06B706A
:102C23001EE50A2403FAE50B122CFC700AE50A24BC
:102C330003FCE50B122D7D122D057901125A2D127D
:102C430035F0122C59EE9AEF9B4095023C23EA246F
:102C5300030A0A0AEB22900334125604C32274F3C4
:102C63001203708A088B098A828B83A3126A1C124F
:102C73002D00126A19750C00122C51122CFC705481
:102C83007E007F008049122CDEFAA3E0398A82F5A8
:102C930083E0540F6036122CDEF50AA3E039F50BFE
:102CA300E50A2403FCE50B122D873400FB121CF408
:102CB300E964017017850A82850B83A31256C5A3A5
:102CC300123A79122D05750C01125A2D1235F01294
:102CD3002A6F40B2A90C7F05020589EEF8EFF9E8E7
:102CE30075F00BA4F8122CEC22AAF075F00BE9A4F2
:102CF3002AF9900336E02822EF122DD322126A2DEF
:102D0300EB22122D11125A28EEF0A3EFF022E50860
:102D1300126A2EE5092274F5120370EAFEEBFF8EA8
:102D2300828F83A3126A1C7C007D00EE24030A0AAF
:102D33000AEF122D80EEFAEFFB120AE8E9F50A74A6
:102D430001650A7029126A27122DA6AAF075F00BE5
:102D5300E9122DB8850882F583122D92122DC370C6
:102D63000DE5082403FCE509122D74122D80022AB7
:102D7300203400FDEE2403FAEF22122D873400FBEA
:102D8300120B06223400FDE5082403FAE50922A309
:102D9300122D9722122D9B22E0F8A3E0F98E828F49
:102DA30083A322122DAA223400F583124459E87515
:102DB300F00BA4F822122CF2F508A3E039F509224E
:102DC300E8F0A3E9F0E5082403FAE509122DD3227C
:102DD300122DD96401223400FB120B0CE92274F387
:102DE30012037074E61208E3126A12750C01750877
:102DF30000750900750A00750B0085188285198313
:102E0300E4F0EE2403FCEF3400FD7403120AA51270
:102E13002E93E964017023740B120AA5123A71749C
:102E230001120AA51251697003A3E0696051851864
:102E330082851983858208858309740D120AA5E4A6
:102E4300122E9A740E120AA5123A79740D120AA55B
:102E5300AA82AB83120B2AE96401700B740D120A68
:102E6300A585820A85830B780A12083CAC08AD0954
:102E7300EEFAEFFB120AFA740212084FE9F50CEEB0
:102E8300FAEFFB120B24A90C741A12084F022CD967
:102E9300123166120B30221239EE12445522C082CF
:102EA300C083780079008003122F91122C59E89A7D
:102EB300E99B5029E8FAE9FBEA75F00BA4FAACF0B8
:102EC30075F00BEBA42CFB900336E02AFCA3E03B4C
:102ED3008C82F583E0540F70CF7900800279010270
:102EE30039ABC082C08390280D1244ABEC75F0124D
:102EF300A4FCA8F075F012EDA428FD79FF7A267BD7
:102F03000B12148A0239AB74F7120370E9FEEAFF5D
:102F13007A007B00780079008028E8FCE9FDEC75F5
:102F2300F012A4FC85F00875F012EDA42508123305
:102F3300A6C39E400AE0FCEFC39C40031234C512B3
:102F43002F9112339A40D30239E3C082C0837800B1
:102F530079008003122F91122F85501F1233AAF488
:102F630070F2E875F012A4F8AAF075F012E9A42A39
:102F7300F9742628FA740B39FB80047A007B00026B
:102F830039AB90280D12345BC3E89AE99B22E824FD
:102F93000108E93400F92274F012037074F3120883
:102FA300E38A0A8B0B8C0C8D0D8908EC450D60169A
:102FB300AA0CAB0D120B7E8A0E8B0FAE0EAF0FEE6B
:102FC3004F6003023058120B548A0E8B0FA80EA9C0
:102FD3000FE8FEE9FFE849607C90281D1230BA60D3
:102FE300227403650860067404650870167A047910
:102FF30003120B4E90281D1230D140077A007B003C
:103003000230B790281B1230BA601B740165086048
:103013000674026508700F7A027901120B4E90282C
:103023001B1230D150D68518828519837401F01292
:103033000AA5125491AC0CAD0D7403120AA51231FA
:103043005F740B120AA51239BF123E59E412547968
:103053001210228004EE4F604A780074FF2508C3E3
:103063009404500278048E828F831254918E828F3F
:1030730083A3A3A3A3E508F0E88E828F83A3A3A36E
:10308300A3A312549912021F1234728E828F83A348
:10309300A3A3A3A3A3A3F0123469120A82125A11A1
:1030A300120A8E1230BF4005901082E4F0120EFC1B
:1030B300EEFAEFFB02445F1255B349227A0479001A
:1030C300120B4E90280D1260CDEA98EB9922123024
:1030D300EA75832875820DE493C398F8A3E4939962
:1030E300F9C3EA98EB9922E493F8740193F92274F3
:1030F300F212037074F31208E38A088B09ECFEEDF5
:10310300FF750A00EEFAEFFB120B7E8A0C8B0DA8FB
:103113000CA90DE849603E88828983E06508700444
:10312300A3E06509602F88828983A3A3A3A3E0C3D7
:10313300940550211258BF8518828519837401F0B4
:10314300120AA51258C3EEFCEFFD7403120AA5126E
:10315300315F750A01A90A740D024F5D12316612BF
:103163000B3C22AA82AB83120B0685188285198336
:10317300AA82AB832274F61203701231B4600FA3D8
:10318300A3A3A3E014C3940450047901800279003B
:10319300023A8274F61203701231B4600FA3A3A330
:1031A300A3E014C394025004790180027900023A27
:1031B30082120B788A828B83E58245832274F6120E
:1031C30003701231B4600BA3A3A3A3E070047901CD
:1031D30080027900023A82C082C083EAFCEBFD7A66
:1031E300007B000239A8C082C0837C007D000239C5
:1031F300A874F412037074F31208E3EAFEEBFF8C75
:103203000A8D0BC3EC94F8ED94FF4007EE4F700367
:103213000232AD750800750900802E851882851964
:10322300837401F0123618120AA51236266013743D
:1032330003120AA5AC82AD83EEFAEFFB121CF4E98C
:103243007049E508240112344690280DE41255BB59
:10325300E50898E509995052E50875F012A4F8AA13
:10326300F075F012E509A42AF912610060D4EE4F5B
:1032730070A974FF650A700474FF650B60C412368D
:1032830008650A7004A3E0650B70B7E50875F012D2
:10329300A4F508A8F075F012E509A428F509742629
:1032A3002508FA740B3509FB80047A007B00023C85
:1032B3001E74F412037074F31208E3750800120B02
:1032C3007E8A0A8B0BAE0AAF0BEE4F602A851882FB
:1032D30085198374011239E8F8A3E0F9740B120A13
:1032E300A5123AFC120B1E7C127D0079FFEEFAEF59
:1032F300FB12148A7508011230BF500990108274B2
:1033030001F0120EFCA908023C1E74F7120370E9C7
:10331300FE74FE6A700374FF6B7800790070058099
:1033230052122F9112339A504AE8FCE9FDEC75F0E2
:1033330012A4FCAFF075F012EDA42F1233A6F460C3
:10334300E0E8FCE9FDEC75F012A4FC75F012EDA4C5
:103353002FFD74262CF582740B3DF583E06A700310
:10336300A3E06B70BC80091233AA14C39404401702
:10337300122F91122F855018EE70EC1233AA6401AC
:103383006005E0640370E91235F9FAA3E0FB8004F9
:103393007AFE7BFF0239E390280D1244AFC3E89C09
:1033A300E99D221234FA22E8FAE9FBEA75F012A445
:1033B300FAACF075F012EBA42CFB742A2AF5827494
:1033C3000B3BF583E022120B900239ABC082C08322
:1033D300790180F274F01203708A0A8B0B7A0479F4
:1033E30001120B4E8A0C8B0DEA450D603EEAC33386
:1033F300FAEB33FB1215268A088B09AE08AF09EEE8
:103403004F60237AFE7BFF120B9674FE6A7003747F
:10341300FF6B601B8508828509831239F3E5082455
:103423000212344680E1750C0080047E007F008523
:103433000A82850B83E50CF0EEFAEFFB024464E5A8
:10344300082407F508E5093400F5092290280D1230
:1034530044AFC3EA9CEB9D22E493FA740193FB22ED
:1034630012147E740322125A22E4F090863122E869
:103473008E828F83A3A3A3A3A3A3A3A312349474C1
:1034830001123494A3F0EE2410125A25E4F0A3F0B1
:1034930022123E65A3A3A322C082C0837A007B00CD
:1034A3008004191234C512344F50101234E4C394FB
:1034B3000550F0E970EC1234CE80047A007B0002F0
:1034C30039ABEA24010AEB3400FB22EA75F012A4BB
:1034D300FA75F012EBA428FB74262AFA740B3BFB53
:1034E30022EAFCEBFDEC75F012A4FCA8F075F012D7
:1034F300EDA4281234FA22FD742A2CF582740B3DB4
:10350300F583E02274F712037074F31208E37E006C
:103513007F000235ACE50875F017A4F8A9F0126333
:1035230061FAA3E0FBEEF8EFF9E875F012A4F8AC4A
:10353300F075F012E9A42C1236076A7003A3E06B4E
:10354300603FE50875F017A4F8AAF0EA126360F883
:10355300A3E0F97401120AA5E0687003A3E06960AF
:1035630020E50875F017A4F8EAF974A228FC740C96
:1035730039FD7403120AA5AA82AB83121CF4E96015
:1035830014E50875F017A4F8A9F074A028FA740CD0
:1035930039FB12102E0508902821E493F8E508C39F
:1035A3009850030235181235F090280D1266A75073
:1035B30039EEF8EFF91235F9F47003A3E0F460E69D
:1035C3008518828519837401F0EEF8EFF9E875F038
:1035D30012A4F875F012E9A42AF9123618120AA5F2
:1035E30012362660C175080080AD0239DEEE240173
:1035F3000EEF3400FF22E875F012A4F8AAF075F07C
:1036030012E9A42AF912360C22742628F582740BC7
:1036130039F583E022742828F582740B3912445358
:10362300740B22E8F0A3E9123B04120B36E922C023
:1036330082C08390033D74EEF0A3740DF090033FBA
:1036430074E8F0A3740DF09003437408F0A3740CB2
:10365300F00239AB74F7120370EAFEEBFF900377C5
:10366300E06408601BE0640460168E828F83E0547C
:1036730003640170481239B2123F5AE06406703D88
:103683008E828F83A3A3E064FE7003A3E0F4602D16
:103693008E828F83A3A3123A6D900368E068700350
:1036A300A3E069700BEE2415F582EF1260E7600862
:1036B300120E9CE9F5088008120EA280F67508C266
:1036C300EEFAEFFB12152C022B5B74F41203708AD3
:1036D300088B098A828B83E0F8A3E0FAE82AFAE4EC
:1036E3003400FB1215268A0A8B0BAE0AAF0BEE4F82
:1036F3006063850882850983E0FC7D0079001214EC
:103703008A8E828F83A3A3126A1C120EDE8E828F8F
:1037130083A3A3A3A31239F3850882850983E0F861
:10372300EE28F8EF3400123A75850882850983A3E1
:10373300E0C0E0EE240D125A14D0E0F0120EF0EEC9
:10374300240E125A14E91250C6E0C0E0EE241112FE
:103753005A14D0E0F0EEFAEFFB023C2374F61203A6
:103763007074EB1208E3EAFEEBFF124CE86003020D
:1037730038037A077B001215269003391239F312A6
:103783004CE860788E828F83120A8290033A123F4C
:103793005D120A8E1268E0C0E012380FD0E0F0EE3E
:1037A3002405FAEF3400FB8A088B098A82F583E04B
:1037B300C0E012380AD0E0123C1AE0C0E012380A26
:1037C300A3D0E0123A5F120A828518828519831208
:1037D3000A8E88828983E0C0E07405120AA5D0E0CE
:1037E300F0850882850983E0C0E07404120AA5D03D
:1037F300E0F07407120AA512394580067910800299
:1038030079017415023A7F12380FA322900339E02D
:10381300FAA3E0F5838A82A3A3A3A322C082C08371
:10382300124CE8600D9003391255F2900339E4F01D
:10383300A3F0120E0C120FCE0239AB74F012037008
:1038430074EB1208E3ECFEEDFF89087425120AA558
:10385300780C120A487429120AA5E0F9742A120A8C
:10386300A5E0FC742B120AA5E0FD740F69700574C2
:103873000F6C60129010D3E06402700579C10239B5
:1038830040E9C39C40F6900378780C120A66E50879
:1038930090037EF0E990037CF0ECA3F0ED90037FBE
:1038A300F074FF6A700374FF6B701D9010DEE0F418
:1038B3007003A3E0F4700512149C800C9010DE12C8
:1038C30039C8E8F0A3E98007900375EAF0A3EBF0A9
:1038D300EE4F6017EEFAEFFB12108EE96401700BE6
:1038E300EEFCEFFD7A897B03121CFA900368E4F087
:1038F300A3F090036BF0A3F0900388F09010D3E053
:103903006402700890037C740FF0A3F09003777443
:1039130005F014120AA5E4F0900378120A828518C0
:1039230082851983120A8E90037EE0C0E07405122B
:103933000AA5D0E0F07407120AA5123945741502DE
:103943004461E4123B04121D2422C082C08390030D
:1039530038E070031217CC120BD8804CC082C0839E
:10396300900338E09010817004E4F0802D7401F02E
:10397300900338E0F460237C41E0C394415002E0BB
:10398300FCECF8E0C398F0EC75F0E8A4CCA8F07573
:10399300F003A428FD7A801244B77A817B10794121
:1039A300121D128003120B84D083D082020801EE11
:1039B300125A2322E0F508A3E0F509221239C322A3
:1039C300122D9BA3221244559003752274F7120300
:1039D30070EB90037FF0120DFA8005740D12084FFF
:1039E3007F010205891239EEA3E022123A5FA32276
:1039F300EAF0A3EBF02274F712037074F81208E3F1
:103A0300EAFEEBFF7900900377E0640870448518C1
:103A13008285198374FDF0A374FFF0120ED874022B
:103A2300120AA51239F37405120AA5E41239EEE05D
:103A3300C0E07404120AA5D0E0123A5AC0E074063A
:103A4300120AA5D0E0F07407120AA5E4123B001293
:103A53000F1A74080239E0123A5FE022F08E828F67
:103A63008322F08518828519832212445522E0F8B7
:103A7300A3E0F9125A22E8F0A3E9F02212084F7FDB
:103A830002020589C082C0839003497498F0A3742D
:103A93000CF09003EF7474F0A3740FF090034D7463
:103AA300CEF0A3740CF090034F7498F0A3740CF051
:103AB30090035174D4F0A3740CF00239AB74F41274
:103AC300037074F91208E38A088B098C0A8D0B853D
:103AD30018828519837808120A667404120AA5E904
:103AE300F07405120AA5E4F07406120AA5E4123B69
:103AF30000120BC07407023C20E8F0A3E9123B0458
:103B030022123A65AA82AB832274F41203708A08E4
:103B13008B098A828B83125A30EE4F7003023C1852
:103B2300900312124CEB60158A828B83A3A3E0F9F6
:103B3300EEFAEFFB900313123F5D121ED38E828FBA
:103B430083A3A3A3A3A3A3A3A3A3E0640270748E7C
:103B5300828F83A3A3A3A3A3A3E054027003023B16
:103B6300EA850882850983A3A3E064E960798E82EC
:103B73008F83A3A3A3A3A3A3A3A3A3A3E0701490DE
:103B830010D6E0048E828F83A3A3A3A3A3A3A3A32E
:103B9300A3A3F08E828F83A3A3A3A3A3A3A3A3A30F
:103BA300A3E014123C1AA3A3A37404F09010D71239
:103BB300546BE8F0A3E91265448B0BEA450B7003E1
:103BC300125F228E828F83A3A3A3A3A3A3A3A3A382
:103BD300E0640260128E828F83A3A3A3A3A3A3A393
:103BE300A3A3E06406702E8E828F83A3A3A3A3A353
:103BF300A3E0A2E0501F850882850983A3A3E0F90F
:103C0300EEFAEFFB121DB48E828F83A3A3A3A3A3AB
:103C1300A3E054FEF08009123E6122740D12084F96
:103C23007F0402058974EC12037074DD1208E3EA61
:103C3300FEEBFF8C088D097437120AA5780C120A63
:103C430048750A007405120AA5AC82AD83120ABE38
:103C53007412120AA5E070087415120AA5E0602018
:103C63007405120AA5E0A2E6501E8E828F83A3A3D9
:103C7300A3A3A3A3A3A3A3125165120F50E9600842
:103C83007903121CE2023E477405120AA5E0540CA4
:103C930064047005750B018003750B00E0A2E55009
:103CA30035750A01E50BA2E0402C120EDE8A108B5B
:103CB30011A810A9111239B2E0687003A3E069607A
:103CC300157405120AA5126A23125161121DC0E967
:103CD3006004790480AC7405120AA5E0A2E65022C0
:103CE3007406120AA5E0540370187405120AA5E0BD
:103CF300540C640C600CE0540C64086005751001EE
:103D030080037510007405120AA5E05403F87402C9
:103D130068700C126A23125161120AD0023E477472
:103D23000168703AE510A2E05003123E4F74051289
:103D33000AA5A882A9837403120AA5E8F0A3E912CD
:103D43004449851882851983123E59E0C0E0740204
:103D5300120AA5D0E0123B00121EA4023E47E860FF
:103D630003023E4790035FE0640170108E828F83ED
:103D7300A3A3A3A3A3A3E07003023CD57422120A56
:103D8300A57402124449741A120AA5123A79E5106D
:103D9300A2E050087405120AA5123E4FE50BA2E0FB
:103DA300506AEE240FF582EF1260E7C0E074171239
:103DB3000AA5D0E0F0900314124CEB7003023E47C7
:103DC300120EDE8A128B13A812A913741A120AA5F3
:103DD300E0687003A3E069706B780C120834780A0A
:103DE300120840780812083CA910740C120AA5ACFA
:103DF30082AD837421120AA5AA82AB8390031412A5
:103E03003F5A121ED3740712084F8038780C1208D9
:103E130034780A120840780812083C900375120699
:103E230058EE2412F582EF125E157423120AA5AC24
:103E330082AD83740E120AA5AA82AB83121DA874E5
:103E43000912084F742312084F02650F126A2312D6
:103E53005600120AC422E8F0A3E9123E6122123E80
:103E63006522F08E828F83A3A3A3A3A3A32274F757
:103E73001203701216B80239E374F71203701216A4
:103E8300BE0239E374F71203701216CA0239E3C093
:103E930082C0831216C40239AB74F7120370121670
:103EA300D00239E374F71203707409120AA5E0F51E
:103EB3000878081208401216DC74010239E0C08247
:103EC300C0831216E80239ABC082C0831216EE0219
:103ED30039AB74F71203701216F40239E374F71254
:103EE3000370EAFEEBFF890874016508701479001A
:103EF300120D1090282CE493FC7900EEFAEFFB12DC
:103F03000C860239E374F412037074F91208E3E9BE
:103F1300FE8A088B098C0A8D0B7413120AA51251A1
:103F230065900599124CEB6027EE851882851983FD
:103F3300F07401120AA57808120A66EAF8EBF9741C
:103F430005120AA5123AFC900599123F5A121ED384
:103F5300023AF7FB90034BE0F8A3E0F58388822253
:103F6300C082C0831217240239AB74F71203709016
:103F73001084E0F97E00800B1260D3540D6401704D
:103F830001190E1241675003E970ED0239E374F72A
:103F9300120370901085E0F97E00800B1260D354F9
:103FA3008D64817001190E1241675003E970ED02AF
:103FB30039E374F2120370890BE975F006A4240C3B
:103FC300F508E5F012344A8A0CE508250CFAE509F0
:103FD3003400FB1215268A0C8B0DAE0CAF0DEE4F81
:103FE3006027AC08AD09790012148A1239B2E50BC7
:103FF300F0EE2508F8EF3509F98E828F83A3A3A38A
:10400300A3A3A3A3A3A3123A79EEFAEFFB024F6093
:1040130074F6120370EAFEEBFF120C62901083E059
:10402300F8E9C3984009900345125165120C68EEF4
:104033002402F8EF12577590034712562F90034747
:10404300E004F0EEFAEFFB120C6E8508828509831B
:10405300E0025C2BC082C083790090034580010994
:104063001251658A828B83E582458370F20239ABF4
:1040730074F7120370EAFEEBFFEE4F6056900345B0
:10408300124CEB604E888289837A007B00EE658256
:104093007003EF6583600FAA82AB831240D9E58278
:1040A3004583602F80E79003451240E5687002EF77
:1040B300698E828F837008123A6D900345800312D4
:1040C3006521123A79EEFAEFFB121E74EEFAEFFB5A
:1040D30012152C0239E31240DD22124459888289D9
:1040E3008322124455EE22C082C08390034580048C
:1040F30088828983124CEB600B8882898312479DE7
:10410300EC4D70EC8A828B83E4F0A3F0E8496006FF
:104113008882898380039003451239F30239AB7493
:10412300F712037090034580048A828B83124162E5
:104133004B60257E0080010E12416750ECEE75F056
:1041430006A4FCADF0EA2CFCEB3DFDEC2410F5825B
:10415300ED1241B770E180047A007B000239E3126B
:104163005604EA221241C0EEC3982274F712037078
:104173007D0080010D1241BCEDC3985034ED75F004
:1041830006A4FEA8F0E8FFEA2EFEEB3FFFEE2410A4
:10419300F582EF1241B770DCED75F006A4FEE8FF7F
:1041A300EA2EFAEB3FFBEA2411F582EB1260E74CAF
:1041B300F00239E31260F369221241C022126A2D20
:1041C300EB3400F583E0F82274F6120370120D88C5
:1041D3007A007B008025EAF8EBF9E875F006A4F88D
:1041E300ACF075F006E9A42C1255D91268EEA3E4DD
:1041F3001256CFF0A31268F4126A6B90281712308C
:10420300C940D37A007B00801C8A088B0974037829
:10421300081209E412508DA374FEF0A3041254AFE4
:10422300A3E4126A6B90282012426A40DC7A007B76
:1042330000801D8A088B09740378081209E474C886
:10424300125D5F740F1265A674FEF0A304126A6B0D
:1042530090282612426A40DB90282AE49390035365
:10426300F0124274023A82E493F8C3EA98EB9400A2
:10427300227CE87D037A107B009003C2E0F91215DB
:10428300E02274F012037074F51208E38A088B09B4
:10429300890A8C0BE9A2E050147508FC7509FFA28A
:1042A300E15005D2E4024347D2E3024347124F4CA5
:1042B3007003A3E06970057900024414AC0A790223
:1042C300AA08AB09120D64E960EDE50AF50C780C58
:1042D30012084079027CFE7DFFAA08AB09124CC785
:1042E30012084FE96003024412E50AC2E5F50A9099
:1042F30003B5E07051E50AA2E6404B7403120AA528
:10430300AC82AD83AA08AB09120B12E970321245D5
:10431300E88A0C8B0DA80CA90DE8FEE9FFE84960BB
:1043230025EE24020A0AEF122DD9601AEE2402FCAC
:10433300EF3400FD7403120AA5AA82AB83121CFAA0
:10434300E50AD2E5F50A900348E0F50C900368E02E
:10435300F50EA3E0F50F780E12083C7D017C00906A
:104363000348E0F9AA0EAB0F120D1C740212084F9A
:10437300E9F8900348E004F0E86003024412E50A18
:10438300A2E55004740E80027406C0E07401120AA0
:10439300A5D0E0125A418A0E8B0FAE0EAF0FEE4F2F
:1043A3006069124432124449888289837401F0742B
:1043B30078550AA3126A33E50C126A33A3E508F0B1
:1043C300E509124421E4F0E50AA2E5500F74031253
:1043D3000AA5AC82AD83E824061244188E828F832B
:1043E300A3A374FDF0A374FFF0E50B601590282DD3
:1043F300E493F8E50BC3985009EE2413125A14E51D
:104403000BF0EEFAEFFB120BB48006791080027901
:10441300C7740B8049FAE93400FB121CFA22888224
:104423008983A3A3A3A312442D221257A8A322EE88
:104433002417125A257401F0120ED8EE241A125AB8
:1044430025EAF0A3EB22F0126A2734001244532228
:10445300F58312445922E0F8A3E0F922740D1208FF
:104463004F7F0802058974F61203707A007B1012DD
:104473005F2F60089003D47401F0802990063AE01E
:1044830064019010D47006E0FC79018004E0FC79AB
:10449300037A007B00120C869028151244AB7A0035
:1044A3007B101244B9023A821244AF22E493FC74A3
:1044B3000193FD227B009003C2E0F91215DA227406
:1044C300EC1203708A088B098C0C8D0D890E741401
:1044D300120AA5124EA67416120AA5E0F510A3E05F
:1044E300F511120F50E960077AFF7BFF0245E59053
:1044F30010D3E0640260030245D87900AA08AB092F
:10450300120D6AA90E120D5E8A128B13AE12AF132F
:10451300EE4F70030245C08E828F83A3A3A3A3A390
:10452300E064018E828F83A3A370691251658E822A
:104533008F83A3A3A3A3A3A3E05418604390282BC2
:10454300E4938E828F83A3A3A3A3F0EA650C700385
:10455300EB650D6014EA650A7003EB650B600AEA0C
:1045630065107003EB6511701F781012083CAC0ADC
:10457300AD0BAA0CAB0D12104C740212084F80083D
:10458300900367125F19A3F074FE6A700374FF6BE4
:10459300601D804EA3A3A3E0640360298E828F83F2
:1045A300A3A3A3A3A3E0640470057AFE0244ED8EE3
:1045B300828F83A3A3A3A3A3E0640270089003B430
:1045C300E0640270101245E88B0BEA450B6006AA03
:1045D30008AB09800DAA08AB09900349123F5A1290
:1045E3001ED302650F900375124CCD121010227466
:1045F300F7120370EAFEEBFF120B66E9700AEEFA9C
:10460300EFFB120B72E96006EEFAEFFB80047AFE11
:104613007BFF0239E374F01203708A0A8B0B8C0E52
:104623008D0F8909750800120F50E97900600302A4
:10463300478FAA0AAB0B120D6AA909120D5E8A0CE9
:104643008B0DAE0CAF0DEE4F60198E828F83A3A33B
:10465300A3A3A3E0640270559003B4E06402700363
:1046630002478DAA0AAB0B90034F123F5A121ED377
:10467300120B788A0C8B0DA80CA90DE84970030264
:10468300478D88828983A3A3A3A3A3E0A2E0400369
:1046930002478D750C01A2E150687901AC0AAD0B9C
:1046A300AA0EAB0F120CB6E9706402478D8E828F8F
:1046B30083A3A3A3A3A3E064037005750C02805234
:1046C3008E828F83A3A3A3A3A3E0640160030247A5
:1046D3008D90037512479D8E828F83124AF28A0C46
:1046E3008B0DA80CA90DE84960D1902824E493FA16
:1046F30088828983E0C39A50C2A3E0600302478D96
:1047030080B988828983A3A3A3A3A3D2E1F0EE4F48
:10471300603A8E828F83A3A3A3A3A3A3E05418605C
:104723002B7508018E828F83A3A3120658750CFE86
:10473300750DFF780C12083C7900AC0AAD0BAA0E7C
:10474300AB0F120D7C740412084F803E900368E097
:10475300650E7004A3E0650F701490282CE493FC9D
:10476300A909AA0AAB0B120C86750801801CA90CB7
:10477300AC0AAD0BAA0EAB0F120CB6E9700C7508A0
:1047830001A909AA0AAB0B120D10A908024464E59A
:104793000C2415F582E50D125A281254852274EA69
:1047A30012037074F01208E38A0C8B0D8C088D09C8
:1047B3007426120AA5E0F514A3E0F5157512069008
:1047C30003F5124CEB602390037512479DAA08ABC7
:1047D3000912103A8A108B11EA4511600D8A828BF7
:1047E30083A3E070057900024ADAE50C241DF50E77
:1047F300E50D3400F50F850E82124CD7F513888230
:104803008983A3A3A3E0FA88828983A3A3A3A3E054
:10481300F9EA2400FEE439FFAA08AB09120D168554
:104823000E82850F83124B15E029F50BE50AA2E5ED
:10483300500375120E7487550A70177418550A645D
:1048430018600FE50C2417F582E50D1260E7651279
:1048530060077901121CE2808C530A78C3EE94F846
:10486300EF94FF501D7900EEFAEFFB124AE4601259
:1048730088828983A3A3A3A3A3A3E054186003029C
:1048830047E8780812083C7D00124B0812084FE9EC
:10489300F874036870030247E8E86003024953743D
:1048A30018550A7003024A08E50AD2E0F50AA2E4A1
:1048B3005004D2E1F50AA90A12515E124AE4605388
:1048C30088828983A3A3A3A3A3A3E0541860448885
:1048D300828983A3A3A3A3A3E064017036E51045F3
:1048E30011603090037512479D88828983124AF2C2
:1048F3008A0E8B0FA80EA90FE84960178882898357
:10490300A3E0600F851082851183A3125C365003E8
:104913000247E8E50AF50E780E120840124AFB1228
:10492300084FE9702B7C007D008514828515837404
:10493300FFF0A3F0850C82850D83A3A3A3A3A3A3F8
:10494300A3A3E06003124792A90B12515E1216E271
:10495300851482851583E0F47003A3E0F460399035
:1049630003B4E0640270030247E8124E97E0FAA32F
:10497300E0123F56121ED3EA65087003EB65096027
:10498300030247E8EEFAEF123F56121ED385148254
:10499300851583EAF0A3EBF0780812083C7D011239
:1049A3004B0812084FA90AEEFAEFFB120D6A8A08A8
:1049B3008B09A808A909900368E0687003A3E0695C
:1049C3006003024ACBEEFAEFFB120B788A088B09DD
:1049D300A808A909E849606E88828983A3A3A3A3D1
:1049E300E06401600D88828983A3A3A3A3E064022A
:1049F3007054851882851983AC82AD83EEFAEFFB80
:104A0300120B128055900361E0600FE50AF50E78F2
:104A13000E120840124AFB12084FE50AF50E780EF3
:104A230012084079027CFE7DFFEEFAEFFB124CC7C1
:104A330012084FE960030249538514828515837474
:104A4300FFF0A302499A120ED8EAFCEBFD85188207
:104A5300851983AA82AB83121CFA850C82850D8388
:104A6300A3A3A3A3A3A3A3A3E06401700F1247927C
:104A73007408120AA5AA82AB83121CFA124CA11263
:104A830058AD4430F50878081208407401120AA59D
:104A9300858208858309780812083C740B120AA5DD
:104AA300858208858309780812083CE513F50878A0
:104AB300081208407900EEFCEFFD12515E120CB0B3
:104AC300740612084F0247E8124CA1125A17124BF0
:104AD30015E50BF0120EF0741012084F7F0E02054D
:104AE30089120D5E8A0E8B0FA80EA90FE84922A327
:104AF300A312560412103A227901AC08AD091255DB
:104B0300F9124CC722AC0BA9131255F9120D1C74E0
:104B130002221258B5A3A3A3A32274F01203707444
:104B2300F01208E38A0C8B0DECFAEDFB750F08907D
:104B330003F5124CEB6014125C2F8A828B83E5829F
:104B430045836007A3E07003024C9C124CA1340020
:104B5300124CD7F50B88828983124CAAE0FBEC2414
:104B630000FEE43BFF88828983A3A3124CAAA3A37C
:104B7300E0FBECF508E43BF50988828983A3A3A352
:104B8300A3A3A3A3E0F50EE50AA2E45003750F1057
:104B9300A2E550067408250FF50F748F550A700FA0
:104BA300E50C2417F582E50D1260E7650F600879BF
:104BB30001121CE2024C9C530A707800E50AA2E43D
:104BC3005022124CA11260E72408FCA3E03400FD3C
:104BD3007408120AA5AA82AB83121CFA7808E50AA4
:104BE300C2E4F50AE50AA2E55028124CA11260E7D7
:104BF30028F8A3E03400F9E82408FCE93400FD8533
:104C03001882851983AA82AB83121CFAE50AC2E5CE
:104C1300F50AAC0EA90BEEFAEFFB120D22E9F874BC
:104C230003686075900368E06E7003A3E06F605ED5
:104C3300E87054E50AF50F780F120840124CB812C9
:104C4300084FE97054780A1208407401120AA585C6
:104C5300820C85830D780C12083C740B120AA5850F
:104C6300820C85830D780C12083CE50BF50A780A53
:104C7300120840A90EAC08AD09EEFAEFFB120CB016
:104C8300740612084F8012740468700D80B7780A96
:104C9300120840124CB812084F7410024461E50C1C
:104CA300241DF582E50D22A3A3A3E0FC888289835A
:104CB300A3A3A3A3227901124E9E125A28124CCD0C
:104CC300124CC722120CDA740122E0FCA3E0FDAA05
:104CD30008AB0922F5831240DDA3E0F50A88828937
:104CE30083A3A3E0229003391256602274E81203CF
:104CF3007074F51208E3EAFEEBFF8C088D09891442
:104D03007423120AA5E0F50F7424120AA5E0F51224
:104D1300A3E0F5137426120AA5E0F516A3E0F51730
:104D23007428120AA5E0F50EA90F120D288A108B1C
:104D3300117401120AA57408F0E50EA2E45003747D
:104D430010F0E50EA2E55004E02408F085188285F2
:104D53001983AA82AB83120F388A0C8B0DEA450D97
:104D63007003024E7EEA2417F582EB124E90120E68
:104D7300D8E50C241AF582E50D125A171239F3748B
:104D830003120AA5AC82AD83AA10AB11120B12E970
:104D9300601D124E887403120AA5A882A983E50C2C
:104DA3002418F582E50D125A17E8F0A3E98024E5EB
:104DB3000EA2E4501FE5106E7003E5116F7015121B
:104DC3004E88E50C2418F582E50D125A17E512F00A
:104DD300A3E513F0124E97124EA6850A82F583744B
:104DE30002F0A3E50E124EAEE50FF0EE850A8285C2
:104DF3000B83A3A3A3F0EF850A82850B83A3A3A34D
:104E0300A3124EAEA3A3A3E508F0E509850A8285A4
:104E13000B83A3A3A3A3A3A3F0AA10AB11120D1694
:104E2300E92514850A82850B83A3A3A3A3A3A3A3C4
:104E3300F0750800E50EA2E45011AC12AD13E50ABB
:104E43002408FAE50B12441A750808E50EA2E5508A
:104E530014AC16AD17E50A2508F8E50B3400F9E89C
:104E63002408124418850C82850D83A3A3E510F052
:104E7300A3E511F0AA0CAB0D120BB4740B12084F7F
:104E83007F10020589E50C2416F582E50D125A28D8
:104E93007401F022124E9E125A2822E50C126A2E39
:104EA300E50D22E0F50AA3E0F50B22F0850A8285E1
:104EB3000B83A3A32274F21203708A088B09ECFEFE
:104EC300EDFF890A7900124F4C7003A3E069700467
:104ED30079018073750B01900368E065087004A382
:104EE300E06509601F750B00780B120840A90AEEF4
:104EF300FCEFFDAA08AB09120F8C740112084FE9ED
:104F0300F50B80417900EEFAEFFB120D5EEA4B6080
:104F13002B8A828B83A3A3A3A3A3A3E05418601CAF
:104F23007508FE7509FF780812083C8A828B83A3F3
:104F3300A312065812684312084F80097901EEFA4A
:104F4300EFFB120C38A90B8014120D6A8A0C8B0D1F
:104F5300A80CA90D900368E0682212084F7F06028F
:104F6300058974F412037075081075090E7A10120E
:104F7300654B8B0BEA450B7003124274900353E0AD
:104F830014F0700C90282AE493900353F0120D76DA
:104F93007E007F00806C850882850983A3A3A3A379
:104FA300E06059F46056E5082404F582E509125FD0
:104FB300137049850882850983A3A3A3A3A3E0648F
:104FC300037019790285088285098312479D850834
:104FD30082850983A3A3125165120CB685088285C5
:104FE3000983A3A3A3A3A3E06401601085088285BA
:104FF300098374FEF0A3041250BFE4F01235F012DB
:1050030034429028191266A7408C7E007F008039B5
:10501300120E7E8E088F09740378081209E47488CF
:105023002508FC740F3509FD7AC27B0C120E6CEA5D
:105033004B70DD8E088F09740378081209E412504F
:105043008D1268EEE4F01235F0902820E493F8C353
:10505300EE98EF9400501B8E088F097403780812A2
:1050630009E4125095E82407F582E9125F1370D61C
:1050730080A17E007F00800A1250A0600214F0120B
:1050830035F01266A440F1023C23125095888289C0
:10509300832274882508F8740F3509F922EEF8EF96
:1050A300F9E875F006A4F8AAF075F006E9A42AF960
:1050B300742828F582740F39F583E0221250C6A3B1
:1050C300A3A322F0850882850983A3A32274F71280
:1050D300037074E11208E3ECFEEDFF750800EE4F78
:1050E30060728A828B83E0241C125F44124CEB6053
:1050F300638A828B83125165851882851983AC82FA
:10510300AD83EA241BF582EB125E15EA241CF582BB
:10511300EB125161120EC0740B120AA51251697081
:1051230003A3E069702E7402120AA5E064017024DF
:10513300741D120AA5123F5AE064017017741D1200
:105143000AA5123F5CA3A3E0F88E828F83E0687008
:1051530003750801A908741F0239E0124E9E34003A
:10516300F58312560422122D97E0682274F4120379
:1051730070E97024790090034D123F5A121ED38AAE
:105183000A8B0BAE0AAF0B74FE6E700374FF6F7065
:105193001A902827E4936013790190034D123F5A24
:1051A300121ED38A0A8B0BAE0AAF0B120EFC023708
:1051B3005874F612037074F31208E312149C8A08ED
:1051C3008B09AE08AF09900368E06E7003A3E06F2C
:1051D30060E9120EE4EA6E7002EB6F60DEEEFAEF46
:1051E300FB120F50E970D4EE4F60D08518828519F9
:1051F30083E4F004120AA5EEF0A3EF125217E9704C
:10520300BA74FE6E700374FF6F60B0EEFAEFFB7456
:105213000D023A7F123B04120B2A22C082C0831272
:105223000EFC0239AB7F0A02058974F2120370EA9D
:10523300FEEBFF8C0A8D0B8908740E120AA5E0F5AC
:105243000974FC6E700374FF6F70057900024F6080
:105253007900120D6A8A0C8B0DAE0CAF0D900368AA
:10526300E06E7003A3E06F7006E509A2E650DCA9C7
:1052730009126731706179007AFE7BFF1267317022
:10528300567418550970030253647800790080033B
:10529300122F91902819122F884003025364E8FAC1
:1052A300E9FBEA75F007A4FAACF075F007EBA42C60
:1052B300FB74162AF582740E3BF583E0541870D004
:1052C300E875F007A4F8AAF075F007E9A42AF974C1
:1052D3001028F8740E39F988828983A3A3A3A3A3A2
:1052E300A3E05418600974185509700302524E88DC
:1052F300828983EEF0A3EFF074FE650A700474FFF5
:10530300650B600312548B88828983A3A3A3A3A391
:10531300A3E509F0A2E0500D88828983A3A3A3A388
:10532300A3A3D2E2F07401650888828983A3A3A3AF
:10533300A3A3703874011254AFE054186028902866
:105343002BE49388828983A3A3A3A3125479121015
:105353003A8B0DEA450D600302524E7800790080C6
:10536300397902025250900367E080D7E0640170FC
:105373000302524E88828983A3A3A3A3A3A3E05469
:1053830018600790282BE4938004900366E012448E
:1053930021E508F002524E122F91902821E493FA4E
:1053A300C3E89AE99400400302524E7A007B0080DE
:1053B3004BEAFCEBFDEC75F007A4FCAEF075F007CF
:1053C300EDA42EFD74122CF582740E3DF583125A52
:1053D30030E8FCE9FDEC75F017A4FC85F00975F0E5
:1053E30017EDA42509FD74A02CF582740C3DF583FB
:1053F300E06E7003A3E06F609E1234C5902819120B
:10540300345240AD1244ABEC6A7002ED6B7088E825
:1054130075F017A4F8AAF075F017E9A42AF974A097
:1054230028FE740C39FF7C177D007900EEFAEFFB40
:1054330012148A8E828F8312549190037512546BC7
:10544300A3A3A3A3A3A3E8F0A3E91254717401F0E7
:10545300EE240E125A14740112549912021FEE24F0
:105463000D125A14E80253961239C3A3A322F0EE85
:10547300240F125A2522F0125482AA0AAB0B22904F
:105483000375E0FCA3E0FD2288828983A3A3E50AD8
:10549300F0A3E50BF022F012549E22902824E4930B
:1054A3002401F8E43400F97A027B002212442DA38C
:1054B3002274ED1203708A088B09890E1255E2409B
:1054C3000579050255B012172AAA08AB091256B47A
:1054D3009028171255B3650A7003E9650B70077AB4
:1054E300FE7BFF1256B4902817E41255BBE50A98C9
:1054F300E50B9940030255AE1255BF6012E50A75DC
:10550300F006A4F875F006E50B12560A12152CE501
:105513000E6018E50A75F006A4F8AAF075F006E522
:105523000B125636701A79010255B0E50A75F0066A
:10553300A4F8AAF075F006E50B125617E4F0A3F0F1
:10554300E50A75F006A4F8AAF075F006E50B125506
:10555300D7A31258C388828983A3AA82AB83125626
:10556300258A828B83E0603F1255BF603A8E108F8D
:10557300117512007810120838E50EC333FCE433BA
:10558300FDE50A75F006A4F50AA8F075F006E50B2B
:10559300A428F50B742C250AF582740F350B1251D0
:1055A3006312346312084F79008002790702674758
:1055B3001230EAE82290280D1260CE22E50A75F037
:1055C30006A4F8AAF075F006E50B125612F8A3E04C
:1055D300F9E84922A42A12576B88828983A322EC13
:1055E300FEEDFF902822E493F8E9C39822F5831295
:1055F300560412152C22E50C126A2EE50D3400F523
:1056030083E0FAA3E0FB22125612FAA3E0FB221274
:105613005617E022A42AF9742C28F582740F39F561
:105623008322E50EF09010D512562F22E08882894E
:1056330083F02212578FF50CE93400F50DE50EC304
:1056430033FAE433FB121526850C82850D83EAF0C9
:10565300A3EBF0850C82850D831256602212445908
:10566300E8492274F4120370ECFEEDFF740C120A85
:10567300A5123A6D880889091256B4AC0AAD0BEC31
:10568300F8EDF99028171256BC5021E875F006A4DE
:10569300F8AAF075F006E91255D7E08E828F8312CF
:1056A30056CF1256C5123A79790080027904023C2A
:1056B30023120CEC8A0A8B0B2212345BC3EC9AED97
:1056C3009B22124455850882850983221257A422FE
:1056D30074F61203707E007F008028EEF8EFF9E87D
:1056E30075F006A4F8ACF075F006E9A42CF9742A59
:1056F30028F582740F1263526A7003A3E06B60573C
:105703001235F01266A440D312669F7002E96F70DF
:105713004674FE6A700374FF6B703C7E007F0080EA
:10572300031235F01266A4502E1250A070F3EEF857
:10573300EFF9E875F006A4F812576112579660174F
:1057430012577DF8E912577588821255F085088241
:10575300850983E4F0A3F0EEFAEFFB023A8275F0D9
:1057630006E912576922A42AF9742828F8740F3914
:10577300F9223400F98808890922EEF8EFF9E8756F
:10578300F006A4F875F006E912578F22125769E85C
:10579300240422A3A374FE1257A112566022F0A37D
:1057A300041257A822F088828983A3A3A3A3227497
:1057B300F6120370EA241DF582EB1258ADF9604B23
:1057C300EA241DF582EB1260E72402FCA3E0340017
:1057D300FD1255E640030258A0780080298C828D83
:1057E30083E0F508A3E0FFE5082400E43FF509E8BA
:1057F30033FEE433FF74702EF582740F3FF583128A
:1058030058C31258A308E8C39940D28A828B83A352
:10581300A3A3A3A3A3A3A3A312479D900368E06C30
:105823007003A3E06D700F7C707D0F122D00125179
:1058330061120CE08067EA2411F582EB1260E760E5
:105843005CFC74FF2CF07508017808120840750899
:105853007075090F780812083CE9F50878081208F2
:1058630040EA2412F582EB1260E7F5087808120883
:1058730040EA2415F582EB125A17120658ECF91276
:105883002D0012479A8A828B83A3A3A3A3A3A3A366
:10589300A3A3125165120CF8740712084F023A823F
:1058A300EC24020C0CED3400FD22125A281258B5D8
:1058B300E022E0F8A3E0F5838882A322888289832B
:1058C300E508F0A3E509F02274EA12037074FD12EF
:1058D30008E38A148B158C0E8D0F890D7419120A27
:1058E300A5125A30741B120AA5E0F511741C120A92
:1058F300A5E0F50C741D120AA5124EA6741F120A18
:10590300A5E0F5106008E50CC3332404800274029B
:10591300C0E07401120AA5D0E0125A418A088B092B
:10592300EA45097003025A0C8A828B83A3A3E51408
:10593300F0A3E51512653AE50EF0A3E50FF0EA24AE
:1059430013F582EB125A17E50DF0EA2414F582EBF6
:10595300125A17E511F0EA2417F582EB1260E76497
:10596300017040120EDE8A0E8B0FA80EA90F850858
:1059730082850983A3A3A3A3E0687003A3E06960FE
:1059830022EE4F6011E508241AF582E509125A1731
:10599300EEF0A3EF800CE5082417F582E509125A0F
:1059A30017E4F0125A1B125A308E828F837405F05B
:1059B300A3E5107004E50C80487401250C125A3AD3
:1059C3007A008028850A82850B83E0125A36850A7D
:1059D30082850B83A3E08E828F83F0E50A2402F590
:1059E3000AE50B3400F50BA30EAF830AEAC3950C4B
:1059F30040D2120EDEEA125A36120EDEEB8E828F80
:105A030083F0AA08AB09120BB47403024ADCEE2438
:105A13000CF582EF125A2822122D11125A2822EE67
:105A2300240BF582EF3400F58322900334E0FEA3C8
:105A3300E0FF228E828F83F0A3AE82AF8322123BDC
:105A430004120F3822C082C083E9C333FCE433FD60
:105A5300EA2CFAEB3DFBEA24FEF582EB34FF12510C
:105A6300630239AB74F212037089098A0A1255E290
:105A730040047900804075080080020508E508C3EA
:105A83009509502AE508C333F8E433F9EE28F58283
:105A9300EF39F583C082C083120EDE8A0C8B0DD0E2
:105AA30083D082E0650C7004A3E0650D70CDE50A38
:105AB300650870BE7901024F6074F012037074F3CD
:105AC3001208E38A088B098C0A8D0B890C750D006B
:105AD300120F50E979006003025BBEAA08AB0912FA
:105AE3000D6AA90C120D5E8A0E8B0FAE0EAF0FEE70
:105AF3004F7003025BBC8E828F83A3A3A3A3A3A3D4
:105B0300E0A2E24003025BBC120EDEEA650A700308
:105B1300EB650B7011780D120840E4F50EF50F7864
:105B23000E12083C8044AA0AAB0B120B6CE9640109
