:020000040000FA
:06000000020A920201D782
:03002B000208CDFB
:030033000206E9D9
:030043000207822F
:030053000201089F
:03006B000206CFBB
:1000830002016C0101FF0503015810581058105864
:1000930010140F0E0F5810A323000000004123007B
:1000A3000000000C0000000C0001000026120000FC
:1000B30000000000E012000000000000000000004B
:1000C300FFFF414C4432353330204D5132000101A2
:1000D300010020050000007105E80364006400B816
:1000E30001020200080000050207051E02051E0AA0
:1000F30003B80B020102F1FF021F00E0079651183B
:100103000002020612C0E074F21203F0A2AFE4335D
:10011300FED2AFE5A7FFE5A1F5085F541060061214
:10012300195E75A1EFE5085F54086008121964753C
:10013300A1F7802BEFA2E0C0D0E508A2E092F01275
:1001430009CF158182F05017906198E0F890084B21
:10015300E0C398A2D265D0335002E8F075A1FEEE59
:10016300A2E092AF7F0102044FC0E074F21203F0E9
:10017300A2AFE433FED2AF9061A4E0F8759B00E533
:100183009158540860087591F71219AC802AE591CB
:1001930058541060087591EF1219B2801BE8A2E061
:1001A300C0D0E591A2E092F01209CF158182F05000
:1001B30007E0C2E0F0121AF69061A3E0F8E5E9580F
:1001C3005404600E121ACC75E9FB906193E0A2E629
:1001D30040F2808BC0E074F21203F0A2AFE433FE6E
:1001E300D2AF9061A5E0F8E5BF585404600675BF2F
:1001F300FB121B0E020162C3E498F8E499F91202A0
:100203003B8026C3E49AFAE49BFBE920E7E9120268
:100213003BE498F8E499F922C3E498F8E499F912D5
:10022300023BE498F8E499F9C3E49AFAE49BFB22CD
:10023300EB20E7CFE920E7E0B90010BB0008E88A2C
:10024300F084F8AAF022E4FBC8FA22EB70227B10B8
:10025300C833C8C933C9335007C39AC3DBF2800616
:100263009A50012ADBEAC833F4C8C933F4C9FA2225
:1002730075F008E4C833C8C933C933C99AC99B5058
:1002830004C92AC93BD5F0ECFBC833F4C8E4C9FA66
:1002930022080808EAC0E0EBC0E086F0E7A4FA18F9
:1002A3000986F0E7A42AFA180986F0E7A42AFA18BF
:1002B3000986F0E7A42AFA1986F0E7A4FBE5F02AF9
:1002C300FA190886F0E7A42BFBE5F03AFA19088639
:1002D300F0E7A42BFBE5F03AFA18180986F0E7A437
:1002E300C5F02BFBE43AFA1908E7C5F0C6A426F6D5
:1002F300E5F03BFBE43AFA1886F0E7A4F6E5F008EC
:1003030026F6E43B08F6E43A08F6D0E0FBD0E0FA40
:1003130022E4CFC0E0E4CEC0E0E4CDC0E0E4CCC052
:10032300E075F020C3E633F608E633F608E633F665
:1003330008E633F6181818EC33FCED33FDEE33FE04
:10034300EF33FFC3EC9709ED9709EE9709EF971980
:100353001919400FFFEC97FC09ED97FD09EE97FE85
:10036300191906D5F0BEECF709EDF709EEF709EF19
:10037300F7191919D0E0FCD0E0FDD0E0FED0E0FF82
:10038300222518C582C0E0E51934FFC583C0E0E526
:1003930018C3958224F810AF0885831985821880C5
:1003A30008858319858218D2AFCEF0A3E520F0A388
:1003B3007808E608F0A3DEFAEFF0A3E58124FAF863
:1003C300E608F0A3E608F0A3E608F0A30808E608A9
:1003D300F0A3E608F0A315811581D0E0FED0E0F884
:1003E300158115811581E8C0E0EEC0E022C0D0255B
:1003F30018C582C0E0E51934FFC583C0E0E518C322
:10040300958224F310AF08858319858218800885A7
:100413008319858218D2AFC8F0A3E9F0A3EAF0A349
:10042300EBF0A37908E709F0A3D8FAECF0A3EDF019
:10043300A3EEF0A3EFF0A3D0E0F0A3D0E0F0A3D0BD
:10044300E0F0A3E520F0A3E5F0F0A322851983856E
:100453001882E0C0E0A3E0F9A3E0FAA3E0FBA378ED
:1004630008E0F608A3DFFAE0FCA3E0FDA3E0FEA3A7
:10047300E0FFA3E0C0E0A3E0C0E0A3E0F5D0A3E089
:10048300F520A3E0A3F5F010AF0885831985821842
:100493008008858319858218D2AFD082D083D0E0BB
:1004A300F8D0E032120AF4B900030204E9E490033D
:1004B3000178A2790A8002F0A3D8FCD9FA900CA2A1
:1004C300AA82AB83900086788379018015E493A395
:1004D300AC82AD838A828B83F0A3AA82AB838C82A6
:1004E3008D83D8E9D9E77582BE75838B74031208AF
:1004F300457582A275831D74001208450875F010B6
:100503008E1A8F1B85821F85831E8518828519830A
:10051300E0CEA3E0CF851F82851E83EBC9EAC8ED39
:10052300CBECCAC3E833C8E933C9EA33CAEB33CBEC
:10053300C3EA9EF51DEB9FF51CB35004AB1CAA1D2B
:10054300EC33CCED33CDD5F0DAAE1AAF1B22D0832A
:10055300D082ECC0E0EDC0E0E493A3FCE493A3FD00
:10056300ED4C600D120629EC24FFFCED34FFFD80F9
:10057300EFE493A3FCE493A3FDED4C600D12072D70
:10058300EC24FFFCED34FFFD80EFD0E0FDD0E0FC78
:10059300E493A3C0E0E493C0E02285198385188225
:1005A300E0A3FEE0A3F5207808E0A3F608DFFAE075
:1005B300A3FFE0A3C0E0E0A3C0E0E0A3C0E0E0A3AA
:1005C300C0E0E0A3C0E010AF0885821885831980DE
:1005D30008858218858319D2AFD083D08202084B55
:1005E300D083D082E9C0E0E493A3C386F0C5F0953D
:1005F300F0F908E493A386F0C5F095F0700BE4934B
:10060300A3C3994005E9048002A3E475F002A4257D
:1006130082F582E5F03583F583D0E0F9E493A3C056
:10062300E0E493C0E022C0E0C3E49396087401932E
:100633009618400FE4936670080874019366187067
:10064300007019A3A3C3E49396087401939618A3A7
:10065300A3400DD0E0D0E0D0E002058DA3A3A3A377
:10066300A3A3D0E022D083D082C5F0E493A3C5F046
:10067300C395F0F5F0E493A3C395F04005E5F004CA
:100683008001E475F002A42582F582E5F03583F557
:1006930083E493A3C0E0E493C0E022740480047471
:1006A300028000CCC0E0EDC0E0E518C39CCCAD19DE
:1006B30050011D10AF068C188D1980068C188D19EA
:1006C300D2AF1207C7D0E0FDD0E0FC22C0E074F245
:1006D3001203F0E589A2E1500312180E758900C2D6
:1006E300C57F0102044FC0E074F21203F0E58BA250
:1006F300E0500312180E758B00C2E880E474028088
:1007030000CCC0E0EDC0E0E518C39CCCAD195001AE
:100713001D10AF068C188D1980068C188D19D2AF59
:100723001207A5D0E0FDD0E0FC22C0E0C0F088F0C5
:10073300E4936670080874019366187000A8F0A328
:10074300A3700BD0F0D0E0D0E0D0E002058DA3A3DE
:10075300D0F0D0E022D083D082CCC0E0E493A36079
:10076300061208261470FAE493A3600612091714FC
:1007730070FAD0E0FCE493A3C0E0E493C0E022C0AD
:10078300E074F21203F0A2AFE433FED2AFC2C0E5CD
:10079300D1A2E450031218D4EEA2E092AF7F01027B
:1007A300044FCAC0E0E493A3C582CCC582C583CD00
:1007B300C583F0A3C582CCC582C583CDC583DAE5E5
:1007C300D0E0CA22CAC0E0E0A3C582CCC582C583FB
:1007D300CDC583F0A3C582CCC582C583CDC583DADD
:1007E300E6D0E0CA22700908080822601618181813
:1007F300C6C333C608C633C608C633C608C633C61F
:10080300D5E0EA22C008C3E096F50808A3E09642C3
:100813000808A3E096420808A3E09645087001D3B0
:10082300D00822C0E0E493A3D39C5010E493A3C365
:100833009C400AD0E0D0E0D0E0020775A3A3A3D088
:10084300E022C09FF59FE473D09F22D083D082C063
:100853009FE493C0E0740193C0E0740293F59F2278
:100863007404800A74038006740280027401C0E079
:10087300F40412087ED0E0120ACF222518F5821064
:10088300AF08F518400215198008F518400215192C
:10089300D2AF85198322BB0102E722C082C08389BC
:1008A300828A83BB0003E08002E493D083D0822258
:1008B300C0D0251810AF08F518500205198008F5A7
:1008C3001850020519D2AFD0D022C0E0C0D0E8C082
:1008D300E0E5A8D2AFC2C7A2E792AFD0E0F8D0D08C
:1008E300D0E0326016080808C6C313C618C613C67C
:1008F30018C613C618C613C6D5E0EA22C3E0C696C7
:10090300F608A3E0C696F608A3E0C696F608A3E0A9
:10091300C696F622C0E0E493A36C7009D0E0D0E061
:10092300D0E0020775A3A3D0E022251810AF08F585
:1009330018400215198008F51840021519D2AF2284
:10094300E76670100809E766700A0809E76670042D
:100953000809E76622E066701008A3E066700A08DB
:10096300A3E066700408A3E06622C3E09608A3E050
:100973009608A3E09608A3E096A2D265D03322C3DB
:10098300E096F008A3E096F008A3E096F008A3E051
:1009930096F022E026F008A3E036F008A3E036F054
:1009A30008A3E036F022E627F60809E637F6080939
:1009B300E637F60809E637F622E026F608A3E0361E
:1009C300F608A3E036F608A3E036F622C0E0E8C056
:1009D300E0E58124FCF8E6A2E7D0E0F8D0E022E6E7
:1009E30047F60809E647F60809E647F60809E64721
:1009F300F622E657F60809E657F60809E657F60819
:100A030009E657F622E056F608A3E056F608A3E0F7
:100A130056F608A3E056F622E056F008A3E056F097
:100A230008A3E056F008A3E056F022700422600DFC
:100A330018C6C333C608C633C6D5E0F41822E4C3C8
:100A430096F608E496F608E496F608E496F622602D
:100A53000D08C6A2E713C618C613C6D5E0F322C60F
:100A6300F4C608C6F4C608C6F4C608C6F4C622C34C
:100A7300E7960809E7960809E7960809E79622C367
:100A8300E09608A3E09608A3E09608A3E0962275F3
:100A9300D000758140751801751903000204A7E0A1
:100AA300F608A3E0F608A3E0F608A3E0F622600C3C
:100AB30008C6C313C618C613C6D5E0F422E6F00869
:100AC300A3E6F008A3E6F008A3E6F022CAC0E0E636
:100AD300F0A308DAFAD0E0FA22E0FAA3E0FBA3E0FD
:100AE300FCA3E0FD22EAF0A3EBF0A3ECF0A3EDF00E
:100AF30022E5C754F84401F5C77901222518F58288
:100B0300E43519F58322C2AF75D69F020000221285
:100B1300084E62B10112084E59B20112084EA8B430
:100B23000112084EFBB50112084E9EB60112084E83
:100B3300E9B70112084E07B80112084E2C5E0012E5
:100B4300084E3E5E0012084E905E0012084EF15EA3
:100B53000012084E7B5F0012084E1F600012084E01
:100B630073600012084E8C600012084EB2600012CF
:100B7300084EED600012084E31610012084E5861B4
:100B83000012084EA9610012084E59620012084E65
:100B930011630012084ED9630012084EB6640012A6
:100BA300084E3C650012084E4B650012084E566510
:100BB3000012084E5F660012084E70660012084E5F
:100BC300E6660012084E78670012084ED0670012DE
:100BD300084E96680012084EC7680012084E0C694A
:100BE3000012084E19690012084EAD6A0012084E31
:100BF300106C0012084E2C6D0012084E966F0012F6
:100C0300084EA16F0012084EAB6F0012084EB66F6C
:100C13000012084EC06F0012084ECA6F0012084E31
:100C2300D56F0012084EE06F0012084E11700012CB
:100C3300084E35700012084E59700012084EBE70EF
:100C43000012084E02710012084E1E710012084E67
:100C530095710012084ECD710012084E19720012E0
:100C6300084E76720012084E58740012084EDE7455
:100C73000012084EAF750012084EBF780012084EDE
:100C830014790012084E40790012084E8C7A001233
:100C9300084EDC7A0012084E317B0012084E327C7B
:100CA3000012084ECA7C0012084E4C7D0012084EFA
:100CB300EC7D0012084E77260012084EB026001273
:100CC300084E8A280012084EC9280012084E13291C
:100CD3000012084EB8290012084E172A0012084EB7
:100CE3004B2A0012084EB82A0012084ED52B0012C8
:100CF300084EDD2C0012084E732D0012084EBA3038
:100D03000012084E63310012084E3F320012084EA3
:100D1300A0320012084EBD330012084EE735001210
:100D2300084E9E360012084EA8360012084EDB36D7
:100D33000012084EA2370012084E3D380012084E2A
:100D4300A2380012084ECB380012084EED380012BC
:100D5300084E1C3B0012084EF33B0012084E373C72
:100D63000012084EA43C0012084E5F3D0012084ECC
:100D7300913D0012084ED53D0012084E083E001268
:100D8300084E5D3E0012084EB23E0012084E463F2A
:100D93000012084EA83F0012084E10400012084EE1
:100DA300B9410012084EA1420012084EE34300125B
:100DB300084E11460012084ED1460012084E004953
:100DC3000012084EA3490012084EE1490012084ED2
:100DD3008D4B0012084EA14B0012084EAB4B001274
:100DE300084ED54B0012084EE14B0012084E004C42
:100DF3000012084EB74C0012084EF64C0012084E73
:100E0300004D0012084EB44D0012084EB34E0012AE
:100E1300084EAC4F0012084E49500012084EEB50DA
:100E23000012084E02510012084E39510012084EAA
:100E330057510012084E9B510012084EC051001228
:100E4300084EA6520012084E12530012084E8C533D
:100E53000012084E9B540012084EDA550012084E39
:100E63003C560012084EF6560012084E195700124F
:100E7300084EED570012084E38580012084E7A58A3
:100E83000012084ED1580012084E08590012084E9D
:100E930036590012084E6F590012084E9459001229
:100EA300084E1C5A0012084E3F5C0012084E9E5C0E
:100EB3000012084E325D0012084E9E5D0012084E6D
:100EC300F25D0012084E8DBB0312084ECCBB031219
:100ED300084E4CB90112084EA6B90112084E02BAC7
:100EE3000112084E4EBA0112084E69BA0112084E99
:100EF3009ABA0112084EB7BA0112084EC3BA0112C8
:100F0300084E37BC0112084E50BC0112084EB7BC44
:100F13000112084ECABC0112084ED8BC0112084E79
:100F23008CBD0112084E70BE0112084E76BF01122D
:100F3300084EFCBF0112084E06C00112084E73C0D2
:100F43000112084E8AC00112084EBCC00112084E9D
:100F5300F5C00112084E1FC10112084E80C10112D3
:100F6300084EA0C10112084EBEC10112084E04C2B0
:100F73000112084E2AC30112084E77C30112084E0C
:100F8300A6C30112084E1CC40112084E44C4011228
:100F9300084E7DC40112084E8BC40112084EE3C4EF
:100FA3000112084E32C50112084E71C50112084ED6
:100FB300A1C50112084ECDC50112084ED8C50112B4
:100FC300084EF6C50112084EB8C60112084EC2C635
:100FD3000112084EFDC60112084E13C70112084E36
:100FE3001CC70112084E71C70112084E85C70112B2
:100FF300084E93C80112084EA6C80112084EBBC87A
:101003000112084E5DC90112084EE0C90112084ED3
:101013009ECA0112084EA9CA0112084ECFCB011273
:10102300084EEBCB0112084E3DCC0112084E7CCC8E
:101033000112084E91CC0112084ED3CC0112084E76
:1010430020CF0112084E9ECF0112084E11D001127B
:10105300084E33D20112084E4BD20112084E4ED223
:101063000112084E5AD20112084E6ED20112084ED6
:1010730076D20112084EA9D20112084E59D3011299
:10108300084ECFD30112084E42D40112084EF6D4B3
:101093000112084EABD50112084ECAD50112084EF3
:1010A3006AD60112084E76D60112084EA1D6011255
:1010B300084EA4D60112084E0ED70112084E36D898
:1010C3000112084E0ED90112084E99D90112084E89
:1010D300B2DA0112084E6FDB0112084EA8DB0112CF
:1010E300084ED9DB0112084E79DC0112084EA9DC47
:1010F3000112084E84DD0112084E1DDE0112084E56
:10110300A8DE0112084E59DF0112084EDBDF01127F
:10111300084E0DE00112084E4EE00112084E20C8A1
:101123000212084E85C80212084EC2C80212084EA7
:1011330011C90212084E27CB0212084E0ACD021221
:10114300084E74D00212084EAFD00212084ED1D00E
:101153000212084E34D10212084E68D10212084E10
:101163008BD10212084EB8D10212084E14D20212C9
:10117300084E5BBC0212084ED9BC0212084E0FBDCA
:101183000212084E7BBD0212084EEEBE0212084E3A
:101193000ABF0212084E4FBF0212084EDDBF0212F1
:1011A300084E36C00212084E63C10212084E75C2C1
:1011B3000212084ED2C20212084E3EC30212084E59
:1011C3009FC30212084EE0C30212084E8DC40212DE
:1011D300084E9FC50212084ECAC50212084E15C614
:1011E3000212084E5CC60212084EEEC60212084EE8
:1011F300A9C70212084E28B10312084E39B10312CF
:10120300084E8AB10312084ECFB10312084E79B2C9
:101213000312084E45B80312084EF4AD0312084EEC
:101223004CAF0312084ED1F40112084E76F50112A9
:10123300084E96F50112084EB6F50112084ECAF58E
:101243000112084E22F60112084E52F60112084E00
:10125300D3F70112084E79F80112084E5BF9011217
:10126300084EACF90112084EEFF90112084E32FA9A
:101273000112084E98FA0112084EB9FA0112084EEB
:1012830045FB0112084E76FB0112084EEAFB0112E0
:10129300084E98FD0112084E72FE0112084EB4FE6C
:1012A3000112084E0EFF0112084E6BAA0312084EDC
:1012B3008CAA0312084EC2AB0312084EECAB031206
:1012C300084E20990312084E9B990312084EA699C3
:1012D3000312084EC7990312084E1EB00212084E9D
:1012E30021B00212084EDBB00212084E06B1021200
:1012F300084E4DB10212084E72B10212084E93B15C
:101303000212084EC7B10212084E00B20212084E72
:1013130029B30212084E60B30212084E80B30212C0
:10132300084E1BB40212084EE0B40212084E17B561
:101333000212084E8CB60212084E2FB70212084E44
:1013430028B80212084E51B80212084EA5B802126C
:10135300084E6BB90212084E99B90212084E2EBB01
:101363000212084EAFBB0212084EE2BB0212084E35
:1013730060D20212084E6AD20212084EB6D202128C
:10138300084E24D30212084E45D30212084E5CD3F2
:101393000212084E0CD40212084EA0D60212084EB6
:1013A300A9D60212084E1DA80112084E25D7021213
:1013B300084E8CD70212084E1DD80212084E5FD871
:1013C3000212084EA9D80212084E08D90212084E7A
:1013D30099D90212084ED8D90212084E17DA02120E
:1013E300084E4CDA0212084E5EDA0212084E70DA28
:1013F3000212084E8FDA0212084E98DA0212084ED1
:1014030046B10112084E8EDB0212084E58FB02123F
:10141300084E2BFC0212084E45FC0212084E56FCE5
:101423000212084E6BFE0212084E8AFE0212084E8A
:1014330039A80312084E6FA80312084EB8A8031266
:10144300084E08AA0312084E83E00112084EC2E1B7
:101453000112084EFEE10112084EBDE30112084ECF
:10146300E6E30112084E79E60112084EBDE60112C9
:10147300084E46E80112084EDEE80112084E46E91E
:101483000112084EE7E90112084E29EA0112084E3B
:1014930069EA0112084EF4EB0112084E64ED0112E1
:1014A300084E89EF0112084EB7EF0112084EDEEF26
:1014B3000112084EE7EF0112084E42F00112084EE6
:1014C300D5F00112084EF3F30112084E74F4011221
:1014D300084EE3FF0212084E42BB0312084EA892C5
:1014E3000312084EBB920312084E58930312084E80
:1014F30093930312084EAE930312084ED393031231
:10150300084E18940312084E49940312084E7A9415
:101513000312084E00960312084E90B20312084EAF
:10152300C6B20312084EE2B20312084E24B30312EA
:10153300084E34B30312084EC9B30312084ED3B393
:101543000312084E3E8F0312084EFD8F0312084EFE
:10155300AD900312084EEB900312084E8A910312CA
:10156300084E00920312084E8FA00212084EE7A005
:101573000212084E91A10212084E39A20212084E1D
:1015830096A20212084EEFA20212084E03A3021201
:10159300084ECDA40212084E48A50212084E72A5A9
:1015A3000212084E2FA70212084E4AA70212084E33
:1015B30099A70212084EAFA70212084EBCA7021247
:1015C300084EF0A70212084E06A80212084E8CA875
:1015D3000212084E9BA80212084EF4A80212084EEB
:1015E3004EA90212084E9CA90212084EA6AA021284
:1015F300084E28AD0212084EC2AD0212084E04AEC8
:101603000212084E99AE0212084EB6AE0212084EEE
:10161300B9AE0212084EBCAE0212084E2FAF021230
:10162300084E4AAF0212084E76AF0212084EB1AF0F
:101633000212084EB4AF0212084EC7AF0212084E90
:10164300EEAF0212084E6EBA0312084E7ABA0312B4
:10165300084EB4BA0312084EBE900212084EE99027
:101663000212084EB5910212084E3A920212084E27
:10167300A3920212084EEF920212084E6E930212C8
:10168300084E00940212084E8C940212084ECE9417
:101693000212084E3A990212084EBA9A0212084EE2
:1016A300F99A0212084EC29B0212084E769C02124D
:1016B300084E269E0212084EB29E0212084E008069
:1016C3000212084EBA800212084E2C810212084EF2
:1016D3003B810212084EB5810212084E2482021287
:1016E300084E2E830212084E57830212084EF783C8
:1016F3000212084E45840212084EB5840212084EA7
:10170300E9850212084EC5860212084E3687021278
:10171300084EB3880212084E75890212084E108AC9
:101723000212084E6B8A0212084ED68A0212084E23
:10173300DA8B0212084E9B8D0212084E3A8E021269
:10174300084EAC8E0212084E698F0212084EEF9BB0
:101753000312084E439C0312084E9B9C0312084E2F
:10176300E69C0312084E489D0312084EE19D0312A6
:10177300084E499E0312084E559E0312084EE3A5D8
:101783000312084E14A60312084ECEA60312084EE7
:1017930034A70312084EA5A70312084E498C03125F
:1017A300084ED58D0312084E22FF0112084E33FF57
:1017B3000112084ED3FF0112084E3CAC0312084E2F
:1017C3004AAC0312084EEDFF0112084ED8B90312BA
:1017D300084EE8B90312084E03BA0312084E64BA5E
:1017E3000312084E43B70312084EC8B70312084E3C
:1017F3002CB80312084E31B60312084E53B6031227
:10180300084EBDB60312084EC8B60312084E0CB7F5
:101813000312084EF3E40212084E01E50212084EC9
:1018230042E50212084E63E50212084EEDE502128C
:10183300084E0FE60212084E7BE60212084E96E6A9
:101843000212084EB1E60212084EBBE60212084E1F
:10185300C5E60212084ED8E60212084EF1E602125D
:10186300084E8DE70212084E49E80212084EC0E8FE
:101873000212084E3AE90212084E86E90212084E95
:101883002CEA0212084E08EB0212084EB48403122B
:10189300084EC2840312084E3C850312084E20866C
:1018A3000312084ED9870312084EE1BC0312084EF7
:1018B300B2EC0212084E1FED0212084EE0ED0212C6
:1018C300084E50EE0212084E59EF0212084ED1F0A4
:1018D3000212084E35F10212084E8AF10212084E26
:1018E30093F10212084EA2F10212084EB5F1021250
:1018F300084ECBF10212084ED4F10212084EE7F162
:101903000212084E3CF20212084E38F40212084E3C
:101913006AF40212084E8CF40212084EA5F4021265
:10192300084EBEF40212084EC8F50212084E63F6C2
:101933000212084E9F7E0012084EC37E0012084E0C
:10194300DC7E0012084E0F7F0012084E407F00120B
:10195300084E6E7F0012084ED07F0012084EDF7FC4
:101963000012084EE97F0012084EF67F0012084E5F
:10197300909E0312084EB69E0312084EF39E031266
:10198300084E029F0312084E219F0312084E899F9F
:101993000312084E929F0312084EF19F0312084E42
:1019A30015A00312084ED4A00312084EE1A003129F
:1019B300084EF2A00312084E1ABC0312084E37BC9D
:1019C3000312084EDAF60212084E38F80212084ED5
:1019D30045F80212084E58F80212084E77F8021220
:1019E300084E8DF80212084EA1F80212084E16F99D
:1019F3000212084E7BF90212084E2BFA0212084E0D
:101A030000FB0212084E10FB0212084E1FFB0212CB
:101A1300084E3FB90312084E63B90312084E8BB93F
:101A23000312084EB3B90312084E20A10312084E45
:101A330047A10312084E68A10312084ECDA1031259
:101A4300084E86A30312084E9FA30312084EABA3AE
:101A53000312084EBFA30312084EDDA30312084E60
:101A6300E7A30312084EF1A30312084E04A40312C2
:101A7300084E57A40312084E90A40312084EBFA4A5
:101A83000312084E0DA50312084E5CA50312084E5F
:101A930077A50312084E81A50312084E92A50312DF
:101AA300084ED8A50312084EF1BA0312084EB7DB4D
:101AB3000212084EE1DB0212084EFDDB0212084E51
:101AC30010DC0212084E26DC0212084E83DC0212DE
:101AD300084EB6DC0212084EF2E00212084E18E27B
:101AE3000212084E4BE20212084E97E20212084E0F
:101AF300C3E30212084EEBE30212084E00E40212A3
:101B0300084E10E40212084E54E40212084EB5E4E3
:101B13000212084EC5E40212084EEBB30312084E3C
:101B230006B40312084E2FB40312084E49B403122D
:101B3300084E6EB40312084E8DB40312084EA5B4BA
:101B43000312084ED3B40312084EEDB40312084E29
:101B5300D6BB0312084E3E880312084E4588031273
:101B6300084E51890312084E81890312084EA78932
:101B73000312084ECA890312084EEC890312084E59
:101B8300268A0312084E8C8A0312084EC58A031252
:101B9300084E118B0312084E3E8B0312084E5E8BC8
:101BA3000312084E9BAF0312084EADAF0312084E4B
:101BB30098B00312084E25B10312084E1EB5031246
:101BC300084E90B50312084ECEB50312084E0FB659
:101BD3000312084E0D960312084E29960312084E5F
:101BE30078960312084E94960312084EC596031274
:101BF300084ED5960312084EC1970312084ECB9791
:101C03000312084ED8970312084EE8980312084EA1
:101C1300FC980312084E05990312084E0080031224
:101C2300084E45840312084E4A840312084E8CBCA6
:101C33000312084E56BC0312084EB9BC0312084ED9
:101C430003BD0312084E71A70112084EC2A501126B
:101C5300084E7DA30112084E04A30112084EABA245
:101C63000112084E3FA20112084E16A20112084E9D
:101C730009A00112084ED59F0112084EA29F01121E
:101C8300084E869F0112084EAC9E0112084E649EB8
:101C93000112084E999C0112084E199C0112084E1C
:101CA300169C0112084E1D9B0112084EEB9A01125D
:101CB300084E289A0112084E53980112084EE497D1
:101CC3000112084EB6970112084ED6B00112084E03
:101CD3008DB00112084E45B00112084E83AF0112B8
:101CE300084EF6AE0112084EB3970112084EA097A4
:101CF3000112084E38970112084E27970112084E19
:101D0300E9AE0112084E08960112084ED29501124F
:101D1300084E95950112084E36950112084EF7AB01
:101D23000112084E4EDB0212084E05950112084EB1
:101D3300C0910112084EB1900112084E4090011259
:101D4300084E05900112084ED08F0112084EC48F21
:101D53000112084E248F0112084E6B8E0112084E99
:101D63003E8C0112084ECA890112084E888901125D
:101D7300084E53880112084E08880112084E3A870C
:101D83000112084E91860112084E2D860112084E4B
:101D930067860112084E49A90112084EFCD60200BB
:101DA300000080FBE473000000000000000000005E
:101DB3000000000000001010101010100000303060
:101DC3000000001428500000000000000000000084
:101DD3000000002828FC284850FC50500000000058
:101DE3001038545430181454543810000000004470
:101DF300A8A8B0541A2A2A4400000000002050501A
:101E030060ACA898927C000000606020C0000000D5
:101E1300000000000000000408081010101010104B
:101E230008080400000040201008040810204000A7
:101E330000000000001010D63838D6101000000043
:101E4300000000101010FE10101000000000000031
:101E53000000000000000000606020C000000000DF
:101E63000000FC0000000000000000000000000073
:101E73000000000060600000000204040408081071
:101E83001020202040000000003048848484848493
:101E93004830000000000010701010101010107C6B
:101EA300000000000038444404081020447C000073
:101EB300000000384444180404444438000000007F
:101EC300080818284848887C081C00000000007C8B
:101ED300404078440444443800000000003C4480FF
:101EE300B8C48484847800000000007C444808104F
:101EF3001010101000000000007884844878848457
:101F030084780000000000788484848C740488F052
:101F130000000000000000303000000030300000FE
:101F2300000000000000100000000010102000005E
:101F330004081020402010080400000000000000E6
:101F430000FC0000FC00000000000000402010081E
:101F530004081020400000000000788484840810E6
:101F630010003030000000000038449AAAAAAAB436
:101F7300423C00000000001010282828384444EE9A
:101F83000000000000F844447844444444F800004E
:101F93000000003C448480808080443800000000BE
:101FA30000F048444444444448F00000000000FC6E
:101FB30044404878484044FC0000000000FC424094
:101FC3004878484040E000000000003C44848080A2
:101FD3008E8444380000000000EE4444447C4444B2
:101FE30044EE00000000007C101010101010107C54
:101FF30000000000007C101010101010101090E072
:10200300000000EE44485070484844EE00000000D1
:1020130000E040404040404044FC0000000000EE2F
:102023006C6C6C54545454D60000000000EE64648D
:102033005454544C4CE40000000000304884848421
:10204300848448300000000000F844444478404051
:1020530040E00000000000304884848484B44838A1
:102063000C00000000F844447850484844E600005F
:102073000000003C444020180404447800000000A1
:1020830000FE92101010101010380000000000EE37
:1020930044444444444444380000000000EE4444B3
:1020A3002828282810100000000000D65454545447
:1020B3006C2828280000000000EE44282810282857
:1020C30044EE0000000000EE4428281010101038E1
:1020D30000000000007C88081020204044FC000021
:1020E300001C101010101010101010101C000070A5
:1020F300101010101010101010107000007010103D
:1021030010101010101010107000001028000000A4
:1021130000000000000000000000000000000000BC
:102123000000000000FE00606020C000000000000E
:102133000000000000000000000038441C24443E5E
:102143000000000000C0404078444444447800004C
:102153000000000000003C44404044380000000000
:10216300000C04043C444444443E000000000000CE
:10217300000038447C40443800000000001C242048
:10218300F8202020207800000000000000003C48D8
:10219300483040784438000000C04040586444440C
:1021A30044EE000000000010000070101010107CBE
:1021B300000000000008000038080808080808703C
:1021C300000000C040405C48507048EC0000000034
:1021D3000070101010101010107C000000000000A0
:1021E3000000F854545454D60000000000000000CE
:1021F300D864444444EE000000000000000038446A
:10220300444444380000000000000000F844444403
:10221300447840E00000000000003C444444443C57
:10222300040E000000000000EC30202020F8000025
:102233000000000000003C44300844780000000027
:10224300000010107C101010100C000000000000A3
:102253000000CC444444443E000000000000000061
:10226300EE44282828100000000000000000D65487
:10227300545428280000000000000000DC483030DF
:1022830048EC0000000000000000EE442828101075
:1022930020E00000000000007C481010247C0000B7
:1022A300101010101010101010101010101000014A
:1022B300363601010001020100010301000104019E
:1022C300060605020000070100340801000F090497
:1022D30001010D0100FF0E080000170200001901A3
:1022E30000FF1A0100011B0100FE1C0100081D0272
:1022F30000001F0100012001000121020000230151
:10230300000F240200002601000127010008280213
:1023130000FF2A0100072B0102402C0100002D01C0
:1023230000012E0100012F0100FF30010B1C3108B9
:1023330000003A0100083B01000F2F0100000103D8
:1023430071030103010301030103010322030203D8
:102353000103100300030003000300030003000351
:1023630000034203000324030603000300030403E2
:102373001203250323032503230304030403000398
:102383000003000344030003000323030003650366
:102393002100350381030003050300030003000349
:1023A300030071003001600011007000310220034E
:1023B30050048000100061000000140063007300EB
:1023C30072006200430000001300060000000000DA
:1023D30004001200000000000000000004000400DC
:1023E300370037003C0244000000000000000000FA
:1023F3006500000035008100000005000000830037
:10240300000001017101010101011101010131010B
:10241300010101018001100161013B00140063010E
:1024230073017201620143010001130106013D01C1
:102433003500040112010001000100010001040143
:102443000401330133013C01440132013600000130
:1024530000016501000135008101000105018201D0
:102463008301000103027102300160021102700254
:102473000102020202028002100261023A004100DC
:102483006302730272026202430200021302380003
:102493000002000204021202000200020002000213
:1024A30004020402370037003C02440200023900F0
:1024B30000020002650200023502810200020502E9
:1024C300820283020002C9EEDBDACAD0B0B2C1AA2B
:1024D300B5C2BFC6BCBCD3C3BBA7B5C7C2BCD5CAF4
:1024E300BAC5C3DCC2EBC8B7B6A8C8A1CFFBD7A88F
:1024F300D2B5D7A8D7A2CEDECFDFCDA8D1B6B3CF82
:10250300D0C5C1A2D7E3B4B4D0C2D6C2D4B6C7BF74
:10251300B4F3D4ADA3BA0036000100060000000FE7
:102523000000000000000000000000000003FFFFA7
:1025330000000403FFFF0000FFFF0FF4010005C4C8
:10254300040320000100030B000000000000000052
:1025530003010F0100FA1602007016030076160439
:10256300007C160500821606008E161100A61614AE
:1025730000AC161500A016FFFF000003EAF5E5D531
:10258300D5C5B5A595958585757565655555454538
:10259300353525251515056E0F9E0F740F7A0F9887
:1025A3000F8C0F860FA40FAA0FB00FBC0F800F68FC
:1025B3000F620F0A3A0D02040D05160D070A0D0CE2
:1025C300E60C0DF80CFF000000160F00000B150BB6
:1025D300020002220F3200000658106A10701038F1
:1025E3000F7610320F3E0FB810D610DC10BE10CA93
:1025F30010C41000011916181616152303000C0E2B
:10260300020B040B0A0708000F00034948424D1848
:102613001725050200383C3E363B3B352B432C3017
:102623003016181920231A1C1E30303017181921A0
:10263300301B1D1F30920FB60FD010C20FC80FAC46
:10264300107C1082108E1088100204020101010117
:10265300090200000000000000BE040AE8030E00A7
:10266300150004002800050C0A030908FF1E1E0FAD
:102673000404100C74F7120384E99003B0F0900380
:1026830065E4F0121BA49003B5E4F0A3F09003B14A
:10269300F0A3F0120E72121BAA900334E4F0A3F01D
:1026A30090267293FA7902121C0A02530D74F212E5
:1026B3000384EAFEEBFF548060699003B0E0F912F3
:1026C30013B28A088B09EA4509604F7C0080010C2C
:1026D300EC75F003A4F8A9F074B628F582742539D3
:1026E300F583E493F4602CE493F88508828B83E00C
:1026F3006870DCAA08EC75F003A4F874B728F582B7
:10270300742539F583E493C0E0740193F583D08293
:10271300121DA7AA08AB09121D9CEEFAEF6480FBF9
:1027230002287DEF5420601D120D948A088B09EA5C
:102733004509600A120CF8AA08AB09121D9CEEFAAF
:10274300EF642080DAEEA2E0501A90036AE0640F8F
:10275300700B7900120CC2E96003122880EE640149
:10276300FAEF80BB5420700302284B750C00123D16
:10277300528B09EA450970107C027D007A207B00A8
:102783009003B0E0F91214FC7C0079047A007B001A
:10279300120D708A088B098018850882850983A326
:1027A300A3A3A3A3A3A3A3A37401F0850A08850B82
:1027B30009E5084509606D7C007904AA08AB091294
:1027C3000D708A0A8B0B750C01E5082404F8E509E2
:1027D300123AF624FFF0A3E034FF125DE970CC85D2
:1027E3000882850983A3A3A3A3A3A3A3A3A3A3E00D
:1027F300640170A5850882850983A3A3A3A3A3A36A
:10280300E054047094850882850983A3A3A3A3A33A
:10281300A3A3A3A37406F07AB7850882850983125C
:1028230029AC8087120D407C0079017A007B00126D
:102833000D708B09EA45097009E50C70057A2012C1
:102843004CACEE6420022763EF5402600B120E6C53
:10285300EEFAEF6402022722EF54046019124E438A
:10286300124D6379019003631250C7120C08EEFAFC
:10287300EF64040227227A007B00022AB3900CF84B
:1028830012314A120CDA22C082C08374EA12092D73
:10289300851882851983AA82AB83794B121BE07456
:1028A30008120AFF7402F07409120AFFAA82AB83AA
:1028B3007950121BE07413120AFFE4125296121B92
:1028C300FE741602427074F712038474E112092D28
:1028D300EAFEEBFFEE4F6033851882851983AC82E5
:1028E300AD83120DB87406120AFFE0601E7417124E
:1028F3000AFFE0FD7401120AFFE0FCEEFAEFFB7938
:1029030000120B30E9600479A480027900025308B5
:1029130074F6120384EAFEEBFF8E828F83A3A3A3D4
:10292300A3A3A3E05440601B125785122A7A6006C2
:102933007AFF7BFF801A8E828F83123EFCFAA3E01C
:10294300FB8003120DDC74FE6A700374FF6B60413D
:10295300125785124CF0120E30E98E828F83600677
:102963001229A5E480051229A57401F07CC87D0C09
:102973008E828F831250C7121C04E9F5087015EE7E
:102983004F60097901EEFAEFFB120D4CA908024DD5
:10299300217508CDAA088E828F831229ACE960DFE6
:1029A30080EAE0240D1243CB22E0240C1243CBE057
:1029B300F9120CD42274F6120384E9FEEAFF7A0FAB
:1029C3007B001213A0EA4B60198A828B83740CF08C
:1029D300EEA3A3F0EF8A828B83A3F0124D4C790010
:1029E300802FEEF9120D768A088B09A808A909E849
:1029F30049601C88828983A3A3A3A3A3A3A3A3A33E
:102A03007406125A10E0F9120C8CEEF9120D527979
:102A130010024D21C082C08390036AE0640F7014DA
:102A2300EA4B6010900365E064086005E06404709D
:102A330003122A3A02429AEAFCEBFD7A017B0090E8
:102A430003B0E0F91214F622C082C0837900EA24AD
:102A53001DF582EB123EF924FD600B14600824FD82
:102A6300600424FD70010902429A8E828F83A3A31E
:102A7300A3A3A3A3A3A3A3122A7E22123F41FB1263
:102A83000E30E9228E828F83A3A3A3A3A3A3A3A3C0
:102A9300A3122A7E6402228E828F83A3A3A3A3A3FD
:102AA300A3A3A3A3124291900356E068221208B392
:102AB3007F0602059D74F412038474FD12092D8AA6
:102AC300088B098A828B83A3A3E0F9120D768A0A05
:102AD3008B0BAE0AAF0BEE4F7003022BBF85088240
:102AE300850983A3E064F16030850882850983A3A7
:102AF300E064CD6024850882850983A3E0641A60BD
:102B030018850882850983A3E064E9600C8508823F
:102B1300850983A3E064E170087900120D4CE97024
:102B23006C850882850983A3E0C0E07402120AFF62
:102B3300D0E0124275EEF0A3EF1235A0851882851E
:102B43001983AA82AB837005120BF08003120E184F
:102B53007402120AFFE064E970338E828F83122BB2
:102B6300CB750A01780A12086F750AE9780A120808
:102B73006FE508240CF582E50912309212357DFCCD
:102B8300A3E0FD8A828B831235971208B38E828F5E
:102B930083A3A3A3A3A3A3A3A3A3E0640270108EA0
:102BA300828F83A3A3A3A3A3A3A3A3A37406F085E4
:102BB3000882850983A3A3E0F9120D52120D4090F8
:102BC3000CFC12288302314FE0F8A3E0F9E8FAE99C
:102BD300FB2274F4120384EAFEEBFF7508008E8275
:102BE3008F83A3A3A3A3A3E060427508088E828FFB
:102BF30083A3A3A3A3A3A3A3A31241A48B0BEA457B
:102C03000B601075082C8E828F83A3A3A3A3A3E06C
:102C1300D2E0F08E828F83A3A3A3A3A3E054036423
:102C2300016003022CBE430811022CBEEE241812CD
:102C3300315C6033EE241A12315C700F122A9A70E1
:102C430003A3E06970757508228070EE241BF5827A
:102C5300EF122CC3241AF582EF1235A8EE241912B1
:102C630057B9120C7A8054122A877003750801121F
:102C73002A9A7003A3E0697006E508D2E1F508E536
:102C83000860158E828F83A3A3E07006E508D2E562
:102C93008004E508D2E6F508122A6D64017006E5A2
:102CA30008D2E0F5088E828F83A3A3E0600D122C77
:102CB300D164016006E508C2E0F508A908023154B1
:102CC300123EE7122CCA22E0FCA3E0FDEE22123EE4
:102CD300E1123F19F9120E1EE922C082C083790165
:102CE3008A828B83A3A3E0C394024001198A828B57
:102CF30083A3A3A3A3E0C39402400279008A828B37
:102D030083A3A3A3A3A3A3A3A3A3E064F87003A330
:102D1300E0F460458A828B83A3A3A3A3A3A3A3A305
:102D2300A3E064F97003A3E0F4602E8A828B83A38B
:102D3300A3A3A3A3A3A3A3A3E064FA7003A3E0F450
:102D430060178A828B83A3A3A3A3A3A3A3A3A3E054
:102D530064FB7003A3E0F4700279008A828B83A37F
:102D6300A3A3E0F8900353E0686002790002429A5B
:102D730074F012038474DE12092DEAFEEBFF8E82D7
:102D83008F83A3A3A3A3E0600E900CFA124D1860E7
:102D930006900CFA1228837403120AFFAC82AD83E7
:102DA3008E828F83A3A3A3124D9A1255D3E9600F8A
:102DB3007403120AFFAA82AB83120CF2E97008793A
:102DC30001121BB6023087EE241B123EEC74101264
:102DD3000AFF124D637409120AFFE06021741A128C
:102DE3000AFFE0FD7404120AFFE0FC8E828F831257
:102DF30050C57901120B30E96004790280C3740372
:102E0300120AFFAA82AB83120CECE9F50A740912C9
:102E13000AFFE0702A90034DE060247422550A648F
:102E230022601C7442550A644270CF7420120AFF58
:102E33001230A5600A7420120AFF12309E70BBE99B
:102E4300A2E650417403120AFFAA82AB83120CE07C
:102E5300E97003022DC27420120AFF123EFC6403C0
:102E6300700F7420120AFFA3124D0AA3E0640D60D1
:102E7300147403120AFFAA82AB83120E42E964019F
:102E83007003023087EE242C12308F1233B3700399
:102E9300A3E069701C750800780812086F7808129F
:102EA300086FEE242E1257B91230AB123597120861
:102EB300B37409120AFFE07003022F641230AB12DD
:102EC30050C7120E968A088B09EA4509700302302F
:102ED300017404120AFFE0F88E828F83A3A3E02813
:102EE300F8A3E03400F9E8240D1230968A828B832C
:102EF300A3A3A3E068601CE88A828B83A3A3A3F047
:102F0300908620120ADC850882850983A3A3A3A3E4
:102F1300120AE87904E9120AFF1255B02AF8A3E06D
:102F230034008882F583A3AA82AB8312138E8A0CA2
:102F33008B0D8C0E8D0F850882850983A3A3A3A314
:102F4300780C12080740030230879085F8780C123A
:102F530009BC850882850983A3A3A3A3780C120A5D
:102F6300C0900365E064046008E064096003023014
:102F730087E50AA2E5400302303FEE242E12315CBE
:102F8300851882851983F0EE242F12315CC0E0741A
:102F930001120AFFD0E0F0EE243012315CC0E0747D
:102FA30002120AFFD0E0F07414120AFFE064017009
:102FB30027740E120AFF123EF2EE241212315C68DD
:102FC3007003A3E0697011740C120AFF122A947043
:102FD300077414120AFFE4F0EE242412308F120651
:102FE3009E7404120AFFAC82AD837407120AFFAA0F
:102FF30082AB83120BF674041208B302308790037A
:10300300AAE064016003022F647420120AFF1230E5
:10301300A57009E50AA2E65003022F647410120A90
:10302300FFE0F47003A3E0F4605AEEFCEFFD7403D9
:10303300120AFFAA82AB83120CFE8048A2E6504418
:103043007420120AFF1250D6701A741A120AFFE083
:10305300640270307403120AFFAA82AB83790012F0
:103063000E0C80207420120AFF12309E7016741A00
:10307300120AFFE06404700C7403120AFFAA82AB05
:1030830083120E067422025482EE240BF582EF1291
:103093003EE722F582E9124D7CF822125797E0644D
:1030A3000722123F19640622EE242A123EE4122C50
:1030B300CA2412123EE42274F4120384EAFEEBFFE4
:1030C3008C088D099005CEE0600F122A9A7003A335
:1030D300E0697005120C68804F79001250BA120C27
:1030E300988A828B83E58245836035A3A3A3A3A338
:1030F300A3E05418602AE508241BF582E509123081
:10310300921206A21237901230921206A2EE2418DF
:103113001257B912312D120CAA74041208B3800885
:10312300790012312D120C6E80278E828F83A3A318
:10313300A3A3A3A3A3A3A3122CCA240BF582EF1268
:103143003146223400F583123F41FB2274031208F7
:10315300B37F0402059DEE2417F582EF124D7C2206
:1031630074F712038474F712092DEAFEEBFF900340
:1031730065E06403600DE064016008E064096003D6
:1031830002322D8E828F83A3E0707E7C007D007AD5
:10319300027B00121BB0EE2402FAEF123AFD123E3C
:1031A300F2900356124D637953121BE679001232E3
:1031B30032E0640960031235C5851882851983746A
:1031C30001124D399003657404F07401120AFFAAC9
:1031D30082AB83794A121BE07401120AFFAC82AD01
:1031E300837A5B7B03121BCE9003561255C97A0375
:1031F3001235CF900350E0A2E35004D2F08002C214
:10320300F0124D26122880801E8E828F83A3AE82F9
:10321300AF83FC7D007A037B10121BB08E828F83F9
:10322300E0F9123232E4F0120D28740902530A90C5
:10323300036312314A120C0890036522C082C083D3
:10324300900334124D18701F900365E01460092435
:10325300FC600A14600C800F90033C8032900338AA
:10326300802D90033A8028E8496008900335123591
:1032730077700C8A828B83A3E0F9120BFC801B907E
:10328300033512382C7005120E60800E9003D21293
:103293004D186006124D0A121DA702429A74F412C9
:1032A300038474FB12092D8A088B097A0F7B0012A1
:1032B30013A08A0A8B0BAE0AAF0BEE4F70030233D7
:1032C300A78E828F831252947950121BE085088255
:1032D300850983A3E0600302338F900363E0F470F6
:1032E30003A3E0F46034900363E064FE7003A3E09F
:1032F300F460278518828519831233B37003A3E022
:10330300696017850882850983A374EA1235AD7A4B
:10331300637B037950121BE68072851882851983BB
:10332300125778124D637A567B037953121BE09040
:103333000356124D94124D637A597B03794B121B3A
:10334300E07A587B0379E1121BE090036AE0C394AF
:103353000F5021900358E0C0E07402120AFFD0E03E
:10336300F07404120AFF7401F004120AFFAA82AB7C
:1033730083121BF8750A00780A12086F780A12087C
:103383006F900D22E0F912358E1208B385088285FD
:1033930009831233ACA3F09003657403F0EEFAEFE4
:1033A300FB124D4C7405023151A3E08E828F8322B0
:1033B30012577CE068221243D22274F512038474FC
:1033C300D812092D8A088B098A828B83A3A3A3129F
:1033D3003F1E7415120AFFAC82AD838A828B83A3CE
:1033E300A3A3A3A3A3A3A312357DFAA3E0FB120D0A
:1033F3002E7415120AFFE0706B850882850983A37A
:10340300A3A3A3A3A3A3A3E0C3940B40578E828FCC
:1034130083A3A3A3A3A3A3A3A3E064027046EE2400
:103423000B12315CF4703D900365E06402603AE096
:1034330064066035900334124D18600512357760C9
:103443004F900365E064086005E064047016741728
:10345300120AFFE0F9741C120AFFAC82AD8312500A
:10346300BA120D347428025C96900334124D18700E
:103473001F750800780812086F780812086FEE2489
:103483001012308F1257D1123BE51235971208B341
:103493008E828F83125036123B0F123EF274021249
:1034A3000AFF124D63EE240D12315CC0E074041266
:1034B3000AFFD0E01235A0F508A3E0F509740F78F0
:1034C30008120AB17405120AFFE508F07419120A0A
:1034D300FFE0C0E07406120AFFD0E0F0741B120A8A
:1034E300FFE0C0E07407120AFFD0E0F07416120A7E
:1034F300FFE0C0E07409120AFFD0E0F07417120A6B
:10350300FFE0C0E07408120AFFD0E0F0EE241012CE
:10351300315CC0E0740A120AFFD0E0F0741A120A98
:10352300FFE0C0E0740B120AFFD0E0F07427120A28
:10353300FFE0C0E0740C120AFFD0E0F0741C120A22
:10354300FFA982AA8389088A09750A0078081208E4
:10355300677C087D007410120AFFAA82AB831248AD
:10356300C71208B3851882851983AA82AB83120C0C
:1035730002023467123832640122E0F98A828B83B3
:10358300A3A3A3A3A3A3A3A3A3E02290036312551E
:10359300CD90035912314A120DEE740222F0EE243B
:1035A3000B124D7922124D7CFA22F07A567B037965
:1035B300531235B822121BE67A597B03794B121B3F
:1035C300E62290036312314A120E90227B00121BF3
:1035D300B09003591255CD7A047B00121BB022F030
:1035E3001257DC2274F212038474F812092DEAFED6
:1035F300EBFF8C0A8D0B890C851882851983AC82AD
:10360300AD837583857582A274081207C7F50DEE25
:10361300FCEFFD851882851983AA82AB83124F972D
:103623007003750D019003B1803BEEFCEFFDE508DF
:10363300240BFAE5093400124F96601E8508828533
:103643000983A3A3E0650C7011850882850983E0D3
:10365300650A7004A3E0650B6038E5082414F5825D
:10366300E509123092123B07E50845096024E50D90
:10367300A2E040B6850882850983E0650A7004A349
:10368300E0650B70D5850882850983A3A3E0650CEB
:1036930070C8AA08AB097408022AB0C082C083901C
:1036A30003B102429774F71203849003B1123F41AE
:1036B3008012EA2414F582EB123092123F1E121488
:1036C30042EEFAEFFBEA4B70E99003B1E4F0A3F0AA
:1036D30002530D7F0702059D74F1120384EAFEEB8A
:1036E300FF890A8C088D098E828F83E08C828D83FB
:1036F3001241AEAE82AF83E01249871248F8C4127A
:103703004987123799E054038C828D831248F6A2BD
:10371300E2E4338C828D831248F5131313541F1282
:1037230049871248F4A2E7E4338C828D83A3A3A3D1
:10373300A31237998E0C8F0D750E00780C12086743
:103743007C087D00E508240712553C1208B3125586
:10375300A78E0C8F0D780C1208677C037D00E5089B
:10376300240F12553C1208B3E50AC3940F40148E7C
:10377300828F83A3A3A3E0C0E0123790123092D0CC
:10378300E08006123790125A04F00236D6E5082478
:1037930012F582E50922A3A31241B20EAF8322746C
:1037A300F412038474F912092DEAFEEBFF890890E1
:1037B3000334124D18600E12382C7009EEFAEFFB29
:1037C300120E5A805F900363E06E7003A3E06F7084
:1037D300537401650860097A777B03124F9770442D
:1037E3007A007B02123D568B0BEA450B7036900331
:1037F30066120ADC851882851983120AE890036C25
:10380300E0C0E07404120AFFD0E0F07405120AFF6E
:103813007401F07406120AFF125294120BCCE96081
:103823009B120BD2740702315112383264022212F6
:103833005798A3A3A3A3A3A3E02274F51203848A36
:10384300088B098A828B83A3AE82AF83E0F9120CC3
:10385300208E828F83E064EB600C85088285098368
:10386300A3E064E17009850882850983A3E4F0126B
:103873002880750A01780A12086F850882850983F2
:10388300A3E0F508780812086F790012358E120844
:10389300B3120D40025C99EAF0A3EBF002429A7472
:1038A300F61203849003B4E0701B7C0079017A0064
:1038B3007B00120D70EA4B600C8A828B83124D18C9
:1038C3006003120CCE024D21C082C083123D3E40E4
:1038D3001079FF120D6AE9F8902676E493C39850A5
:1038E3000479018002790002429A74F01203848AF7
:1038F300088B09890B750C008A828B83A3A3A3A36E
:10390300A3A3A3A3E0F9120D768A0E8B0FAE0EAF1D
:103913000F750A01EE4F60030239CB8508828509D2
:1039230083A3A3A3A3A3A31255C9850882850983EF
:10393300A3A3A3A3A3A3A31246C71250C7120D5E4A
:103943008A0C8B0DAE0CAF0DEE4F7003023AEE8E68
:10395300828F83A3A3A3A3E4F0A3F0E508240B12AF
:103963003AFAE0C0E012308CD0E0F0120E36EE24CA
:103973000CF582EF124CECE508240EF582E50912F2
:103983003EEFEE240EF582EF124D60750C01EE242E
:1039930006F8EF123AF6547FF0A3E054FC12582EC7
:1039A300E054046003023A51900D001246B87407C4
:1039B3007808120A2E8E828F83A3A3A3A3A3A3E066
:1039C3004508F0A3E04509F08E828F83A3A3A3A348
:1039D300123B0574077808120AB1E5085407F50885
:1039E300E50B607A8E828F83A3A3A3A3A3A3A3A3D0
:1039F300A374021248F9240D1243C7E0A2E2500B4C
:103A0300900351124D94A3A3124D63E50870030272
:103A13003AC3EE2406F8EF3400F9E8FAE9FB8A82A8
:103A23008B83E0547FFCA3E054FCFDE50824FFF501
:103A330008E434FFF50974077808120A2EEC4508E8
:103A4300F8ED4509F98A828B83124D6380728E8269
:103A53008F83A3A3A3A3A3A3E044800239CAE508E9
:103A63007005750A0080598E828F83A3A3A3A3A335
:103A7300A3E05420601212139AEA547F245F8E82CB
:103A83008F83A3A3A3A380238E828F83A3A3A3A344
:103A9300A3A3E05410600A12139AEA540F240A8075
:103AA300DD8E828F83A3A3A3A37401F0A3E4123B4F
:103AB3000F7404123D4D8B09EA45097003124CDF64
:103AC300E50CA2E050288E828F83A3A3A3A31252F6
:103AD300FAF9EEFAEFFB120D64E96012124D0E6073
:103AE30003123ED7EEFAEFFB121442750A00A90A3D
:103AF300025485124E5722FAE5093400FB8A828B61
:103B03008322A3A3E0F508A3E0F50922123B1322C5
:103B1300125558A3A3A3A3A32274F412038474F726
:103B230012092D7E00120D76EA4B7003023BDE8AEA
:103B3300828B83A3A3A3A3A3A3A3A3A3E06406608D
:103B430003023BDE8A828B83A3A3A3A3A3A3A3E0E5
:103B5300FF8A828B831243DAE0C0E07408120AFF03
:103B6300D0E0123F12124F9D124D63120D88EF5495
:103B73000860668518828519831255C97A007B000F
:103B8300120D588B0BEA450B704F900363124002E2
:103B9300121C107C007D007A007B0080288E828FAF
:103BA30083123EFCF47003A3E0F4602D90036312D0
:103BB3003BE51250C7121904E9641A601C7C007DAE
:103BC30000EEFAEFFB120D588A0A8B0BAE0AAF0B0D
:103BD300EE4F70C97900121C167E01EEF9740902CA
:103BE3003151123BE922E0FCA3E0FD8E828F832258
:103BF300C082C083EA4B70059003B580068A828B2E
:103C030083A3A3123E0260258A828B83A3A3A3A36B
:103C1300A3A3A3E0540860E5EC4D60158A828B836F
:103C2300123EFC6C7003A3E06D70D280047A007BBB
:103C33000002429A74F2120384EAFEEBFF890A8CB3
:103C4300088D097A107B0012143CEA4B603F8A828C
:103C53008B83A3A3A3A3A3A3A3A3A3E4123F00A3C0
:103C6300E50A12579EA3123C9A8A828B83A3A3A3CD
:103C7300A3E4F0A3123F0CA3F0125632EA240CF58E
:103C830082EB12419E123C93A3A3F0A3F0022AB34A
:103C9300A3F08A828B8322A3A3E508F0A3E509F0AE
:103CA3002274F4120384EAFEEBFF89088C0A8D0B5D
:103CB300EE4F60557401650870147901120D6AE9BD
:103CC300F890266EE493C398500F7911806A7404B8
:103CD3006508702F123D3E40F18E828F83A3A3A30C
:103CE300A3A3A3A3A3A3E5081241AEA3125D238E4E
:103CF300828F83A3A3E4F0A3F09003B5124D186061
:103D030021800D7402650860D079C1802BE0F8A38F
:103D1300124D8DA3A3123E0288828983A3A370ED63
:103D230080039003B5EEF0A3EF123D4D8B0BEA45F4
:103D33000B7003124CDF79000231547904120D6ABF
:103D4300E9F8902669E493C39822F0123D52227A4F
:103D5300207B009003B0E0F912150822C082C083D3
:103D6300E9F879009003B5801D8A828B83A3A3A30E
:103D7300A3A3A3A3A3A3E068600574FF687001096C
:103D83008A828B83A3A3123E0270DE02429A74F7E7
:103D9300120384EA4B70059003B580068A828B83F5
:103DA300A3A3123E0260248A828B83A3A3A3A3A3AB
:103DB300A3A3A3A3E06970E4EC60148A828B83E07D
:103DC300240D1255BAA2E240D380047A007B00028C
:103DD300530DC082C0839003B580068A828B83A370
:103DE300A3123E0260128A828B83A3A3A3A3A3A37D
:103DF300A3A3E06970E580047A007B0002429A1273
:103E0300314AEA4B2274F21203848A0A8B0B8C0C1C
:103E13008D0D750800750900EA450B602E9003B5FA
:103E230080068E828F83A3A3123E55601EAC0CAD19
:103E33000DEEFAEFFB850A82850B83121DA7E96459
:103E43000170DFEEF8EFF988088909AA08AB0902C7
:103E53002AB3E0FEA3E0FFEE4F2274F7120384902F
:103E630003B5123EF27C007D00800DE8FCE9FD887D
:103E7300828983A3A3123EF2E8496030EA687002A4
:103E8300EB6970E79003B51250C7E86A7002E96BFB
:103E930088828983A3A37008123EF29003B5800938
:103EA300123EF28C828D83A3A3124D6302530D74D1
:103EB300F7120384EAFEEBFFEE4F6015120D821238
:103EC3003F24124D0E6003123ED7EEFAEFFB12149D
:103ED3004202530DEE240C123EE4123F3922EE242B
:103EE3001DF582EF3400F58322F582EF123EE712CF
:103EF300429122F582EF123EE7123F1922123F044C
:103F0300221257A6A3A3A3A322123F04A3A3221200
:103F13003C94123F1922125791E022E0FEA3E0FFE6
:103F2300228E828F83E0241C1243CB123F398E8270
:103F33008F83123F3922123F41FB12144222E0FACF
:103F4300A3E022C082C083EAFCEBFDEC4D70047950
:103F5300058044EC24FBF582ED34FF124D16700707
:103F6300123F9DE0F46005121D9C80E39003B0E0D6
:103F7300C0E0123F9DD0E0F090266BE493F97AB74E
:103F83007B031213D0E96401700B7A007B20124C7F
:103F9300E379008002790402429AEC24FFF582ED72
:103FA30034FFF5832274F4120384A2AFE433F508DB
:103FB300C2AF9003B7123E556038EE24FBF582EF93
:103FC30034FF124D167A007B209003B06005124C2B
:103FD300E68005E0F91213DCE4F50AF50B780A1222
:103FE300086BEEFCEFFD7AB77B031213CA7402125F
:103FF30008B3E508A2E092AFEEFAEFFB02315412E8
:1040030055CD851882851983AA82AB832274F21257
:10401300038474FC12092DEAFEEBFF750AFE750B8F
:10402300FF120D46E960057911024193EE24151242
:10403300315C6037900D14E0C43354E0F8E033335F
:1040430054FC48C0E0EE241512308FD0E01241AE8C
:104053001241A48B09EA45096011750AFFEE240F8A
:1040630012315C4404124D71D2E0F08E828F8312C0
:104073002A786006EE241212419BEE241312315C5F
:104083007010902671E493C0E0EE241312308FD0A9
:10409300E0F08E828F83E0A2E750045403801CEE8D
:1040A300241412315C7015900342E0C0E0EE241436
:1040B30012308FD0E0F0900342E004F0EE241112AE
:1040C300315C640170169005C5E0600D90034DE00E
:1040D300700A8E828F83E070031241988E828F83E1
:1040E300E064017013EE240B123EF664027009EED5
:1040F300240F12315C4440F0851882851983AC8209
:10410300AD83EEFAEFFB120DAC8A088B0974FE65E2
:104113000A700374FFF470098E828F83A3A3125570
:1041230048EA450960668E828F83E0C0E07401121D
:104133000AFFD0E0F07402120AFF1256367401121D
:104143000AFF85820C85830D780C12086BEE240F11
:1041530012308F1206A2EE240E12315CF50C780C8D
:1041630012086F9003561206A27407120AFFE0F9B1
:10417300AC0AAD0B120DA674071208B3E9FE741056
:104183006E700BAA08AB0912144280027E10EEF97E
:104193007404022AB0EE2411F582EF123EE7E4F034
:1041A30022A312314A79FF121CD6221241B222F005
:1041B3008E828F83A322C082C08374DE12092D8A6C
:1041C300828B83A3A3A3A3123EF2740E120AFFE809
:1041D300F0A3E9124288740C120AFF124281240DE3
:1041E300F582EB12315FC0E0741A120AFFD0E0F0DF
:1041F300125495EB123EEF7420120AFF12428124EF
:1042030015F582EB12315FC0E07408120AFFD0E0AB
:10421300F0EA241CF582EB123EEF7412120AFF122D
:1042230042812411F582EB12315FC0E07409120A56
:10423300FFD0E012427574FFF07401120AFF74FF9D
:10424300F07402120AFF74FFF090862012069E7427
:1042530004120AFFAC82AD837407120AFFAA82AB71
:1042630083120BF674041208B3790074221208B394
:10427300802512427922F085188285198322E8F07D
:10428300A3E9F0EA22123C94A312429022A3E0F89D
:10429300A3E0F9221250C7D083D08202084B74ECFA
:1042A30012038474EE12092D8A128B13ECFEEDFFB8
:1042B30089097426120AFF1255487428120AFFE06E
:1042C300F5107429120AFF1243BC742B120AFFE083
:1042D300F50EA3E0F50F7508107A1E7B0012143C4F
:1042E3007402120AFF124CF07402120AFF124D18E4
:1042F30070030243B5851882851983AA82AB83793B
:1043030050124BCB1250C77402120AFF1243DAA3A6
:10431300124CF07410120AFF125D257402120AFF88
:10432300E0240B1243C77402F0120AFF1243DA743B
:1043330002F0120AFF1257891256367402120AFF4C
:104343001250DCE509F07402120AFFE0240C124358
:10435300C7E510F07402120AFF1243C4E512F0A37A
:10436300E513F07408120AFFE50CF0A3E50DF074F1
:104373000A120AFFE510F0850E82850F83C082C002
:1043830083740D120AFFAC82AD83D083D082740391
:104393001207C7F97402120AFFAA82AB83120D4CEB
:1043A300E96401700575080080087402120AFF129F
:1043B3003EDDA908741202555FE0F50CA3E0F50D8C
:1043C30022E0241C1243CB22F8A3E01243D222346E
:1043D30000F988828983221250CFA3A3A3A3A32227
:1043E30074EE120384EAFEEBFF8C088D098E828F34
:1043F30083A37408124DACE060088E828F83A3748C
:1044030010F012315960098E828F83A3E02408F0E3
:10441300EE241512315C60088E828F83A3E004F0D2
:104423008E828F83A3A3A3A3A3A3E060198E828F9D
:1044330083A3A3A3A3A3A3A3E0C3332402F88E827D
:104443008F83A3E028F0EE241112315C6005750B15
:104453000E8003750B008E828F83A3C082C083EE10
:10446300240D12315CD083D082F8E028250B8C8296
:104473008D83F0EE241112315C60051248D728F0C9
:10448300850882850983E0C3947540097508007522
:1044930009000245C5E0FA7B001256E470030245A9
:1044A300C5EEFAEFFB120DB2EA8508828509831285
:1044B3004CF1EE2402F8EF1233B91246BF12460153
:1044C300F0EE24040808EF1233B9124B01A312468D
:1044D30001A3A3F0EE24131245E7F0EE24141245D2
:1044E300E7A3F0750A08EE241612315C6010EE247F
:1044F300181255C6E50824081257C7750A10123159
:10450300596016EE241A1255C6850A0CE508250CC7
:104513001257C77408250AF50A8E828F83A3A3A3B3
:10452300A3A3A3E06059EE2407F510EF3400F511BF
:10453300851082F583E0C0E01245CE123092D0E0C0
:104543001245F1E0C0E01245CE123092D0E01245A0
:10455300F1A31245DA120867851082851183E0C33F
:1045630033FCE433FD850A0CE508250C12553C1297
:1045730008B3851082851183E0C333250AF50AEE5B
:10458300241512315C600BC0E01245CE123092D07C
:10459300E0F012308C1245DA120867EE240D123166
:1045A3005CFC7D00850B0A8E828F83A3E0F8E5080F
:1045B30028F8E5093400F9E8250AFAE912553F120B
:1045C30008B3AA08AB097F0A02059D850A0CE50812
:1045D300250CF582E50922E0F50CA3E0F50D750E37
:1045E30000780C22123EE412460BA3A3A322F0058B
:1045F3000A8E828F83A3A3A3A3A3A3A3A322A3A30C
:10460300125832A312460B22124B05A3A32274F6AF
:104613001203848A828B83E0FC9003531246B8749E
:10462300027808120A2EEC4508FCAD09EA2412129E
:1046330046B274067808120A2EEC4508FCED4509CB
:10464300FDEA2415F582EB12315F600478018002E4
:104653007800E4C8F9ED49FDEA2411F582EB123143
:104663005FF508880974097808120A2EED4509FDDB
:10467300EA24161246B2740B7808120A2EED450985
:10468300FDEA24171246B2740C7808120A2EED457F
:1046930009FD8A828B83A3A3A3A3A3A31246B874A1
:1046A3000A7808120A2EECFAED4509FB024D21F5B2
:1046B30082EB123EE7E0F50875090022E0850882E7
:1046C30085098322A3E0F98508828509832274EE94
:1046D3001203848A0A8B0BECFEEDFF750F01E9C30D
:1046E3009408500579000248C48E828F83E9F01242
:1046F3004B2AE96003750F00124B0E8E828F8312D3
:104703004B58EE125496EF124B4DC0E0EE241112AB
:10471300308FD0E0124B45C0E0EE241212308FD020
:10472300E01241AE7408125550A3A3A3E060151222
:104733004AF6EE2413F582EF124D608E828F83A327
:10474300E02408F08E828F83A3A3A3A3A3A3A3A330
:10475300E060218E828F83A3858208858309124BB3
:1047630039EE2415F582EF124D60850882850983A1
:10477300E02408F08E828F83A3A3A3A3A3E0601A8F
:104783008E828F83A3858208858309124B1D8E82B7
:104793008F83A3A3A3A3A31248E9EE241912419B79
:1047A300EE241B12419BA3124DA4E0700302485850
:1047B300EE2419F8EF3400F98E828F83A3858208E3
:1047C300858309E0FAE50A2AF582E50B12315F8851
:1047D3008289831248E9FAE50A2AF582E50B123148
:1047E3005FC0E0EE241A12308FD0E01248E98882CD
:1047F3008983E06059F890266AE493C3985005755D
:10480300110C8008EE241912315CF5118E828F830E
:10481300A3E0F8E50A28F50CE50B1248CD1208676A
:10482300E511C333FCE433FD7AA67B0B1248C712B0
:1048330008B3EE241B12308F74A6F0A3740BF0E5BB
:1048430011C333F8850882850983E0288006EE24A6
:1048530018125A01F08E828F83A3E0F88E828F8321
:10486300E0C39850030246E7A3E0FA8A08E50A2565
:1048730008F8E50B3400F9EE241DF582EF124E6CB7
:104883001248F9C39AC0E0EE241712308FD0E01219
:104893004D69602BEE2417F8EF3400F98808890975
:1048A3008882F583E024F2124E4D240EFAA3E034FD
:1048B30000FB88828983124CF01248D7C398F0A971
:1048C3000F0245C91213767403223400F50D750ED9
:1048D30000780C2290034EE0F9120B36E9F88508B4
:1048E30082850983E022F0850882850983E004F04C
:1048F30022A3A3A3A3A3F08E828F83E02274F412D6
:1049030003848A088B09EA12498EF0EA1313543F91
:10491300124987A3A3A3F0EAC4131312498EA3A3D6
:10492300F0EB1249801249987409780A120AB112FD
:10493300497E124997740A780A120AB1E50A5401AA
:10494300C0E0EC2418F582ED123092D0E012499DBC
:10495300740B780A120AB112497EA3124997740C98
:10496300780A120AB112497EA3A3A3A3A3A3A3A304
:10497300F0740D7808120AB1022CBEE50A54018CBA
:10498300828D8322540F8C828D832254038C828DDB
:1049930083A3A322A3A3A3A3A3A3F08A0A8B0B221B
:1049A300C082C08379008A828B83A3A3A3A3A3A31A
:1049B300E090034D600FE070228A828B83A3A3E013
:1049C3007019098016E060138A828B831250BE909F
:1049D3000356E06A7003A3E06B70E702429A74F037
:1049E3001203848A0A8B0B890C8C088D09124B2ABB
:1049F300124B0E850882850983124B58E508125421
:104A030096E509124B4DC0E0E5082411F582E5094E
:104A1300123092D0E0124B45C0E012379012309220
:104A2300D0E0124E747408124E8D6011124AF6E5EE
:104A3300082413124E68124E74E02408F08508828D
:104A4300850983A3A3A3A3A3A3A3A3E06017850856
:104A530082850983A3124B35E5082415124E68128B
:104A630048F92408F0850882850983A3A3A3A3A397
:104A7300E06019850882850983A3AE82AF83124B58
:104A83001D8508828509831248F404F0AA08AB093E
:104A9300120DC4E9F50D7056850882850983A3A319
:104AA300A3A3A3A3124B017014E0FA8A0EE50A250F
:104AB3000EF8E50B124D55E50CC39A8021124B35C8
:104AC300E8240EF8E9124D5590034EE0F9120B3627
:104AD3008E828F83E0F8E50CC39824F2C399C0E07B
:104AE300E5082417F582E509123092D0E0F0A90D0C
:104AF300025485E50A2408F8E50B3400F922124B29
:104B03000522E0850882850983A322850A82850B15
:104B130083A3A3124B6EE0F9EA22E0F8E50A28F535
:104B230082E50B124D7C228A828B8312548A120DEA
:104B3300BE22AE82AF83E0F8E50A28F8E50B340025
:104B4300F922124B81A3A3A3E022123EE7E8124B02
:104B53007AA3A3E022A3A3A3A3A3A3A3A3A3124B78
:104B63007A124B6EA3A3E0F9EAF822E0FA850A82EF
:104B7300850B83A3A3A322F0A3E9124B8122F08523
:104B83000A82850B83A3A3A3A322C082C0837AC511
:104B93007B0379E2121BE07AC57B0302429AC0824F
:104BA300C083900356024297C082C08374FE1209E9
:104BB3002D851882851983AA82AB83794B124BCB3F
:104BC3001250C77402024270121BE08518828519C5
:104BD3008322C082C083794A121BE002429A74F690
:104BE3001203849003CDE0FE04F0EEF9120D768BF0
:104BF30009EA450970EDEE60EAF9024D2174F012FD
:104C03000384EAFEEBFF8C088D09890A7410120AEB
:104C1300FFE0F50B7411120AFFE0F50C120E96EA91
:104C23004B7013E50C7042A90AAC08AD09EEFAEF1C
:104C3300FB120EAE806EE50A6021EA2402F582EBD8
:104C430012315F850A082508F8E4340013E813F0ED
:104C530070098A828B83A3A37401F0E50C6045E598
:104C63000B70068A828B83E4F07401650C7035E562
:104C73000B9003D47004E4F0802AE004F0900D015B
:104C8300E0F89003D4E0C398401AE4F0900359E0AD
:104C93006E7003A3E06F700CEEFAEFFB7901120C58
:104CA3001A124CAA0254857A017B009003B0E0F9F2
:104CB30012150222C082C08374016A7001EB70076F
:104CC3007A01124CE18012900CF8124CF0EA4B601E
:104CD30005122A3A8003124CAA02429A7A207B00D8
:104CE3009003B0E0F91213D6223400F583EAF0A35F
:104CF300EBF022C082C083900CFA02389AC082C0C3
:104D030083900CFC02389A12579822EE240CF582F9
:104D1300EF3400F583124291E849221208B37F026F
:104D230002059DA2F0E433851882851983124D4252
:104D33007952121BE622124D427942121BE622F0EF
:104D4300AA82AB8322AA08AB099003B0E0F912133D
:104D5300AC223400F9E508241DF582E509123EE78B
:104D6300E8F0A3E9F022125554A3A3E022A3F0EE46
:104D73002415124D7922F582EF3400F583E02212D7
:104D83004D86223400F583E0F8A3E0F98882898315
:104D930022E0F8124D9A22A3E0F98E828F83A3A317
:104DA30022F0EE2418123EE422F0EE2416123EE422
:104DB3002274F4120384EAFEEBFF7A007B04124CA4
:104DC300AE124E43124D639003657409F0120DD079
:104DD3008A088B09AC08AD09EE241312308F1250E8
:104DE300C7124F97640170487A0F124E3660418A9A
:104DF300828B837402124E4DFAA3E0FB8A828B836B
:104E0300A3E0FC8A828B83A3A3E0FBEC8508828565
:104E13000983A3A3124CF1888289831250CB1246D3
:104E2300BF124D70FAA3E0FB794A121BE6124D48FC
:104E33000231547B001213A08A088B09EA45092228
:104E4300900336124291900CFC22F0EE241DF8EFF1
:104E5300124E57221243D2E022124E60223400F542
:104E6300837401F022F582E509123EE7E8F0A3E935
:104E730022124E7822124E7C22F085088285098305
:104E8300A322124E7CA3A3A3A322124E85A3A3E0C5
:104E93002212529E120E2422EE2417F582EF124E96
:104EA30060120DD0EE241A123EE4EAF0A3EBF022D6
:104EB30074F412038474F312092D8908EAFEEBFFDC
:104EC3007C0D7D007900851882851983AA82AB83C6
:104ED300121382EE241D12308F125789A3E0F87447
:104EE3001F58600A7901121BB67900024F8EE8A29F
:104EF300E55008740C120AFF7401F0E8A2E75008A9
:104F0300740B120AFF7401F0E8A2E6740A50081247
:104F13000AFF7401F08008120AFFE064017005EED5
:104F230024138003EE24151255C67402120AFFAA35
:104F330082AB83121BCE12308C124F9C124D6374C2
:104F43000A120AFFE064017033122A6D703B120DDE
:104F5300DC8A0A8B0BA80AA90BEE240B12315C68BE
:104F63007003A3E0697022120DD0EAFCEBFD74021A
:104F7300120AFFAA82AB83124F97600D85188285B0
:104F83001983AA82AB83120C14A908740D02315140
:104F9300EEFAEFFB121BC8E922E0124FA122F8A39D
:104FA300E0F98518828519832274F612038474F359
:104FB30012092D8A088B09ECFEEDFF7C0D7D00792B
:104FC30000851882851983AA82AB8312592EA3A365
:104FD300A3A3A3A3A3A3A312503612503FF8A2E5A1
:104FE3005008740B120AFF7401F0E8A2E75008742A
:104FF3000A120AFF7401F0E8A2E6EE5004241380BB
:105003000224151255C67402120AFF125028A3A3D4
:10501300E0C0E0740C120AFFD0E0125296120C0E9C
:10502300740D024D1EAA82AB83121BCE85088285A6
:10503300098322E0124FA1E8F0A3E922F0123EE136
:1050430012578DA3E02274F712038474E112092D21
:10505300EAFEEBFF8E828F831250CBA3A3A3E0A2C1
:10506300E050518E828F83122BCD8A828B83A3A330
:10507300A3A3A3A3E054FE1250E38A828B831250AE
:10508300DCE0F98A828B83E0241CFAA3E0123AFD68
:105093001250C7120DCAE9701B741D120AFF125079
:1050A300D67011851882851983AC82AD83EEFAEF31
:1050B300FB120E120253088E828F83A3A3A3A3A312
:1050C300A3A3A3A312314A221250CF22125791A3B2
:1050D300A3A322123F19640422E0241B1243CB2210
:1050E300124279AC82AD8322E9F8790074046860D6
:1050F3000A740A68600574036870010902084B7436
:10510300F61203848A828B837420F0A3A37401F0C4
:10511300120BC08A088B09AE08AF09EE4F60108EE0
:10512300828F837401F09003A3E07003124E9BEE11
:10513300FAEFFB024D21C082C0839003B97401F0E2
:10514300E9A2E350037403F0E9A2E15004E0D2E2E0
:10515300F002429A74F612038479007C008A088B69
:105163000978081205E3F8FF078A518851885188A6
:10517300518851815185518A517E510C80097C049B
:1051830080050C80F67C089003B9E05C600309801D
:1051930003EC600109024D2174F61203848A828BA9
:1051A30083E07012A3124D18600C8A828B83125015
:1051B300C6121D0680047A007B00024D2174F5128D
:1051C300038474F312092D8A088B09ECFEEDFF7535
:1051D3000A12EA45097005790002528F900356E0DE
:1051E30065087004A3E065097014120DD0EAFCEBA6
:1051F300FD124F937005750A018003750A00851827
:1052030082851983E4F004120AFFE508F0A3E50997
:10521300125296120B84E960277403120AFFAA82C2
:10522300AB83120B66E964017016750A01740312ED
:105233000AFFAC82AD83124F936021750A00801C74
:105243007412650A70169003A2E06402700EEEFCFD
:10525300EFFDAA08AB09120B9CE970DFEEFCEFFD32
:10526300AA08AB09120E9CE9F8740A687005750A5E
:1052730001801774A0687012EEFCEFFDAA08AB0959
:10528300120EA8AA08AB09120EBAA90A740D025C81
:1052930096740212529A2212529E22124279AA82C2
:1052A300AB832274F7120384EAFEEBFF8E828F83B3
:1052B300A3A3A3A3A3A3A3A3E06015EE2415123015
:1052C3008F12313A120E3CE9640170047901802592
:1052D3008E828F83A3A3A3A3A3A3A3E06015EE24CD
:1052E3001312308F1252FAFAA3E0FB120E3CE96458
:1052F3000160D979008013123BE9A3A3A3A3A3A35D
:10530300A3A3A3E022741F1208B37F0102059D74B7
:10531300F012038474FD12092D8A088B09ECFEED4B
:10532300FF890B7413120AFFE0F50C750A0174016F
:10533300120AFF74041257C16048E50C601DEA2489
:1053430017F582EB125A041257AF8A828B83E0D28D
:10535300E7F0EA2414F582EB12419E125495EB1206
:105363004D827403125D27EE88828983A3A3F0EF35
:1053730088828983A3A3123C93123C9A120BBAE945
:10538300F50AA90A740302548274EC12038474F5B7
:1053930012092D8A0A8B0B890C8C0E8D0F741F1228
:1053A3000AFFE0F50D7420120AFFE0F510A3E0F503
:1053B300117E01EE120AFF740AF0E97007E50DC3CE
:1053C30033240AF0125567700302546912557C7432
:1053D30009F0A3E50CC43354E0450D12558EE50CDA
:1053E300702D7C008023ECC333F8E433F9E51028F7
:1053F300F8E51139F9888289831254768882898382
:105403001233ACF0A30EAF830CECC3950D40D7E57C
:10541300082417F582E509124E5C120DD0E5082425
:105423001AF582E509124CEC7403120AFFAC82AD43
:1054330083AA0AAB0B120B6CE96019E5082416F575
:1054430082E509125470120AFFA882A983E5082491
:1054530018124D5C850882850983125D23AA08AB67
:1054630009120BBAE9FEEEF9740B02555F124E6096
:10547300740322E08E828F83F0A3AE82AF83221265
:1054830008B37F0802059D123F41F9EA2400E4397D
:10549300FB22EA240BF5822274EE1203848A0C8B1E
:1054A3000D890E8C088D097412120AFFE0F50F7432
:1054B30013120AFF125548900534124D186077E510
:1054C3000FC333F8E433F9E8240EFAE93400FB128E
:1054D30013A08A108B11AE10AF11EE4F60588E825D
:1054E3008F8374D4F0A3A3E50CF0A3E50D125550FC
:1054F300E50EF0AC08AD09EE2405FAEF1257CAEE3B
:10550300240D12308FE50FF0850A08850B09750A03
:10551300007808120867E50FC333FCE433FDEE247B
:105523000EFAEF12553F1208B3EEFAEFFB90053473
:10553300125789121DA70245C9FAE5093400FB1267
:105543001376740322E0F50AA3E0F50B22125554F7
:1055530022125558221241B2A3A3A3221208B37FE9
:105563000C02059D851882851983AA82AB83120ECE
:10557300248A088B09EA450922EA240BF582EB12F7
:105583004D7CFEA3E0FF8E828F8322F0A3AE82AF19
:1055930083AC0EAD0FEEFAEFFB1255A022121BCE19
:1055A3001255A722EE2408FEEF3400FF22E0FA8E04
:1055B300828F83A3A3E022FEA3E03400FF8E828FB9
:1055C30083E022123EE41255CD22E0FCA3E0FD224B
:1055D30012314A120DB82274F6120384EAFEEBFF6D
:1055E3009003BA801388828983E06E7003A3E06F0F
:1055F300603A88828983A3A3124D1870E87A047BEA
:105603000012143C8A088B09A808A909E849601C00
:10561300888289831256369003BA1250C7888289CA
:1056230083A3A3124CF09003BA124D63024D218A57
:10563300828B83EEF0A3EFF02274F41203847E00D6
:105643009003BA80070E88828983A3A3124D187032
:10565300F4EEC333FAE433FB1256E4607E7F00902A
:1056630003BA8024888289831255C9EFC333FAE4CD
:1056730033FBE5082AF582E5093BF583ECF0A3ED5E
:10568300F00F88828983A3A3124D1870D79003ABC0
:10569300122AA77003A3E0697808701912086BEE49
:1056A300F50A780A12086F7C777D0379009003ABC3
:1056B3001256EF801A12086BEEF50A780A12086F79
:1056C3007C777D0379009003AB1250C7120E4E74A2
:1056D300031208B3AA08AB09121442120BD2023107
:1056E3005412143C8A088B09EA45092212314A12E2
:1056F3000E5422C082C08380128A828B83A3A3129A
:105703003EF29003BA124D631214429003BA123E52
:105713000270E602429A74F6120384900363123F06
:105723001E9003CE125778124D637ACE7B037950C5
:10573300121BE69003CE122CC6FAEFFB120EB490A6
:1057430003CE123F1E900536124D1860257A067B54
:10575300001213A0EA4B601A8A828B8374D5F0A3DC
:10576300A3E412579E041257AF90053612578912BD
:105773001DA7024D2112577C22E0F8A3E0F9900304
:1057830063228E828F8312578D2212579122E0F863
:1057930012579722A3E0F5838882221257A222127E
:1057A30057A622F08A828B83A3A3A3221257A2A314
:1057B300EEF0A3EFF022F582EF124D7CF922124EA8
:1057C30094EA4B22FAE5093400FB121BCE22124D58
:1057D3009BA3A3A3A3A3A3A32290266CE4932401D6
:1057E300F8E43400F97A027B002274F71203847E12
:1057F300008004125DDA0E1258FE40F77E00EE12AE
:10580300581974FEF0A30412582EE4F00EEEC3945C
:105813000340EB02530D75F003A4F8A9F074BC2800
:10582300F8740339F988828983A32212583222F04B
:10583300888289832274F71203847F0080010F908A
:105843002674E493F8EFC3985026EF1259EA6A706E
:1058530003A3E06B70E8125D876C7003A3E06D60D7
:105863000A74FF6C700374FF6D70D31258F58004D3
:105873007A007B0002530D74F61203847CFF7DFFD4
:105883007AFE7BFF120E78EA4B7040750800803673
:10589300E50875F017A4F8A9F0744128F582740A95
:1058A3001259FC600C744028F582740A1259FC707A
:1058B30013743228FE740A39FF8E828F83125A09B9
:1058C300EEFAEFFB050812596440C5024D2174F44A
:1058D3001203848A088B09ECFEEDFF800B120E8AFB
:1058E300EEFCEFFDAA08AB09120E78EA4B70EE024C
:1058F3003154743228FA740A39FB22902674E493E3
:10590300F8EEC3982274F7120384EAFEEBFFEE4F1E
:10591300601012592874FEF0A304125D2D14F0A335
:1059230004F002530D7C177D0079001213828E82DE
:105933008F832274F7120384EAFEEBFF750800805D
:1059430018E50875F017A4F8A9F0125D927003A387
:10595300E06F6003125DE2050812596440E30253ED
:105963000D902674E493F8E508C3982274F61203A5
:1059730084120E788A088B09A808A909E849600AE5
:10598300E8240DFAE93400FB80047A007B00024D21
:105993002174F41203848A0A8B0BECFEEDFF750865
:1059A30000750900802EE50975F017A4F8A9F01217
:1059B3005DCD601EE5091259EA650A7004A3E0652E
:1059C3000B700375080AEEFCEFFD125C896003435C
:1059D30008A00509902674E493F8E509C3985004D8
:1059E300E50860C2022CBE75F017A4F8A9F012599D
:1059F300F522743228F582740A39F583E022F582A0
:105A0300EF123EE7E42212314A120CB0221258324E
:105A1300A3A3A3A3A3A3A3A32274F21203848A08B8
:105A23008B09ECFEEDFF740E120AFF125548750C3C
:105A3300007C007D01801012139AE50CF5F0EA84D6
:105A4300ACF0750C007D00780079008003125BC612
:105A5300125C224003025AE8E8FAE9FBEA75F01700
:105A6300A4FA85F00D75F017EBA4250D125BFE70FB
:105A730003A3E0F460D7125BDC65087004A3E06560
:105A83000960CA125BDC6E7003A3E06F60BF125B38
:105A9300DC650A7004A3E0650B60B2E8FAE9FBEA8F
:105AA30075F017A4FA75F017EBA4250DFB74402AC3
:105AB300F582740A125BBD509474016D050C608D00
:105AC300E50CC39C4087E875F017A4F8AAF075F0BD
:105AD30017E9A42AF9743228F582740A39F5831276
:105AE30050C7025BBA780079008003125BC6125C70
:105AF3002F4003025BA1E8FAE9FBEA75F012A4FA6E
:105B030085F00D125C0E64FE7003A3E0F460DC12FA
:105B13005C0465087004A3E0650960CF125C046E41
:105B23007003A3E06F60C4125C04650A7004A3E011
