:020000040000FA
:06000000020A3C0201C6E9
:03002B0002088741
:030033000206A31F
:0300430002073C75
:030053000200F7B1
:03006B0002068901
:1000830002015B0101FF01010503010F10FEFFCC1B
:1000930012CC12CC12CC1288118211CC12B02D00CA
:1000A300000000EC2C000000000C0000000C00011C
:1000B30004FFFF414C44323533302044485431313E
:1000C300000102007605000000E905640002020059
:1000D300080000050207051E02051E020A0A03B8EE
:1000E3000B02803E0102F1FF141F00E00796511836
:1000F30000020206C0E074F21203DFA2AFE433FE93
:10010300D2AFE5A7FFE5A1F5085F54106006121A08
:10011300A675A1EFE5085F54086008121AAC75A133
:10012300F7802BEFA2E0C0D0E508A2E092F012091D
:1001330063158182F05017906198E0F8900AC7E048
:10014300C398A2D265D0335002E8F075A1FEEEA2A7
:10015300E092AF7F0102043EC0E074F21203DFA21B
:10016300AFE433FED2AF9061A4E0F8759B00E59154
:1001730058540860087591F7121AF4802AE59158CB
:10018300541060087591EF121AFA801BE8A2E0C0C0
:10019300D0E591A2E092F0120963158182F0500735
:1001A300E0C2E0F0121C3E9061A3E0F8E5E9585488
:1001B30004600E121C1475E9FB906193E0A2E64003
:1001C300F2808BC0E074F21203DFA2AFE433FED2FD
:1001D300AF9061A5E0F8E5BF585404600675BFFB16
:1001E300121C56020151C3E498F8E499F912022A49
:1001F3008026C3E49AFAE49BFBE920E7E912022A8A
:10020300E498F8E499F922C3E498F8E499F912021E
:100213002AE498F8E499F9C3E49AFAE49BFB22EB05
:1002230020E7CFE920E7E0B90010BB0008E88AF037
:1002330084F8AAF022E4FBC8FA22EB70227B10C8F0
:1002430033C8C933C9335007C39AC3DBF280069A54
:1002530050012ADBEAC833F4C8C933F4C9FA22755A
:10026300F008E4C833C8C933C933C99AC99B5004D9
:10027300C92AC93BD5F0ECFBC833F4C8E4C9FA2258
:10028300080808EAC0E0EBC0E086F0E7A4FA180922
:1002930086F0E7A42AFA180986F0E7A42AFA1809CF
:1002A30086F0E7A42AFA1986F0E7A4FBE5F02AFA18
:1002B300190886F0E7A42BFBE5F03AFA190886F053
:1002C300E7A42BFBE5F03AFA18180986F0E7A4C572
:1002D300F02BFBE43AFA1908E7C5F0C6A426F6E5C5
:1002E300F03BFBE43AFA1886F0E7A4F6E5F00826BB
:1002F300F6E43B08F6E43A08F6D0E0FBD0E0FA2255
:10030300E4CFC0E0E4CEC0E0E4CDC0E0E4CCC0E0A4
:1003130075F020C3E633F608E633F608E633F6084D
:10032300E633F6181818EC33FCED33FDEE33FEEF2D
:1003330033FFC3EC9709ED9709EE9709EF97191966
:1003430019400FFFEC97FC09ED97FD09EE97FE1995
:100353001906D5F0BEECF709EDF709EEF709EFF74B
:10036300191919D0E0FCD0E0FDD0E0FED0E0FF2267
:100373002518C582C0E0E51934FFC583C0E0E51840
:10038300C3958224F810AF088583198582188008E5
:10039300858319858218D2AFCEF0A3E520F0A37828
:1003A30008E608F0A3DEFAEFF0A3E58124FAF8E605
:1003B30008F0A3E608F0A3E608F0A30808E608F0AF
:1003C300A3E608F0A315811581D0E0FED0E0F8156F
:1003D3008115811581E8C0E0EEC0E022C0D0251868
:1003E300C582C0E0E51934FFC583C0E0E518C395B5
:1003F3008224F310AF0885831985821880088583CA
:1004030019858218D2AFC8F0A3E9F0A3EAF0A3EBF1
:10041300F0A37908E709F0A3D8FAECF0A3EDF0A371
:10042300EEF0A3EFF0A3D0E0F0A3D0E0F0A3D0E090
:10043300F0A3E520F0A3E5F0F0A322851983851846
:1004430082E0C0E0A3E0F9A3E0FAA3E0FBA378080D
:10045300E0F608A3DFFAE0FCA3E0FDA3E0FEA3E0DF
:10046300FFA3E0C0E0A3E0C0E0A3E0F5D0A3E0F584
:1004730020A3E0A3F5F010AF0885831985821880C7
:1004830008858319858218D2AFD082D083D0E0F853
:10049300D0E032120A9EB900030204D8E4900301AB
:1004A300788E790E8002F0A3D8FCD9FA90108EAA28
:1004B30082AB83900086787279018015E493A3ACB4
:1004C30082AD838A828B83F0A3AA82AB838C828DD5
:1004D30083D8E9D9E77582A47583FC74011207FFF9
:1004E3007582EA75831E74001207FF150075F010FC
:1004F3008E1A8F1B85821F85831E8518828519831B
:10050300E0CEA3E0CF851F82851E83EBC9EAC8ED49
:10051300CBECCAC3E833C8E933C9EA33CAEB33CBFC
:10052300C3EA9EF51DEB9FF51CB35004AB1CAA1D3B
:10053300EC33CCED33CDD5F0DAAE1AAF1B22D0833A
:10054300D082ECC0E0EDC0E0E493A3FCE493A3FD10
:10055300ED4C600D120619EC24FFFCED34FFFD8019
:10056300EFE493A3FCE493A3FDED4C600D1206E7C7
:10057300EC24FFFCED34FFFD80EFD0E0FDD0E0FC88
:10058300E493A3C0E0E493C0E02285198385188235
:10059300E0A3FEE0A3F5207808E0A3F608DFFAE085
:1005A300A3FFE0A3C0E0E0A3C0E0E0A3C0E0E0A3BA
:1005B300C0E0E0A3C0E010AF0885821885831980EE
:1005C30008858218858319D2AFD083D082020805AB
:1005D300D083D082E9C0E0E493A3C386F0C5F0954D
:1005E300F0F908E493A386F0C5F095F0700BE4935B
:1005F300A3C3994005E9048002A3E475F002A4258E
:1006030082F582E5F03583F583D0E0F9E493A3C066
:10061300E0E493C0E022C0E0C3E49396087401933E
:100623009618400FE4936670080874019366187077
:10063300007019A3A3C3E49396087401939618A3B7
:10064300A3400DD0E0D0E0D0E002057DA3A3A3A397
:10065300A3A3D0E0227404800474028000CCC0E021
:10066300EDC0E0E518C39CCCAD1950011D10AF06D9
:100673008C188D1980068C188D19D2AF120781D072
:10068300E0FDD0E0FC22C0E074F21203DFE589A2B2
:10069300E15003121950758900C2C57F0102043E5F
:1006A300C0E074F21203DFE58BA2E050031219508D
:1006B300758B00C2E880E474028000CCC0E0EDC01A
:1006C300E0E518C39CCCAD1950011D10AF068C1882
:1006D3008D1980068C188D19D2AF12075FD0E0FDFB
:1006E300D0E0FC22C0E0C0F088F0E4936670080814
:1006F30074019366187000A8F0A3A3700BD0F0D018
:10070300E0D0E0D0E002057DA3A3D0F0D0E022D07A
:1007130083D082CCC0E0E493A360061207C11470B7
:10072300FAE493A360061208D11470FAD0E0FCE453
:1007330093A3C0E0E493C0E022C0E074F21203DFAD
:10074300A2AFE433FED2AFC2C0E5D1A2E45003129C
:100753001A1CEEA2E092AF7F0102043ECAC0E0E49D
:1007630093A3C582CCC582C583CDC583F0A3C582BF
:10077300CCC582C583CDC583DAE5D0E0CA22CAC021
:10078300E0E0A3C582CCC582C583CDC583F0A3C5F4
:1007930082CCC582C583CDC583DAE6D0E0CA227098
:1007A30009080808226016181818C6C333C608C6F5
:1007B30033C608C633C608C633C6D5E0EA22C0E04E
:1007C300E493A3D39C5010E493A3C39C400AD0E0CA
:1007D300D0E0D0E002072FA3A3A3D0E022C008C338
:1007E300E096F50808A3E096420808A3E0964208BD
:1007F30008A3E09645087001D3D00822C09FF59F57
:10080300E473D09F22D083D082C09FE493C0E0746E
:100813000193C0E0740293F59F222518F58210AF6F
:1008230008F518400215198008F51840021519D269
:10083300AF851983227404800A74038006740280CE
:10084300027401C0E0F40412081DD0E0120A7922F8
:10085300C0D0251810AF08F518500205198008F507
:100863001850020519D2AFD0D022BB0102E722C033
:1008730082C08389828A83BB0003E08002E493D031
:1008830083D08222C0E0C0D0E8C0E0E5A8D2AFC2E6
:10089300C7A2E792AFD0E0F8D0D0D0E0326016081C
:1008A3000808C6C313C618C613C618C613C618C687
:1008B30013C6D5E0EA22C3E0C696F608A3E0C696BF
:1008C300F608A3E0C696F608A3E0C696F622C0E0B3
:1008D300E493A36C7009D0E0D0E0D0E002072FA32B
:1008E300A3D0E022251810AF08F51840021519808F
:1008F30008F51840021519D2AF22E76670100809EF
:10090300E766700A0809E76670040809E76622E0EB
:1009130066701008A3E066700A08A3E06670040816
:10092300A3E06622C3E09608A3E09608A3E0960836
:10093300A3E096A2D265D03322C3E096F008A3E0E9
:1009430096F008A3E096F008A3E096F022E026F0E4
:1009530008A3E036F008A3E036F008A3E036F0225F
:10096300C0E0E8C0E0E58124FCF8E6A2E7D0E0F8C7
:10097300D0E022E647F60809E647F60809E647F617
:100983000809E647F622E026F608A3E036F608A3B0
:10099300E036F608A3E036F622E627F60809E6373E
:1009A300F60809E637F60809E637F622E657F608A9
:1009B30009E657F60809E657F60809E657F622E06E
:1009C30056F608A3E056F608A3E056F608A3E05649
:1009D300F622E056F008A3E056F008A3E056F0082C
:1009E300A3E056F022700422600D18C6C333C60874
:1009F300C633C6D5E0F41822E4C396F608E496F6A7
:100A030008E496F608E496F622C6F4C608C6F4C6C9
:100A130008C6F4C608C6F4C622C3E7960809E796D3
:100A23000809E7960809E79622C3E09608A3E0962B
:100A330008A3E09608A3E0962275D000758140755F
:100A4300180175190300020496E0F608A3E0F608FE
:100A5300A3E0F608A3E0F622600C08C6C313C61889
:100A6300C613C6D5E0F422E6F008A3E6F008A3E631
:100A7300F008A3E6F022CAC0E0E6F0A308DAFAD051
:100A8300E0FA22E0FAA3E0FBA3E0FCA3E0FD22EA04
:100A9300F0A3EBF0A3ECF0A3EDF022E5C754F84488
:100AA30001F5C77901222518F582E43519F583226A
:100AB300C2AF75D69F02000022120808D7DF0212C8
:100AC3000808B9E0021208080EE3021208085BE402
:100AD30002120808FEE40212080845E6021208089A
:100AE30063E6021208089D2F00120808AF2F0012B8
:100AF3000808013000120808623000120808EC30C0
:100B030000120808903100120808E43100120808A6
:100B1300FD31001208082332001208085E32001269
:100B23000808A23200120808C932001208081A3352
:100B330000120808CA330012080882340012080899
:100B43004A35001208080A36001208084E36001209
:100B53000808733600120808B6360012080803376F
:100B6300001208085B3800120808E1380012080870
:100B7300FF38001208082939001208084339001207
:100B830008085239001208085D39001208081D3A96
:100B930000120808763A00120808383B00120808C9
:100BA300403B00120808043C00120808703C001285
:100BB30008089B3D00120808C03D00120808363E95
:100BC30000120808C83E00120808883F00120808EF
:100BD300A73F00120808B64000120808C8400012D8
:100BE3000808384100120808624100120808F04161
:100BF300001208082942001208087542001208086A
:100C0300914300120808DA4500120808E54500126E
:100C13000808F04500120808FB45001208080546BD
:100C2300001208081046001208082A460012080895
:100C33003446001208083E460012080849460012CE
:100C43000808714600120808CC4600120808D64668
:100C530000120808FA46001208081E470012080886
:100C63007C4700120808C04700120808DC4700123E
:100C730008085348001208088B4800120808D74890
:100C830000120808344900120808EE490012080847
:100C9300D24B001208082B4C001208085B4D0012BF
:100CA3000808814D001208080A4F001208088652EE
:100CB30000120808585400120808215600120808A8
:100CC300CE5600120808395800120808D8580012E6
:100CD30008081D5900120808875900120808965978
:100CE300001208081D5C00120808CF5D00120808F6
:100CF3003C5E001208081B5F0012080834600012F3
:100D03000808B16100120808D061001208082562C2
:100D1300001208082A630012080852630012080828
:100D2300AA6300120808896400120808CD6400123F
:100D33000808186500120808836500120808C466CD
:100D430000120808286700120808766800120808CD
:100D5300D66A00120808076B00120808BF6C00125D
:100D63000808146D00120808186E00120808B56E02
:100D7300001208080E6F00120808C16F001208085D
:100D8300637000120808037100120808A8710012AA
:100D93000808D681011208081582011208085C842C
:100DA30001120808A68401120808C1850112080867
:100DB3002986011208085E8601120808D2870112EB
:100DC3000808558A011208087E8B01120808148C42
:100DD300011208081C9501120808B19501120808B0
:100DE3009898011208088B9901120808F9990112C1
:100DF30008083F9B01120808219C01120808069E5F
:100E03000112080817A00112080881A0011208089E
:100E130053A10112080881A1011208083EA2011280
:100E2300080815A301120808DCA30112080880A40E
:100E330001120808A9A401120808CBA4011208088A
:100E430021A701120808F9A7011208083DA80112F9
:100E53000808A5A8011208085DA9011208088FA9AE
:100E630001120808D3A90112080809AA01120808E7
:100E730055AA01120808AAAA01120808AFAA01126A
:100E8300080802AB0112080827AB0112080836ACA8
:100E9300011208089AAC011208080AAD01120808E9
:100EA30096AD0112080863B00112080847B1011298
:100EB3000808CAB20112080800B501120808AEB545
:100EC300011208085EB6011208089FB8011208084B
:100ED30042B90112080889B90112080835BB011289
:100EE300080849BB0112080853BB011208087BBB61
:100EF3000112080887BB01120808A6BB01120808E3
:100F0300C6BD0112080815BF0112080859BF011216
:100F1300080801C001120808E4C0011208088FC1C3
:100F230001120808DBC201120808D9C3011208081C
:100F33007FC4011208080FC50112080826C5011253
:100F430008085DC50112080867C50112080872C5C3
:100F53000112080890C501120808D4C50112080837
:100F630031C60112080856C60112080870C60112DC
:100F73000808FCC60112080819C80112080886C827
:100F8300011208086DC90112080894C90112080862
:100F930008CA0112080883CA0112080887CB011284
:100FA30008087DCC011208082CCD011208083FCE99
:100FB30001120808DBCE0112080868CF01120808E5
:100FC30046D0011208087ED001120808D6D00112BB
:100FD30008089FD101120808C0D10112080847D29E
:100FE300011208086BD2011208088DD201120808F9
:100FF300D6D201120808ECD401120808D3D5011285
:10100300080884D601120808BAD8011208080AD9B8
:10101300011208084AD9011208088CD901120808DC
:10102300E8D90112080816DA011208083ADA01129F
:1010330008088DDA01120808BBDA01120808F4DA8D
:101043000112080849DB01120808AFDB0112080886
:1010530003DD0112080826DF0112080893DF0112DD
:101063000808BCDF0112080847E001120808AEE0D7
:1010730001120808F9E0011208081DE1011208082D
:1010830041E1011208089CE101120808B7E10112CD
:10109300080870E201120808FA8704120808398860
:1010A30004120808788002120808BE800212080899
:1010B3009E8102120808A08202120808A38302126A
:1010C30008082F85021208088D85021208084A862F
:1010D30002120808688702120808D9870212080852
:1010E3001588021208086388021208086D88021224
:1010F3000808B188021208080D8902120808A88995
:1011030002120808258A02120808F48A0212080843
:101113008D8B02120808AD8B02120808E38B0212B2
:101123000808148C02120808D58C02120808E58CF2
:1011330002120808398D02120808548D0212080899
:10114300668D021208086F8D02120808C98D0212FB
:101153000808258E02120808718E021208088C8E68
:1011630002120808BD8E02120808DA8E021208085D
:10117300E68E021208085A900212080873900212AF
:101183000808DA9002120808ED9002120808FB9092
:1011930002120808AF91021208089392021208087B
:1011A3009993021208082394021208082D9402123C
:1011B30008089A9402120808B19402120808E394EA
:1011C300021208081C950212080846950212080824
:1011D300A79502120808C79502120808E59502129E
:1011E30008082B96021208085197021208089E97C6
:1011F30002120808CD970212080843980212080841
:101203006B9802120808A49802120808B2980212F6
:1012130008080A99021208085999021208089899AD
:1012230002120808C89902120808F4990212080861
:10123300FF99021208081D9A02120808DF9A021287
:101243000808E99A021208082A9B021208087F9BE1
:1012530002120808939B02120808A19C02120808B4
:10126300B49C02120808C99C021208086B9D021262
:101273000808EE9D02120808AC9E02120808B79EE9
:1012830002120808E39F02120808FF9F02120808CF
:1012930051A00212080890A002120808A5A0021289
:1012A300080807A10212080896A102120808E1A182
:1012B3000212080832A402120808B0A40212080895
:1012C30025A50212080847A7021208085FA7021201
:1012D300080862A7021208086EA70212080882A76C
:1012E300021208088AA702120808BDA702120808FA
:1012F3006DA802120808E3A80212080856A90212F0
:1013030008080AAA02120808BFAA02120808DEAADD
:101313000212080884AB02120808AFAB02120808D5
:10132300B2AB021208081CAC0212080844AD021248
:1013330008081CAE02120808A7AE02120808C0AFC4
:10134300021208087DB002120808B6B0021208089B
:10135300E7B002120808A5B102120808D5B10212BB
:101363000808B0B20212080849B302120808D4B33D
:101373000212080885B40212080808B50212080808
:101383003AB5021208087BB502120808409A031204
:101393000808A59A03120808E29A03120808319B69
:1013A30003120808479D031208082A9F031208081E
:1013B30094A203120808CFA203120808F1A2031291
:1013C300080854A30312080888A303120808ABA350
:1013D30003120808D8A30312080834A40312080848
:1013E3007B8E03120808F98E031208082F8F03124D
:1013F30008089B8F031208080E91031208082A910C
:10140300031208086F9103120808FD9103120808DC
:101413005692031208088393031208089594031243
:10142300080886D6021208085E9503120808BF95BD
:1014330003120808009603120808AD960312080861
:10144300BF9703120808EA97031208083598031296
:1014530008087C98031208080E9903120808C99912
:101463000312080828FC0312080858FC0312080892
:10147300ADFC031208080EEC03120808BBDF0212CE
:10148300080894EC03120808B5EC0312080880A4BA
:10149300031208088AA403120808D6A40312080832
:1014A30044A50312080865A50312080815A603122C
:1014B3000808A9A803120808B2A80312080805A976
:1014C300031208082EA90312080895A90312080895
:1014D30026AA0312080868AA03120808B2AA03126C
:1014E300080811AB031208083DAB03120808CEAB82
:1014F300031208080DAC031208084CAC03120808C9
:1015030081AC0312080893AC03120808A5AC0312BC
:101513000808C4AC03120808CDAC0312080883AD55
:1015230003120808C3AD031208081B7F0012080842
:101533002DF60312080863F603120808ACF603122B
:101543000808FCF7031208088AE602120808C9E72C
:101553000212080805E802120808C4E90212080882
:10156300EDE90212080880EC02120808C4EC02122A
:1015730008084DEE02120808E5EE021208084DEFC6
:1015830002120808EEEF0212080830F002120808EF
:1015930070F002120808FBF1021208086BF3021242
:1015A300080890F502120808BEF502120808E5F5CE
:1015B30002120808EEF50212080875F6021208086E
:1015C30093F9021208089B8904120808B1890412CE
:1015D3000808AF8704120808A9E803120808BCE842
:1015E3000312080859E90312080894E903120808CA
:1015F300AFE903120808D4E90312080819EA031231
:1016030008084AEA031208087BEA0312080801ECF7
:10161300031208086181041208089781041208085C
:10162300B38104120808F581041208080582041224
:1016330008089A8204120808A48204120808BC82CB
:1016430004120808E2D5031208089CD603120808FE
:101653004CD70312080891D70312080821D80312A4
:10166300080897D803120808F47100120808497291
:1016730000120808327300120808CB73001208081E
:101683001574001208087274001208088674001298
:101693000808B87400120808B67500120808FA752D
:1016A300001208081576001208086476001208086C
:1016B3007A7600120808877600120808BB760012B3
:1016C3000808D476001208089E7700120808F877F5
:1016D3000012080846780012080868780012080803
:1016E300DF7A00120808147B00120808A47B00129A
:1016F3000808197C001208081E7C001208085A7C8E
:1017030000120808B07C00120808747D0012080853
:10171300997D00120808A37D00120808A67D001217
:1017230008082F7E001208084A7E001208085D7E12
:1017330000120808987E001208089B7E0012080811
:10174300A67E00120808E27E0012080895FF031225
:101753000808ADFF0312080836C00312080885C045
:101763000312080827C203120808E5C30312080876
:101773002DC4031208084FC50312080880C60312BC
:101783000808A2C603120808FEC60312080880C789
:1017930003120808AAE201120808CBE201120808A2
:1017A30055E301120808DAE30112080856E40112AE
:1017B3000808BFE4011208080BE5011208088AE5CE
:1017C300011208081CE601120808A8E6011208081D
:1017D300EAE60112080856EB01120808D6EC0112DA
:1017E3000808ACED01120808DBED01120808C6EF8A
:1017F3000112080846F201120808FFF20112080854
:101803001CF40112080873F70112080883F7011288
:101813000808E4F80112080870F90112080899FA97
:10182300011208088AFB011208080CFC01120808BF
:10183300008003120808BA80031208082C810312DF
:101843000808C88103120808388203120808F184C3
:1018530003120808C885031208083586031208080E
:10186300B287031208087C8803120808EC88031265
:101873000808B58A03120808C88B03120808618C8C
:1018830003120808278D0312080805DE031208084F
:1018930059DE03120808B1DE03120808FCDE031246
:1018A30008085EDF03120808CADF031208087DE098
:1018B30003120808BEE003120808D4E00312080864
:1018C30030E1031208086EE10312080847FA031215
:1018D300080878FA0312080832FB0312080898FB79
:1018E300031208082FFD01120808BBFE01120808A5
:1018F300268904120808378904120808DDFD03123B
:101903000808EBFD03120808BB89041208081987AD
:1019130004120808298704120808448704120808D7
:10192300A587041208081786041208089C86041267
:10193300080800870412080805850412080827858B
:10194300041208089185041208089C8504120808EB
:10195300E0850412080828B70312080836B70312F3
:10196300080877B70312080898B70312080815B8D0
:101973000312080870B80312080870B903120808A4
:1019830092B903120808F5B90312080810BA031232
:1019930008082BBA0312080835BA031208083FBA1D
:1019A3000312080852BA031208086BBA0312080894
:1019B30007BB03120808C3BB0312080843BC031286
:1019C3000808BDBC0312080809BD03120808B0BD0E
:1019D300031208088CBE031208089FE103120808CB
:1019E300ADE10312080827E2031208080BE3031210
:1019F3000808C4E40312080879890412080814FAD1
:101A03000212080880FA021208083FFB02120808B3
:101A130049FC02120808A2FD02120808FDFD021289
:101A2300080852FE021208085BFE021208086DFE47
:101A330002120808D7FE02120808EBFE0212080879
:101A4300F5FE0212080871CC03120808C6CC031273
:101A53000808C2CE03120808F4CE0312080816CFF2
:101A6300031208082FCF0312080848CF03120808EF
:101A730052D003120808EDD00312080800800412A4
:101A830008082480041208083D80041208087080A6
:101A930004120808A18004120808CF800412080861
:101AA3003181041208084081041208084A81041293
:101AB3000808578104120808DAEE0312080800EF39
:101AC300031208083DEF031208084CEF031208083D
:101AD3006BEF03120808D3EF03120808DCEF0312BD
:101AE30008083BF0031208085FF0031208081EF110
:101AF300031208082BF1031208083CF1031208082B
:101B0300878804120808A4880412080864D1031201
:101B13000808C2D203120808CFD203120808E2D27F
:101B23000312080801D30312080817D30312080885
:101B33002BD303120808A0D30312080805D40312F9
:101B43000808B5D4031208088AD5031208089AD5E1
:101B530003120808A9D50312080810FF0212080887
:101B630034FF021208085CFF0212080884FF021205
:101B730008086AF10312080891F103120808B2F188
:101B83000312080817F203120808D0F30312080817
:101B9300E9F303120808F5F30312080809F4031222
:101BA300080827F40312080831F4031208083BF469
:101BB300031208084EF403120808A1F403120808DC
:101BC300DAF40312080809F50312080857F503129B
:101BD3000808A6F503120808C1F503120808CBF597
:101BE30003120808DCF50312080822F6031208089A
:101BF300A9FF02120808ECAD0312080816AE03127F
:101C0300080832AE0312080845AE031208085BAE9B
:101C130003120808B8AE03120808EBAE0312080853
:101C230027B3031208084DB40312080880B4031243
:101C33000808CCB403120808F8B50312080820B644
:101C43000312080835B60312080845B6031208083C
:101C530089B603120808EAB603120808FAB6031293
:101C63000808BF8204120808DA82041208080383F2
:101C7300041208081D83041208084283041208088A
:101C8300618304120808798304120808A7830412E5
:101C93000808C1830412080843880412080829E5C8
:101CA3000312080830E5031208083CE6031208088B
:101CB3006CE60312080892E603120808B5E603125D
:101CC3000808D7E60312080811E70312080877E7A4
:101CD30003120808B0E703120808FCE70312080818
:101CE30029E80312080849E8031208085FF80312F9
:101CF300080877F80312080865F90312080844FA7C
:101D030003120808F2830412080864840412080802
:101D1300A28404120808E3840412080844DA0312B4
:101D2300080863DA03120808B2DA03120808CEDAE5
:101D330003120808FFDA031208080CDB0312080871
:101D430019DB0312080805DC0312080843DC03123D
:101D5300080853DD031208085EDD0312080870DD6E
:101D63000312080879DD0312080883DD031208084B
:101D7300B4C703120808F9CB0312080807CC0312EF
:101D83000808F98804120808C3880412080851894E
:101D930004120808E2FF03120808DAD50212080841
:101DA30020D402120808D0D10212080857D1021217
:101DB3000808FED0021208088ED00212080865D067
:101DC3000212080845CE0212080811CE02120808B2
:101DD300DECD02120808C2CD02120808DBCC0212C3
:101DE300080893CC02120808DECA021208085ECA69
:101DF300021208085BCA0212080858C9021208082E
:101E030026C90212080863C8021208088EC6021205
:101E130008081FC602120808F1C5021208083FDFAE
:101E230002120808F6DE02120808AEDE02120808E3
:101E3300FCDD021208086EDD02120808EEC502126C
:101E43000808DBC50212080886C50212080861DD0E
:101E53000212080875C50212080867C402120808AE
:101E630031C402120808DFC3021208085BDA021247
:101E7300080889EC0312080880C3021208084FC33C
:101E83000212080817C002120808D7BF0212080876
:101E9300CBBF021208082BBF021208086BBE021246
:101EA3000808EDBB021208087EB9021208083CB903
:101EB3000212080810B802120808C5B7021208086F
:101EC30004B702120808D7B6021208081AB602129B
:101ED3000808B0B502120808EAB502120808BDD70F
:101EE30002120808F2940300000080FBE473000070
:101EF3004FF8280802208410488800802FF821C05A
:101F030042A042A084908888008022082248224868
:101F13002248FA4822482248224822483A48E248BE
:101F230002480208040804000200FFF8020002004D
:101F33007FF04210421042104210421042700200E1
:101F4300020004000200FFF8800884080400FFF880
:101F5300084010403C80030004C01820E01001102A
:101F6300FCA0480049F07840484048407BF848408E
:101F730048405CA0E8A009100A08108027F84080B8
:101F830097F01550255067F0A00027F0210020900E
:101F93002A882A2831E000200D2070A010A01220EA
:101FA300FD20112030383BE05420902010201020D9
:101FB3001020208020802080F7F02080208027E0E0
:101FC3003220E2202140208021402220EC18000012
:101FD3003FF82108210821083FF8210821083FF88C
:101FE30021082108410841088038020001003FF818
:101FF3002008200820083FF82008200020002000A7
:1020030040004000800001207D40049028A0104043
:102013002FA040189FC0104010401FC010400880E0
:10202300FFF800007FE000203FE00020FFF80200FF
:10203300222013400A8012402220C2180E002100E1
:1020430021102110F920A940A900ABF8A940A9400B
:10205300A920B9202150218821003FE02020202001
:102063003FE000000000FFF8080010003FE0002000
:102073000020002000C00200FFF8800804405290B6
:10208300510892280FE03000C200222022203FE0B6
:102093000020000007E0F8202220222042207BF8C5
:1020A300C80848084FE84808780848080030010085
:1020B30001F0FA10242023F842487A48CBF84A4822
:1020C3004A484BF87A484248041804000200FFF8D3
:1020D300800800003FE002000200220023E022000B
:1020E300220052008FF80000FC004BF049107910D9
:1020F3004910491078A048A04E40F84008A00910A4
:102103000A080080449022A0108007F08410441035
:1021130017F01410241027F0441044100470020028
:1021230002007FF004000400FFF8080010003FE005
:10213300002000401C800300008008800880088085
:1021430088904890489028A028A028C0088008803C
:1021530008800880FFF8020002007FF004000400FA
:10216300FFF8080010003FE0002000401C8003003F
:10217300008001004080200017F0008080804080B4
:10218300008017F010802080208040804FF80000EE
:102193007FF00200020002000200FFF805000500C4
:1021A300090011002108410880F820A020904880F0
:1021B30048F0F380108020B843C0F89000A0004896
:1021C30018A8E318000847F0212020C007F0049066
:1021D300E49027F02490249027F0249024B050001A
:1021E3008FF840002FE0222002200220E2202FE07F
:1021F3002220222022282A2832282218020840508E
:102203002048204007F8E44024482748255025501B
:102213002D2035282B6808981108110010802FF8FD
:10222300200067F0A00027F0200027F024102410DE
:10223300241027F024100400020000007FF00000A7
:10224300000000202020104010400880088001007A
:10225300FFF800003FE02020202020203FE0020084
:102263000200220023F02200220052008FF81010F7
:10227300101028102490429080907C9044904490B9
:1022830044905810421042103E70201810E0FE8017
:1022930044802880FEF800901090FE901090549097
:1022A3009290111072100080FE80108024F8431069
:1022B300FE9012901090FEA010A010401EA0F110EE
:1022C3000208000047E02000200000000FF0E24079
:1022D3002240224022482448283850008FF800002A
:1022E300F3E012201220F3E0808087F08490F490D2
:1022F30017F0108010901FF860080200020002001F
:102303000200FFF8020005000500050008800880B0
:1023130010402020C0183FF82080210027F024100F
:1023230027F0241027F020802490248848884080B8
:10233300838007E04420242007E08420442007E032
:1023430020002FF04A504A508A508A501FF800004C
:102353004FF0281008108FF0481008102FF022407B
:1023630052484A50866082401FF8020001003FF83D
:1023730024203FF8242027E020002FF024202240AF
:102383004180466098182100210041E09220F540E9
:10239300208041408220F418018000603300C0C0D7
:1023A3000020204012481248FA4803F808008BF82E
:1023B300488053F852A802A81AA8E2A802180000FD
:1023C30000000000000000000000FFF80000000013
:1023D30000000000000000000000000000007FF08B
:1023E30000000000000000000000000000000000EA
:1023F3000000FFF8000000007FF000000000000074
:10240300000000003FE000000000000000000000AA
:10241300FFF800007FF8448844884488448844884F
:10242300448844884878500840087FF84008108062
:102433001FF8100027F0241067F0A0002FF82808D9
:1024430027F020402040204021C00200020002006B
:1024530002107B200B400A8012801240222042107F
:10246300820802000E000200020002007FF0421008
:1024730042107FF0421042107FF04200020802082F
:1024830001F810407FF002003FE00400FFF808006D
:102493001FE030205FE090201FE010201FE00200CB
:1024A3000200020022102210222045408500050070
:1024B3000880088010402020C018103091C0D5003B
:1024C300B9009100FDF89120B920D52095209120E5
:1024D30091208220FC2000007FF8400842285328E6
:1024E3004AA8444844484AA84AA8510862084008F0
:1024F300403820802080249024B0F5D02E90249062
:102503002490249024B03480C408040803F82040A5
:10251300204020402040FA4022782240224022409E
:1025230022403A40E24002400FF8210021002100FE
:10253300FBE02120212021202530252829282220C5
:102543002220242028C0400027F824880488E5E8B6
:10255300248827F8240825E82D28352825E80408A9
:1025630008387DF0451045107DF000400220FFF84B
:1025730008803060C0187DF0451045107DF0008064
:10258300788048F049104AA0784010A053185C00A6
:1025930051F051105D10E1F0011002000200020041
:1025A3007FF042104210421042107FF0421042105E
:1025B300421042107FF00000000000000000000005
:1025C30000001800180000000000180018000000A8
:1025D30000006000900097E86818100810081000C9
:1025E3001000100010001008081007E00000180089
:1025F300240824102420244024801900026004901D
:1026030008901090209040900060000000000000AF
:102613000000000000000000000010101010101057
:1026230000003030000000142850000000000000BB
:10263300000000000000002828FC284850FC5050EF
:10264300000000001038545430181454543810004B
:1026530000000044A8A8B0541A2A2A44000000002D
:102663000020505060ACA898927C0000006060206D
:10267300C000000000000000000000040808101063
:10268300101010100808040000004020100804086F
:102693001020400000000000001010D63838D6107B
:1026A30010000000000000101010FE1010100000B9
:1026B300000000000000000000000000606020C077
:1026C300000000000000FC0000000000000000000B
:1026D300000000000000000060600000000204042D
:1026E3000408081010202020400000000030488417
:1026F300848484844830000000000010701010109F
:102703001010107C0000000000384444040810201E
:10271300447C000000000038444418040444443856
:1027230000000000080818284848887C081C00009E
:102733000000007C4040784404444438000000001A
:10274300003C4480B8C48484847800000000007C8A
:102753004448081010101010000000000078848412
:102763004878848484780000000000788484848C12
:10277300740488F000000000000000303000000006
:1027830030300000000000000000100000000010C6
:10279300102000000408102040201008040000004E
:1027A3000000000000FC0000FC000000000000002E
:1027B3004020100804081020400000000000788426
:1027C3008484081010003030000000000038449A60
:1027D300AAAAAAB4423C000000000010102828282E
:1027E300384444EE0000000000F844447844444474
:1027F30044F800000000003C44848080808044381A
:102803000000000000F048444444444448F0000001
:10281300000000FC44404878484044FC00000000AD
:1028230000FC42404878484040E000000000003C83
:10283300448480808E8444380000000000EE4444C9
:10284300447C444444EE00000000007C101010104F
:102853001010107C00000000007C101010101010ED
:10286300101090E0000000EE44485070484844EED9
:102873000000000000E040404040404044FC0000B5
:10288300000000EE6C6C6C54545454D600000000ED
:1028930000EE64645454544C4CE4000000000030D7
:1028A30048848484848448300000000000F8444451
:1028B3004478404040E000000000003048848484B5
:1028C30084B448380C00000000F844447850484869
:1028D30044E600000000003C44402018040444780F
:1028E3000000000000FE92101010101010380000BD
:1028F300000000EE444444444444443800000000D3
:1029030000EE44442828282810100000000000D6B8
:10291300545454546C2828280000000000EE442826
:102923002810282844EE0000000000EE4428281058
:102933001010103800000000007C88081020204090
:1029430044FC0000001C1010101010101010101088
:102953001C000070101010101010101010107000D8
:1029630000701010101010101010101070000010D4
:10297300280000000000000000000000000000002C
:10298300000000000000000000FE00606020C000A6
:1029930000000000000000000000000000003844B8
:1029A3001C24443E0000000000C0404078444444DE
:1029B300447800000000000000003C4440404438DC
:1029C30000000000000C04043C444444443E000066
:1029D30000000000000038447C4044380000000040
:1029E300001C2420F8202020207800000000000094
:1029F30000003C48483040784438000000C0404064
:102A03005864444444EE00000000001000007010BD
:102A13001010107C000000000008000038080808AF
:102A230008080870000000C040405C48507048EC43
:102A3300000000000070101010101010107C000037
:102A4300000000000000F854545454D60000000065
:102A530000000000D864444444EE0000000000007D
:102A630000003844444444380000000000000000E3
:102A7300F8444444447840E00000000000003C4433
:102A83004444443C040E000000000000EC302020CD
:102A930020F800000000000000003C4430084478A7
:102AA30000000000000010107C101010100C00003B
:102AB300000000000000CC444444443E00000000F9
:102AC30000000000EE442828281000000000000049
:102AD3000000D654545428280000000000000000D1
:102AE300DC48303048EC0000000000000000EE44F9
:102AF3002828101020E00000000000007C4810107F
:102B0300247C000010101010101010101010101062
:102B1300101000013636010100010201000103011A
:102B23000001040106060502000007010034080144
:102B3300000F090401010D0100FF0E080000170238
:102B43000000190100FF1A0100011B0100FE1C0116
:102B530000081D0200001F010001200100012102E5
:102B630000002301000F24020000260100012701B9
:102B73000008280200FF2A0100072B0102402C0154
:102B830000002D0100012E0100012F0100FF300183
:102B93000B1C310800003A0100083B01000F2F0114
:102BA3000000C9EEDBDACAD0B0B2C1AAB5C2BFC653
:102BB300BCBCD3C3BBA7B5C7C2BCD5CABAC5C3DCEB
:102BC300C2EBC8B7B6A8C8A1CFFBD7A8D2B5D7A8C0
:102BD300D7A2CEDECFDFCDA8D1B6B3CFD0C5C1A2A9
:102BE300D7E3B4B4D0C2D6C2D4B6C7BFB4F3D4AD5E
:102BF300CEC2CAAAB6C8D6D5B6CBD2BBB6FEC8FD1E
:102C0300CBC4CDA3CBAEB5E7D7C5BBF0B6CFCDF81C
:102C1300B5D8D6B7D0ADB5F7C6F7C2B7D3C9A3BA3F
:102C2300A1E6A3A500010171010101010111010147
:102C3300013101010101018001100161013B001417
:102C43000063017301720162014301000113010674
:102C5300013D0135000401120100010001000100E2
:102C63000104010401330133013C01440132013603
:102C7300000001000165010001350081010001052B
:102C8300018201830100010302710230016002111C
:102C93000270020102020202028002100261023A81
:102CA30000410063027302720262024302000213D4
:102CB30002380000020002040212020002000200B5
:102CC30002000204020402370037003C02440200FF
:102CD300023900000200026502000235028102008F
:102CE3000205028202830200020103710301030150
:102CF3000301030103010322030203010310030081
:102D03000300030003000300030003000342030066
:102D13000324030603000300030403120325032310
:102D230003250323030403040300030003000344F4
:102D3300030003000323030003650321003503811C
:102D430003000305030003000300030304710402EB
:102D53000460041104700402040204010402041058
:102D630004610400041404630473047204620443DE
:102D73000400041304060400040004040412040001
:102D8300040004000400045104640000040004006F
:102D93000444040004000400040004650400043532
:102DA3000481046400050400048304000403007127
:102DB30000300160001100700031022003500480D4
:102DC30000100061000000140063007300720062D1
:102DD300004300000013000600000000000400127E
:102DE300000000000000000000040004003700376A
:102DF300003C0244000000000000000000650000E9
:102E0300003500810000000500000083000000364B
:102E1300000100060000000F000000000000000099
:102E2300000000000003FFFF00000403FFFF000099
:102E3300FFFF0FF4010005C4040320000100030B8E
:102E4300000000000000000003010F0000481813F9
:102E530000E817010048180200B2170300B817046E
:102E630000BE170500C4170600D017FFFF000001BE
:102E7300DA0D060A0E08040E0B160E10560D02E0AC
:102E83000D05F80D07E60D0CBC0D0DCE0DFF000072
:102E930003EAF5E5D5D5C5B5A5959585857575651C
:102EA300655555454535352525151505E21112128C
:102EB300E811EE110C120012FA1118121E1224124C
:102EC3003012F411DC11D61100160F00000B150B94
:102ED300020002220F32000006CC12DE12E412AC12
:102EE30011EA12A611B211E610E0101C11221116FC
:102EF30011CE10261344134A132C13381332130C18
:102F03000E020B040B0A0708000F0001191618160E
:102F1300161523030000034948424D1817250502DF
:102F230000383C3E363B3B352B432C3030161819CA
:102F330020231A1C1E30303017181921301B1D1F77
:102F43003006122A123E1336123C121A13F012F6EE
:102F5300120213FC12020402010101010902F21020
:102F6300F810EC102811000000000000FE101011F2
:102F730000BE040A0E0004007F00E8030C002800D2
:102F830000000000090308100C0A030809000400EC
:102F930001FF1E1E0C050408100FC082C0838A8225
:102FA3008B83E0D2E7F0121716024114C082C0836C
:102FB3007900123469126180C082C0839003341295
:102FC3004F06D083D082C3E09CA3E09D500C1268CF
:102FD30054FAA3E0122FE0600109024114FBEA75E1
:102FE300F00BA4FAA8F075F00BEBA428FB900336C2
:102FF300E02AF8A3E03B8882F583E0540F2274F7BC
:10300300120373890812346912350FACF075F00B93
:10301300E9A42CF9900336E028FEA3E039FF7401FC
:10302300650860067402650870208A828B831234F7
:10303300FB1241E274026508701B1233BA12354267
:1030430070138E828F83E4F0800BEA2403FCEB126F
:1030530034DD1234E9EEFAEFFB120AE602414C7456
:10306300F412037312717B79008E828F83E0607692
:10307300890A890B8065E50A75F00BA4FAA8F07537
:10308300F00BE50B122FED7046E50A75F00BA4F873
:10309300AAF075F00BE50B1235218E828F83E08544
:1030A3000882850983123603850882850983A31262
:1030B30041E2EE2403FCEF1234E612411B125BFAE9
:1030C300AA08AB09120AE6790190033412560FE5F8
:1030D3000A2401F50AE50B3400F50B1233C2E50AA5
:1030E3009AE50B9B409002438C74F5120373EAFE3E
:1030F300EBFF740B120AA9124120750A01EC4D6013
:103103002BEC127197ED1261801241DA7901120AE8
:10311300F2E5084509606F850882850983A312716A
:10312300857902AA08AB09120AF2805AE508450913
:10313300602B12618412484E12411C12352C700C04
:10314300EEFAEFFB120AF8E9F50A80CBEE2403FA54
:1031530012346470317903EEFAEFFB80CA8E828FEA
:1031630083A3E064FE7003A3E0F4700BEE24030A70
:103173000A0A123464700CEEFAEFFB120AF8E9F54E
:103183000A8003750A00A90A7F0302058D74F712EA
:10319300037390033412415CEA4B602FEA75F00B22
:1031A300A4FAA8F075F00BEBA428FBEAFEEBFF12E0
:1031B300153C90033612415C90033612545460124E
:1031C300EEFCEFFD79001214A08007900336E4F0C3
:1031D300A3F002414C900334124BBEC3EE98EF9917
:1031E30022C082C083EC4D6005121D1680097C0845
:1031F3007D0079001214A002411474F6120373794E
:1032030000EA4B6018780088081264C7EB12685014
:1032130060047901780808E8C3940840EA0241EBA6
:1032230074F712037374F31208E7ECFEEDFF8518CD
:1032330082851983E4F004120AA9EAF0A3EB125978
:10324300807403120AA9AC82AD83EEFAEFFB120B72
:103253000AEEFAEFFB120B1002414774F7120373E5
:1032630074F31208E7ECFEEDFF851882851983E4F9
:10327300F0EAFCEBFD7403120AA91235FC74011287
:103283000AA91241D68E828F831241E274FE6870BE
:103293000374FF6960047901800279000241477475
:1032A300F7120373EAFEEBFF123300701412330BB1
:1032B3008E828F83E0F4F88A828B83E058F0120ABF
:1032C300E6A90802414C74F7120373EAFEEBFF759B
:1032D30008008E828F83E06022123300701D123348
:1032E3000B8A828B83E08F838E82F8E058700CE028
:1032F300F88A828B83E048F0120AE680C4120AEC53
:10330300E9F508740165082212719012351312341D
:1033130055FAA3E039FB2274F41203738A088B096C
:103323007C007D001233BA1234E912347A127182AE
:103333007900850882850983A3E064FE7003A3E016
:10334300F460717E007F008062EEFAEF122FE0607E
:1033530057EEFAEFFBEA75F00BA4FAA8F075F00B41
:10336300EBA428FB900336E02AF50AA3E03BF50B18
:10337300850882850983A31258CE850A82850B832B
:10338300A3E06A7003A3E06B701EE50A2403FAE569
:103393000B123465700AE50A2403FCE50B1234E6CC
:1033A30012346E7901126196123D591233C2EE9AAC
:1033B300EF9B409502438CEA24030A0A0AEB22900E
:1033C3000334125D6DC32274F31203738A088B09ED
:1033D3008A828B83A3127185123469127182750CF0
:1033E300001233BA12346570547E007F0080491294
:1033F3003447FAA3E0398A82F583E0540F6036122A
:103403003447F50AA3E039F50BE50A2403FCE50B81
:103413001234F03400FB121D10E964017017850AA1
:1034230082850B83A3125E2EA31241E212346E75C2
:103433000C01126196123D591231D840B2A90C7F8A
:103443000502058DEEF8EFF9E875F00BA4F81234D8
:103453005522AAF075F00BE9A42AF9900336E02867
:1034630022EF12353C22127196EB2212347A12614A
:1034730091EEF0A3EFF022E508127197E5092274AB
:10348300F5120373EAFEEBFF8E828F83A31271851D
:103493007C007D00EE24030A0A0AEF1234E9EEFAF7
:1034A300EFFB120AECE9F50A7401650A702912713F
:1034B3009012350FAAF075F00BE9123521850882B9
:1034C300F5831234FB12352C700DE5082403FCE55B
:1034D300091234DD1234E90231893400FDEE24038C
:1034E300FAEF221234F03400FB120B0A223400FDEF
:1034F300E5082403FAE50922A31235002212350454
:1035030022E0F8A3E0F98E828F83A32212351322DF
:103513003400F583124BC2E875F00BA4F822123481
:103523005BF508A3E039F50922E8F0A3E9F0E50823
:103533002403FAE50912353C221235426401223490
:1035430000FB120B10E92274F312037374E61208E2
:10355300E712717B750C01750800750900750A0087
:10356300750B00851882851983E4F0EE2403FCEFC4
:103573003400FD7403120AA91235FCE964017023B7
:10358300740B120AA91241DA7401120AA91258D251
:103593007003A3E0696051851882851983858208C9
:1035A300858309740D120AA9E4123603740E120AF4
:1035B300A91241E2740D120AA9AA82AB83120B2E3F
:1035C300E96401700B740D120AA985820A85830BC5
:1035D300780A120840AC08AD09EEFAEFFB120AFEB6
:1035E3007402120853E9F50CEEFAEFFB120B28A94B
:1035F3000C741A1208530234421238CF120B3422BD
:10360300124157124BBE22C082C0837800790080DA
:10361300031236FA1233C2E89AE99B5029E8FAE911
:10362300FBEA75F00BA4FAACF075F00BEBA42CFBE2
:10363300900336E02AFCA3E03B8C82F583E0540F31
:1036430070CF790080027901024114C082C0839057
:1036530004EE124C14EC75F012A4FCA8F075F012F1
:10366300EDA428FD79FF7A367B0B1214A0024114D6
:1036730074F7120373E9FEEAFF7A007B007800799E
:10368300008028E8FCE9FDEC75F012A4FC85F00845
:1036930075F012EDA42508123B0FC39E400AE0FC0F
:1036A300EFC39C4003123C2E1236FA123B0340D365
:1036B30002414CC082C0837800790080031236FA3D
:1036C3001236EE501F123B13F470F2E875F012A499
:1036D300F8AAF075F012E9A42AF9743628FA740BE3
:1036E30039FB80047A007B000241149004EE123B04
:1036F300C4C3E89AE99B22E8240108E93400F922CB
:1037030074F012037374F31208E78A0A8B0B8C0CA0
:103713008D0D8908EC450D6016AA0CAB0D120B82BA
:103723008A0E8B0FAE0EAF0FEE4F60030237C1123E
:103733000B588A0E8B0FA80EA90FE8FEE9FFE84984
:10374300607C902F8512382360227403650860061D
:103753007404650870167A047903120B52902F854E
:1037630012383A40077A007B00023820902F8312E8
:103773003823601B74016508600674026508700FC6
:103783007A027901120B52902F8312383A50D68560
:1037930018828519837401F0120AA9125BFAAC0C22
:1037A300AD0D7403120AA91238C8740B120AA912B8
:1037B30041281245C2E4125BE21210268004EE4F48
:1037C300604A780074FF2508C39404500278048E7D
:1037D300828F83125BFA8E828F83A3A3A3A3E50850
:1037E300F0E88E828F83A3A3A3A3A3125C02120229
:1037F30022123BDB8E828F83A3A3A3A3A3A3A3F0F5
:10380300123BD2120A8612617A120A9212382840A7
:1038130005901092E4F0120F00EEFAEFFB024BC892
:10382300125D1C49227A047900120B529004EE12A5
:103833006836EA98EB99221238537583047582EE41
:10384300E493C398F8A3E49399F9C3EA98EB992214
:10385300E493F8740193F92274F212037374F3126C
:1038630008E78A088B09ECFEEDFF750A00EEFAEF14
:10387300FB120B828A0C8B0DA80CA90DE849603E44
:1038830088828983E065087004A3E06509602F8856
:10389300828983A3A3A3A3E0C394055021126028C4
:1038A3008518828519837401F0120AA912602CEE1F
:1038B300FCEFFD7403120AA91238C8750A01A90A9C
:1038C300740D0256C61238CF120B4022AA82AB8364
:1038D300120B0A851882851983AA82AB832274F698
:1038E30012037312391D600FA3A3A3A3E014C3949F
:1038F3000450047901800279000241EB74F612034B
:103903007312391D600FA3A3A3A3E014C394025041
:10391300047901800279000241EB120B7C8A828BCD
:1039230083E58245832274F612037312391D600BFB
:10393300A3A3A3A3E070047901800279000241EB01
:10394300C082C083EAFCEBFD7A007B00024111C018
:1039530082C0837C007D0002411174F412037374EE
:10396300F31208E7EAFEEBFF8C0A8D0BC3EC94F825
:10397300ED94FF4007EE4F7003023A167508007589
:103983000900802E8518828519837401F0123D8108
:10399300120AA9123D8F60137403120AA9AC82ADF7
:1039A30083EEFAEFFB121D10E97049E508240112BA
:1039B3003BAF9004EEE4125D24E50898E5099950C5
:1039C30052E50875F012A4F8AAF075F012E509A4FF
:1039D3002AF912686960D4EE4F70A974FF650A7002
:1039E3000474FF650B60C4123D71650A7004A3E0A3
:1039F300650B70B7E50875F012A4F508A8F075F02B
:103A030012E509A428F50974362508FA740B35095B
:103A1300FB80047A007B0002438774F412037374FF
:103A2300F31208E7750800120B828A0A8B0BAE0AA1
:103A3300AF0BEE4F602A85188285198374011241FA
:103A430051F8A3E0F9740B120AA9124265120B2272
:103A53007C127D0079FFEEFAEFFB1214A0750801CA
:103A630012382850099010927401F0120F00A9081F
:103A730002438774F7120373E9FE74FE6A700374DA
:103A8300FF6B78007900700580521236FA123B03FF
:103A9300504AE8FCE9FDEC75F012A4FCAFF075F0B8
:103AA30012EDA42F123B0FF460E0E8FCE9FDEC7586
:103AB300F012A4FC75F012EDA42FFD74362CF582E0
:103AC300740B3DF583E06A7003A3E06B70BC80095F
:103AD300123B1314C3940440171236FA1236EE50F5
:103AE30018EE70EC123B1364016005E0640370E9A7
:103AF300123D62FAA3E0FB80047AFE7BFF02414C95
:103B03009004EE124C18C3E89CE99D22123C6322F8
:103B1300E8FAE9FBEA75F012A4FAACF075F012EBDF
:103B2300A42CFB743A2AF582740B3BF583E0221232
:103B33000B94024114C082C083790180F274F012A5
:103B430003738A0A8B0B7A047901120B528A0C8B4A
:103B53000DEA450D603EEAC333FAEB33FB12153C25
:103B63008A088B09AE08AF09EE4F60237AFE7BFF0C
:103B7300120B9A74FE6A700374FF6B601B850882D4
:103B830085098312415CE5082402123BAF80E1758D
:103B93000C0080047E007F00850A82850B83E50C80
:103BA300F0EEFAEFFB024BCDE5082407F508E50933
:103BB3003400F509229004EE124C18C3EA9CEB9DE5
:103BC30022E493FA740193FB2212149474032212D5
:103BD300618BE4F090819922E88E828F83A3A3A363
:103BE300A3A3A3A3A3123BFD7401123BFDA3F0EE19
:103BF300241012618EE4F0A3F0221245CEA3A3A3F6
:103C030022C082C0837A007B00800419123C2E12EA
:103C13003BB85010123C4DC3940550F0E970EC12C0
:103C23003C3780047A007B00024114EA24010AEB4A
:103C33003400FB22EA75F012A4FA75F012EBA42803
:103C4300FB74362AFA740B3BFB22EAFCEBFDEC75A2
:103C5300F012A4FCA8F075F012EDA428123C632224
:103C6300FD743A2CF582740B3DF583E02274F71250
:103C7300037374F31208E77E007F00023D15E50825
:103C830075F017A4F8A9F0126ACAFAA3E0FBEEF8DC
:103C9300EFF9E875F012A4F8ACF075F012E9A42C72
:103CA300123D706A7003A3E06B603FE50875F0177F
:103CB300A4F8AAF0EA126AC9F8A3E0F97401120A97
:103CC300A9E0687003A3E0696020E50875F017A414
:103CD300F8EAF974B228FC740C39FD7403120AA9CA
:103CE300AA82AB83121D10E96014E50875F017A4CE
:103CF300F8A9F074B028FA740C39FB1210320508D5
:103D0300902F8AE493F8E508C3985003023C81128C
:103D13003D599004EE126E105039EEF8EFF9123D52
:103D230062F47003A3E0F460E68518828519837456
:103D330001F0EEF8EFF9E875F012A4F875F012E966
:103D4300A42AF9123D81120AA9123D8F60C1750898
:103D53000080AD024147EE24010EEF3400FF22E85C
:103D630075F012A4F8AAF075F012E9A42AF9123D2D
:103D73007522743628F582740B39F583E022743882
:103D830028F582740B39124BBC740B22E8F0A3E9BB
:103D930012426D120B3AE922C082C08390033D7434
:103DA300F2F0A3740DF090033F74ECF0A3740DF0E4
:103DB300900343740CF0A3740CF002411474F712D3
:103DC3000373EAFEEBFF900377E06408601BE06493
:103DD3000460168E828F83E054036401704812419D
:103DE3001B1246C3E06406703D8E828F83A3A3E05B
:103DF30064FE7003A3E0F4602D8E828F83A3A3126D
:103E030041D6900368E0687003A3E069700BEE2469
:103E130015F582EF1268506008120EA0E9F50880CC
:103E230008120EA680F67508C2EEFAEFFB121542D1
:103E33000232C474F41203738A088B098A828B8357
:103E4300E0F8A3E0FAE82AFAE43400FB12153C8A0E
:103E53000A8B0BAE0AAF0BEE4F60638508828509B0
:103E630083E0FC7D0079001214A08E828F83A3A3CC
:103E7300127185120EE28E828F83A3A3A3A3124134
:103E83005C850882850983E0F8EE28F8EF34001298
:103E930041DE850882850983A3E0C0E0EE240D128C
:103EA300617DD0E0F0120EF4EE240E12617DE91272
:103EB300582FE0C0E0EE241112617DD0E0F0EEFA5D
:103EC300EFFB02438C74F612037374EB1208E7EAF8
:103ED300FEEBFF1254516003023F6C7A077B001222
:103EE300153C90033912415C12545160788E828FD5
:103EF30083120A8690033A1246C6120A9212704936
:103F0300C0E0123F78D0E0F0EE2405FAEF3400FB76
:103F13008A088B098A82F583E0C0E0123F73D0E000
:103F2300124383E0C0E0123F73A3D0E01241C812F2
:103F33000A86851882851983120A9288828983E00A
:103F4300C0E07405120AA9D0E0F0850882850983D0
:103F5300E0C0E07404120AA9D0E0F07407120AA9C1
:103F63001240AE800679108002790174150241E88F
:103F7300123F78A322900339E0FAA3E0F5838A8203
:103F8300A3A3A3A322C082C083125451600D900344
:103F930039125D5B900339E4F0A3F0120E10120F97
:103FA300D202411474F012037374EB1208E7ECFEAF
:103FB300EDFF89087425120AA9780C120A4C74299A
:103FC300120AA9E0F9742A120AA9E0FC742B120A56
:103FD300A9E0FD740F697005740F6C60129010E610
:103FE300E06402700579C10240A9E9C39C40F690E0
:103FF3000378780C120A6AE50890037EF0E99003CF
:104003007CF0ECA3F0ED90037FF074FF6A7003740F
:10401300FF6B701D9010F1E0F47003A3E0F47005E2
:104023001214B2800C9010F1124131E8F0A3E98030
:1040330007900375EAF0A3EBF0EE4F6017EEFAEF8B
:10404300FB121092E96401700BEEFCEFFD7A897BA1
:1040530003121D16900368E4F0A3F090036BF0A322
:10406300F0900388F09010E6E06402700890037CFF
:10407300740FF0A3F09003777405F014120AA9E407
:10408300F0900378120A86851882851983120A92A2
:1040930090037EE0C0E07405120AA9D0E0F0740733
:1040A300120AA91240AE7415024BCAE412426D12F1
:1040B3001D4022C082C083900338E070031217E2D0
:1040C300120BDC804CC082C083900338E0901091C7
:1040D3007004E4F0802D7401F0900338E0F4602361
:1040E3007C41E0C394415002E0FCECF8E0C398F05B
:1040F300EC75F0E8A4CCA8F075F003A428FD7A8051
:10410300124C207A917B107941121D2E8003120BE1
:1041130088D083D082020805EE12618C22E0F50874
:10412300A3E0F5092212412C22123504A322124BDB
:10413300BE9003752274F7120373EB90037FF012A2
:104143000DFE8005740D1208537F0102058D124187
:1041530057A3E0221241C8A322EAF0A3EBF0227492
:10416300F712037374F81208E7EAFEEBFF79009085
:104173000377E06408704485188285198374FDF021
:10418300A374FFF0120EDC7402120AA912415C74CC
:1041930005120AA9E4124157E0C0E07404120AA907
:1041A300D0E01241C3C0E07406120AA9D0E0F07453
:1041B30007120AA9E4124269120F1E740802414948
:1041C3001241C8E022F08E828F8322F08518828507
:1041D300198322124BBE22E0F8A3E0F912618BE8A7
:1041E300F0A3E9F0221208537F0202058DC082C0BA
:1041F30083900349749CF0A3740CF09003EF7478DC
:10420300F0A3740FF090034D74D2F0A3740CF090EC
:10421300034F749CF0A3740CF090035174D8F0A373
:10422300740CF002411474F412037374F91208E766
:104233008A088B098C0A8D0B851882851983780867
:10424300120A6A7404120AA9E9F07405120AA9E4AD
:10425300F07406120AA9E4124269120BC47407022D
:104263004389E8F0A3E912426D221241CEAA82AB40
:10427300832274F41203738A088B098A828B831254
:104283006199EE4F700302438190031212545460FC
:10429300158A828B83A3A3E0F9EEFAEFFB90031355
:1042A3001246C6121EEF8E828F83A3A3A3A3A3A3DA
:1042B300A3A3A3E0640270748E828F83A3A3A3A33A
:1042C300A3A3E05402700302435385088285098344
:1042D300A3A3E064E960798E828F83A3A3A3A3A33E
:1042E300A3A3A3A3A3E070149010E9E0048E828F2C
:1042F30083A3A3A3A3A3A3A3A3A3A3F08E828F83C8
:10430300A3A3A3A3A3A3A3A3A3A3E014124383A3DD
:10431300A3A37404F09010EA125BD4E8F0A3E912AB
:104323006CAD8B0BEA450B700312668B8E828F8309
:10433300A3A3A3A3A3A3A3A3A3E0640260128E82F7
:104343008F83A3A3A3A3A3A3A3A3A3E06406702EB5
:104353008E828F83A3A3A3A3A3A3E0A2E0501F8510
:104363000882850983A3A3E0F9EEFAEFFB121DD0BF
:104373008E828F83A3A3A3A3A3A3E054FEF080099B
:104383001245CA22740D1208537F0402058D74EC82
:1043930012037374DD1208E7EAFEEBFF8C088D0944
:1043A3007437120AA9780C120A4C750A00740512A4
:1043B3000AA9AC82AD83120AC27412120AA9E07070
:1043C300087415120AA9E060207405120AA9E0A274
:1043D300E6501E8E828F83A3A3A3A3A3A3A3A3A3A9
:1043E3001258CE120F54E960087903121CFE0245DD
:1043F300B07405120AA9E0540C64047005750B012E
:104403008003750B00E0A2E55035750A01E50BA2A8
:10441300E0402C120EE28A108B11A810A911124150
:104423001BE0687003A3E06960157405120AA91202
:10443300718C1258CA121DDCE96004790480AC74D3
:1044430005120AA9E0A2E650227406120AA9E05452
:104453000370187405120AA9E0540C640C600CE094
:10446300540C640860057510018003751000740511
:10447300120AA9E05403F8740268700C12718C12CA
:1044830058CA120AD40245B0740168703AE510A202
:10449300E050031245B87405120AA9A882A98374CF
:1044A30003120AA9E8F0A3E9124BB2851882851911
:1044B300831245C2E0C0E07402120AA9D0E012429E
:1044C30069121EC00245B0E860030245B090035F65
:1044D300E0640170108E828F83A3A3A3A3A3A3E040
:1044E300700302443E7422120AA97402124BB2747E
:1044F3001A120AA91241E2E510A2E050087405124B
:104503000AA91245B8E50BA2E0506AEE240FF58222
:10451300EF126850C0E07417120AA9D0E0F09003BC
:104523001412545470030245B0120EE28A128B1314
:10453300A812A913741A120AA9E0687003A3E06908
:10454300706B780C120838780A120844780812083D
:1045530040A910740C120AA9AC82AD837421120A0B
:10456300A9AA82AB839003141246C3121EEF7407E9
:104573001208538038780C120838780A12084478E5
:104583000812084090037512065CEE2412F582EFC0
:1045930012657E7423120AA9AC82AD83740E120ACB
:1045A300A9AA82AB83121DC474091208537423127F
:1045B3000853026C7812718C125D69120AC822E8E2
:1045C300F0A3E91245CA221245CE22F08E828F83D0
:1045D300A3A3A3A3A3A32274F71203731216CE02F9
:1045E300414C74F71203731216D402414C74F71240
:1045F30003731216E002414CC082C0831216DA0222
:10460300411474F71203731216E602414C74F71245
:1046130003737409120AA9E0F50878081208441212
:1046230016F27401024149C082C0831216FE024190
:1046330014C082C08312170402411474F712037367
:1046430012170A02414C74F7120373EAFEEBFF8957
:10465300087401650870147900120D14902F95E405
:1046630093FC7900EEFAEFFB120C8A02414C74F4CE
:1046730012037374F91208E7E9FE8A088B098C0A9E
:104683008D0B7413120AA91258CE9005A912545413
:104693006027EE851882851983F07401120AA978C0
:1046A30008120A6AEAF8EBF97405120AA9124265BC
:1046B3009005A91246C3121EEF024260FB90034B02
:1046C300E0F8A3E0F583888222C082C08312173A00
:1046D30002411474F7120373901094E0F97E008082
:1046E3000B12683C540D64017001190E1248D0502E
:1046F30003E970ED02414C74F7120373901095E0D7
:10470300F97E00800B12683C548D64817001190E90
:104713001248D05003E970ED02414C74F212037356
:10472300890BE975F006A4240CF508E5F0123BB3F8
:104733008A0CE508250CFAE5093400FB12153C8ABE
:104743000C8B0DAE0CAF0DEE4F6027AC08AD0979A5
:10475300001214A012411BE50BF0EE2508F8EF350B
:1047630009F98E828F83A3A3A3A3A3A3A3A3A31255
:1047730041E2EEFAEFFB0256C974F6120373EAFE46
:10478300EBFF120C66901093E0F8E9C39840099090
:1047930003451258CE120C6CEE2402F8EF125EDEC3
:1047A300900347125D98900347E004F0EEFAEFFBA5
:1047B300120C72850882850983E0026394C082C06B
:1047C3008379009003458001091258CE8A828B8336
:1047D300E582458370F202411474F7120373EAFE13
:1047E300EBFFEE4F6056900345125454604E88829F
:1047F30089837A007B00EE65827003EF6583600F27
:10480300AA82AB83124842E5824583602F80E790FA
:10481300034512484E687002EF698E828F837008D9
:104823001241D69003458003126C8A1241E2EEFADC
:10483300EFFB121E90EEFAEFFB12154202414C12EF
:10484300484622124BC28882898322124BBEEE2233
:10485300C082C083900345800488828983125454A4
:10486300600B88828983124F06EC4D70EC8A828B31
:1048730083E4F0A3F0E8496006888289838003908B
:10488300034512415C02411474F71203739003450C
:1048930080048A828B831248CB4B60257E00800183
:1048A3000E1248D050ECEE75F006A4FCADF0EA2CE5
:1048B300FCEB3DFDEC2410F582ED12492070E18004
:1048C300047A007B0002414C125D6DEA22124929F1
:1048D300EEC3982274F71203737D0080010D124911
:1048E30025EDC3985034ED75F006A4FEA8F0E8FF5B
:1048F300EA2EFEEB3FFFEE2410F582EF1249207003
:10490300DCED75F006A4FEE8FFEA2EFAEB3FFBEAC6
:104913002411F582EB1268504CF002414C12685C92
:10492300692212492922127196EB3400F583E0F8CB
:104933002274F6120373120D8C7A007B008025EA31
:10494300F8EBF9E875F006A4F8ACF075F006E9A405
:104953002C125D42127057A3E4125E38F0A312705A
:104963005D1271D4902F7F12383240D37A007B00CE
:10497300801C8A088B09740378081209E81257F619
:10498300A374FEF0A304125C18A3E41271D4902F55
:10499300891249D340DC7A007B00801D8A088B0989
:1049A300740378081209E874D81264C8740F126D7E
:1049B3000F74FEF0A3041271D4902F8F1249D340C9
:1049C300DB902F93E493900353F01249DD0241EB04
:1049D300E493F8C3EA98EB9400227CE87D037A1011
:1049E3007B009003C2E0F91215F62274F0120373F0
:1049F30074F51208E78A088B09890A8C0BE9A2E08F
:104A030050147508FC7509FFA2E15005D2E4024A6F
:104A1300B0D2E3024AB01256B57003A3E069700541
:104A23007900024B7DAC0A7902AA08AB09120D6822
:104A3300E960EDE50AF50C780C12084479027CFE76
:104A43007DFFAA08AB09125430120853E960030230
:104A53004B7BE50AC2E5F50A9003B5E07051E50A20
:104A6300A2E6404B7403120AA9AC82AD83AA08AB39
:104A730009120B16E97032124D518A0C8B0DA80CDA
:104A8300A90DE8FEE9FFE8496025EE24020A0AEFD2
:104A9300123542601AEE2402FCEF3400FD74031257
:104AA3000AA9AA82AB83121D16E50AD2E5F50A907C
:104AB3000348E0F50C900368E0F50EA3E0F50F78EA
:104AC3000E1208407D017C00900348E0F9AA0EAB6A
:104AD3000F120D207402120853E9F8900348E00402
:104AE300F0E86003024B7BE50AA2E55004740E80F4
:104AF300027406C0E07401120AA9D0E01261AA8A06
:104B03000E8B0FAE0EAF0FEE4F6069124B9B124B25
:104B1300B2888289837401F07478550AA312719C58
:104B2300E50C12719CA3E508F0E509124B8AE4F049
:104B3300E50AA2E5500F7403120AA9AC82AD83E81B
:104B43002406124B818E828F83A3A374FDF0A3747A
:104B5300FFF0E50B6015902F96E493F8E50BC398EF
:104B63005009EE241312617DE50BF0EEFAEFFB1210
:104B73000BB880067910800279C7740B8049FAE973
:104B83003400FB121D162288828983A3A3A3A312D8
:104B93004B9622125F11A322EE241712618E740129
:104BA300F0120EDCEE241A12618EEAF0A3EB22F06F
:104BB3001271903400124BBC22F583124BC222E0D7
:104BC300F8A3E0F922740D1208537F0802058D74CF
:104BD300F61203737A007B1012669860089003D470
:104BE3007401F0802990064AE064019010E7700692
:104BF300E0FC79018004E0FC79037A007B00120C6D
:104C03008A902F7D124C147A007B10124C220241A1
:104C1300EB124C1822E493FC740193FD227B009069
:104C230003C2E0F91215F02274EC1203738A088BA5
:104C3300098C0C8D0D890E7414120AA912560F7467
:104C430016120AA9E0F510A3E0F511120F54E9605A
:104C5300077AFF7BFF024D4E9010E6E0640260038B
:104C6300024D417900AA08AB09120D6EA90E120D6F
:104C7300628A128B13AE12AF13EE4F7003024D29EB
:104C83008E828F83A3A3A3A3A3E064018E828F8369
:104C9300A3A370691258CE8E828F83A3A3A3A3A369
:104CA300A3E054186043902F94E4938E828F83A3E0
:104CB300A3A3A3F0EA650C7003EB650D6014EA652A
:104CC3000A7003EB650B600AEA65107003EB65116C
:104CD300701F7810120840AC0AAD0BAA0CAB0D1272
:104CE300105074021208538008900367126682A35F
:104CF300F074FE6A700374FF6B601D804EA3A3A360
:104D0300E0640360298E828F83A3A3A3A3A3E0643B
:104D13000470057AFE024C568E828F83A3A3A3A34D
:104D2300A3E0640270089003B4E064027010124DB3
:104D3300518B0BEA450B6006AA08AB09800DAA0844
:104D4300AB099003491246C3121EEF026C7890031D
:104D5300751254361210142274F7120373EAFEEB21
:104D6300FF120B6AE9700AEEFAEFFB120B76E960A9
:104D730006EEFAEFFB80047AFE7BFF02414C74F0EF
:104D83001203738A0A8B0B8C0E8D0F890975080029
:104D9300120F54E979006003024EF8AA0AAB0B1212
:104DA3000D6EA909120D628A0C8B0DAE0CAF0DEEC0
:104DB3004F60198E828F83A3A3A3A3A3E064027021
:104DC300559003B4E064027003024EF6AA0AAB0BDB
:104DD30090034F1246C3121EEF120B7C8A0C8B0DED
:104DE300A80CA90DE8497003024EF688828983A3B3
:104DF300A3A3A3A3E0A2E04003024EF6750C01A215
:104E0300E150687901AC0AAD0BAA0EAB0F120CBAD4
:104E1300E97064024EF68E828F83A3A3A3A3A3E05B
:104E230064037005750C0280528E828F83A3A3A343
:104E3300A3A3E064016003024EF6900375124F06CC
:104E43008E828F8312525B8A0C8B0DA80CA90DE8FE
:104E53004960D1902F8DE493FA88828983E0C39AC5
:104E630050C2A3E06003024EF680B988828983A30F
:104E7300A3A3A3A3D2E1F0EE4F603A8E828F83A364
:104E8300A3A3A3A3A3E05418602B7508018E828FFC
:104E930083A3A312065C750CFE750DFF780C120834
:104EA300407900AC0AAD0BAA0EAB0F120D8074044F
:104EB300120853803E900368E0650E7004A3E0651A
:104EC3000F7014902F95E493FCA909AA0AAB0B1257
:104ED3000C8A750801801CA90CAC0AAD0BAA0EAB99
:104EE3000F120CBAE9700C750801A909AA0AAB0BD9
:104EF300120D14A908024BCDE50C2415F582E50D1E
:104F0300126191125BEE2274EA12037374F01208B9
:104F1300E78A0C8B0D8C088D097426120AA9E0F51B
:104F230014A3E0F5157512069003F512545460238B
:104F3300900375124F06AA08AB0912103E8A108B14
:104F430011EA4511600D8A828B83A3E07005790015
:104F5300025243E50C241DF50EE50D3400F50F85D3
:104F63000E82125440F51388828983A3A3A3E0FA27
:104F730088828983A3A3A3A3E0F9EA2400FEE4398A
:104F8300FFAA08AB09120D1A850E82850F831252F0
:104F93007EE029F50BE50AA2E5500375120E74872E
:104FA300550A70177418550A6418600FE50C241716
:104FB300F582E50D126850651260077901121CFE37
:104FC300808C530A78C3EE94F8EF94FF501D790058
:104FD300EEFAEFFB12524D601288828983A3A3A3DA
:104FE300A3A3A3E054186003024F517808120840AA
:104FF3007D00125271120853E9F8740368700302BA
:105003004F51E860030250BC7418550A70030251F3
:1050130071E50AD2E0F50AA2E45004D2E1F50AA947
:105023000A1258C712524D605388828983A3A3A3DF
:10503300A3A3A3E05418604488828983A3A3A3A3F2
:10504300A3E064017036E5104511603090037512DA
:105053004F068882898312525B8A0E8B0FA80EA992
:105063000FE849601788828983A3E0600F85108267
:10507300851183A312639F5003024F51E50AF50E76
:10508300780E120844125264120853E9702B7C0004
:105093007D0085148285158374FFF0A3F0850C824F
:1050A300850D83A3A3A3A3A3A3A3A3E06003124E2D
:1050B300FBA90B1258C71216F8851482851583E0D5
:1050C300F47003A3E0F460399003B4E06402700366
:1050D300024F51125600E0FAA3E01246BF121EEF30
:1050E300EA65087003EB65096003024F51EEFAEFBE
:1050F3001246BF121EEF851482851583EAF0A3EBD7
:10510300F078081208407D01125271120853A90A5F
:10511300EEFAEFFB120D6E8A088B09A808A9099015
:105123000368E0687003A3E0696003025234EEFA97
:10513300EFFB120B7C8A088B09A808A909E84960D0
:105143006E88828983A3A3A3A3E06401600D888290
:105153008983A3A3A3A3E0640270548518828519ED
:1051630083AC82AD83EEFAEFFB120B1680559003EE
:1051730061E0600FE50AF50E780E120844125264DE
:10518300120853E50AF50E780E12084479027CFEE4
:105193007DFFEEFAEFFB125430120853E96003026D
:1051A30050BC85148285158374FFF0A3025103124A
:1051B3000EDCEAFCEBFD851882851983AA82AB839A
:1051C300121D16850C82850D83A3A3A3A3A3A3A3FA
:1051D300A3E06401700F124EFB7408120AA9AA829D
:1051E300AB83121D1612540A1260164430F5087868
:1051F300081208447401120AA98582088583097874
:1052030008120840740B120AA9858208858309785D
:1052130008120840E513F50878081208447900EEEF
:10522300FCEFFD1258C7120CB47406120853024F58
:105233005112540A12618012527EE50BF0120EF4E1
:1052430074101208537F0E02058D120D628A0E8BA5
:105253000FA80EA90FE84922A3A3125D6D12103EF9
:10526300227901AC08AD09125D6212543022AC0BF5
:10527300A913125D62120D2074022212601EA3A3F1
:10528300A3A32274F012037374F01208E78A0C8B41
:105293000DECFAEDFB750F089003F51254546014EE
:1052A3001263988A828B83E58245836007A3E0704B
:1052B3000302540512540A3400125440F50B888239
:1052C3008983125413E0FBEC2400FEE43BFF888245
:1052D3008983A3A3125413A3A3E0FBECF508E43BD7
:1052E300F50988828983A3A3A3A3A3A3A3E0F50E4F
:1052F300E50AA2E45003750F10A2E55006740825D1
:105303000FF50F748F550A700FE50C2417F582E51E
:105313000D126850650F60087901121CFE025405D6
:10532300530A707800E50AA2E4502212540A126864
:10533300502408FCA3E03400FD7408120AA9AA82D1
:10534300AB83121D167808E50AC2E4F50AE50AA242
:10535300E5502812540A12685028F8A3E03400F9E3
:10536300E82408FCE93400FD851882851983AA82A4
:10537300AB83121D16E50AC2E5F50AAC0EA90BEEC6
:10538300FAEFFB120D26E9F8740368607590036861
:10539300E06E7003A3E06F605EE87054E50AF50FFA
:1053A300780F120844125421120853E97054780AF2
:1053B3001208447401120AA985820C85830D780CA6
:1053C300120840740B120AA985820C85830D780C90
:1053D300120840E50BF50A780A120844A90EAC0836
:1053E300AD09EEFAEFFB120CB474061208538012E7
:1053F300740468700D80B7780A120844125421129D
:1054030008537410024BCAE50C241DF582E50D22E6
:10541300A3A3A3E0FC88828983A3A3A3A322790186
:1054230012560712619112543612543022120CDEB6
:10543300740122E0FCA3E0FDAA08AB0922F5831264
:105443004846A3E0F50A88828983A3A3E022900358
:1054530039125DC92274E812037374F51208E7EA7E
:10546300FEEBFF8C088D0989147423120AA9E0F559
:105473000F7424120AA9E0F512A3E0F5137426129F
:105483000AA9E0F516A3E0F5177428120AA9E0F5B6
:105493000EA90F120D2C8A108B117401120AA97414
:1054A30008F0E50EA2E450037410F0E50EA2E550F7
:1054B30004E02408F0851882851983AA82AB83123D
:1054C3000F3C8A0C8B0DEA450D70030255E7EA2465
:1054D30017F582EB1255F9120EDCE50C241AF5824E
:1054E300E50D12618012415C7403120AA9AC82AD0E
:1054F30083AA10AB11120B16E9601D1255F1740348
:10550300120AA9A882A983E50C2418F582E50D12D5
:105513006180E8F0A3E98024E50EA2E4501FE510C2
:105523006E7003E5116F70151255F1E50C2418F533
:1055330082E50D126180E512F0A3E513F012560027
:1055430012560F850A82F5837402F0A3E50E1256F4
:1055530017E50FF0EE850A82850B83A3A3A3F0EF73
:10556300850A82850B83A3A3A3A3125617A3A3A320
:10557300E508F0E509850A82850B83A3A3A3A3A30A
:10558300A3F0AA10AB11120D1AE92514850A82851E
:105593000B83A3A3A3A3A3A3A3F0750800E50EA203
:1055A300E45011AC12AD13E50A2408FAE50B124BD3
:1055B30083750808E50EA2E55014AC16AD17E50A8D
:1055C3002508F8E50B3400F9E82408124B81850C13
:1055D30082850D83A3A3E510F0A3E511F0AA0CAB1C
:1055E3000D120BB8740B1208537F1002058DE50CD6
:1055F3002416F582E50D1261917401F0221256070B
:1056030012619122E50C127197E50D22E0F50AA3D0
:10561300E0F50B22F0850A82850B83A3A32274F2A3
:105623001203738A088B09ECFEEDFF890A790012D5
:1056330056B57003A3E069700479018073750B019B
:10564300900368E065087004A3E06509601F750BAB
:1056530000780B120844A90AEEFCEFFDAA08AB0977
:10566300120F907401120853E9F50B80417900EE93
:10567300FAEFFB120D62EA4B602B8A828B83A3A3A2
:10568300A3A3A3A3E05418601C7508FE7509FF7853
:10569300081208408A828B83A3A312065C126FACA4
:1056A30012085380097901EEFAEFFB120C3CA90BA7
:1056B3008014120D6E8A0C8B0DA80CA90D90036833
:1056C300E068221208537F0602058D74F4120373F7
:1056D30075082075090E7A10126CB48B0BEA450B12
:1056E30070031249DD900353E014F0700C902F9374
:1056F300E493900353F0120D7A7E007F00806C8553
:105703000882850983A3A3A3A3E06059F46056E547
:10571300082404F582E50912667C704985088285B0
:105723000983A3A3A3A3A3E06403701979028508E3
:1057330082850983124F06850882850983A3A312F4
:1057430058CE120CBA850882850983A3A3A3A3A309
:10575300E06401601085088285098374FEF0A30468
:10576300125828E4F0123D59123BAB902F81126E70
:1057730010408C7E007F008039120E828E088F09C4
:10578300740378081209E874982508FC740F350926
:10579300FD7AC67B0C120E70EA4B70DD8E088F0902
:1057A300740378081209E81257F6127057E4F012DE
:1057B3003D59902F89E493F8C3EE98EF9400501B62
:1057C3008E088F09740378081209E81257FEE8243B
:1057D30007F582E912667C70D680A17E007F008087
:1057E3000A125809600214F0123D59126E0D40F16D
:1057F30002438C1257FE888289832274982508F805
:10580300740F3509F922EEF8EFF9E875F006A4F8FC
:10581300AAF075F006E9A42AF9743828F582740F02
:1058230039F583E02212582FA3A3A322F08508821F
:10583300850983A3A32274F712037374E11208E7A3
:10584300ECFEEDFF750800EE4F60728A828B83E0F9
:10585300241C1266AD12545460638A828B831258DF
:10586300CE851882851983AC82AD83EA241BF58229
:10587300EB12657EEA241CF582EB1258CA120EC4A1
:10588300740B120AA91258D27003A3E069702E7424
:1058930002120AA9E064017024741D120AA91246B7
:1058A300C3E064017017741D120AA91246C5A3A3AD
:1058B300E0F88E828F83E0687003750801A908748D
:1058C3001F0241491256073400F583125D6D2212FF
:1058D3003500E0682274F4120373E97024790090B0
:1058E300034D1246C3121EEF8A0A8B0BAE0AAF0B8F
:1058F30074FE6E700374FF6F701A902F90E49360C0
:1059030013790190034D1246C3121EEF8A0A8B0BC3
:10591300AE0AAF0B120F00023EC174F6120373748A
:10592300F31208E71214B28A088B09AE08AF099084
:105933000368E06E7003A3E06F60E9120EE8EA6E9D
:105943007002EB6F60DEEEFAEFFB120F54E970D4D6
:10595300EE4F60D0851882851983E4F004120AA9FA
:10596300EEF0A3EF125980E970BA74FE6E700374FF
:10597300FF6F60B0EEFAEFFB740D0241E812426D67
:10598300120B2E22C082C083120F000241147F0A21
:1059930002058D74F2120373EAFEEBFF8C0A8D0B82
:1059A3008908740E120AA9E0F50974FC6E70037479
:1059B300FF6F700579000256C97900120D6E8A0CCB
:1059C3008B0DAE0CAF0D900368E06E7003A3E06F18
:1059D3007006E509A2E650DCA909126E9A70617996
:1059E300007AFE7BFF126E9A705674185509700385
:1059F300025ACD7800790080031236FA902F811273
:105A030036F14003025ACDE8FAE9FBEA75F007A440
:105A1300FAACF075F007EBA42CFB74262AF582741C
:105A23000E3BF583E0541870D0E875F007A4F8AA8C
:105A3300F075F007E9A42AF9742028F8740E39F9EF
:105A430088828983A3A3A3A3A3A3E0541860097442
:105A530018550970030259B788828983EEF0A3EFC2
:105A6300F074FE650A700474FF650B6003125BF447
:105A730088828983A3A3A3A3A3A3E509F0A2E0508B
:105A83000D88828983A3A3A3A3A3A3D2E2F0740105
:105A9300650888828983A3A3A3A3A3703874011222
:105AA3005C18E054186028902F94E49388828983CB
:105AB300A3A3A3A3125BE212103E8B0DEA450D6074
:105AC300030259B778007900803979020259B990F5
:105AD3000367E080D7E0640170030259B7888289C5
:105AE30083A3A3A3A3A3A3E054186007902F94E474
:105AF300938004900366E0124B8AE508F00259B7DD
:105B03001236FA902F8AE493FAC3E89AE994004094
:105B1300030259B77A007B00804BEAFCEBFDEC757E
:105B2300F007A4FCAEF075F007EDA42EFD74222C53
